:100000000C942A000C94A10C0C94D40C0C94070DA5
:100010000C94490A0C94160A0C9447000C94B009ED
:100020000C94E3090C947D090C944A090C9417096B
:100030000C9447000C9447000C9447000C94470024
:100040000C94EE110C9447000C9447000C9447005C
:100050000C94470011241FBECFE5D8E0DEBFCDBF12
:1000600011E0A0E6B0E0ECE5F5E402C005900D92E9
:10007000A03EB107D9F711E0A0EEB1E001C01D929A
:10008000A33FB107E1F70E94A71E0C94AC220C9489
:100090000000EF92FF920F931F937B018C0120E0F1
:1000A00030E040E05FE40E94F50388238CF0C80153
:1000B000B70120E030E040E05FE40E94C1010E940F
:1000C00055049B01AC01205030404040504806C0D0
:1000D000C801B7010E9455049B01AC01B901CA01D6
:1000E0001F910F91FF90EF900895A0E0B0E0EBE733
:1000F000F0E00C947522DC012B01FA019C91923006
:1001000008F439C1EB018881823008F433C194309E
:1001100069F4843009F02FC111969C91119789815F
:10012000981709F428C1A6ECB0E025C1843009F481
:1001300021C18230A9F4923009F01DC19A01AD01AC
:1001400088E0EA010990AE01E90109929E0181501F
:10015000C1F7E201898111969C918923818308C1AD
:10016000923009F407C112962D903C901397EB0141
:100170008A819B811496AD90BD90CD90DC901797AD
:10018000EC80FD800E811F819101281B390BB90184
:1001900037FF04C066277727621B730B6032710537
:1001A0000CF061C0121613066CF537014801062EDB
:1001B00004C096948794779467940A94D2F721E0C8
:1001C00030E040E050E004C0220F331F441F551FB1
:1001D0006A95D2F721503040404050402E213F21B7
:1001E00040235123211531054105510521F021E01E
:1001F00030E040E050E079018A01E628F72808293C
:1002000019293CC0232BD1F1260E371E350146019A
:10021000062E04C096948794779467940A94D2F734
:1002200021E030E040E050E004C0220F331F441FC3
:10023000551F6A95D2F721503040404050402A2146
:100240003B214C215D21211531054105510521F04E
:1002500021E030E040E050E059016A01A628B728CB
:10026000C828D9280BC0821593052CF01C01AA249C
:10027000BB24650103C0EE24FF24870111969C91E5
:10028000D20111968C91981709F445C0992339F041
:10029000A80197012A193B094C095D0906C0A6016E
:1002A00095012E193F09400B510B57FD08C01182D3
:1002B0003382228224833583468357831DC081E0A5
:1002C00081833382228288279927DC01821B930B4A
:1002D000A40BB50B84839583A683B7830DC0220F2F
:1002E000331F441F551F24833583468357838281E0
:1002F000938101979383828324813581468157813D
:10030000DA01C9010197A109B1098F5F9F4FAF4F72
:10031000BF4328F30BC0918333822282EA0CFB1C7B
:100320000C1D1D1DE482F5820683178383E0808304
:10033000248135814681578157FF1AC0C901AA27F8
:1003400097FDA095BA2F81709070A070B0705695EF
:10035000479537952795822B932BA42BB52B848318
:100360009583A683B7838281938101969383828349
:10037000DF0101C0D201CD01CDB7DEB7E2E10C94BF
:100380009122A0E2B0E0E7ECF1E00C9481226983D5
:100390007A838B839C832D833E834F835887E9E048
:1003A000EE2EF12CEC0EFD1ECE010196B7010E943F
:1003B00046068E010F5E1F4FCE010596B8010E94C2
:1003C00046068A8991E089278A8BC701B801AE0168
:1003D000475E5F4F0E9475000E947105A096E6E09F
:1003E0000C949D22A0E2B0E0E8EFF1E00C948122B1
:1003F00069837A838B839C832D833E834F835887C5
:10040000F9E0EF2EF12CEC0EFD1ECE010196B701A6
:100410000E9446068E010F5E1F4FCE010596B80161
:100420000E944606C701B801AE01475E5F4F0E94B9
:1004300075000E947105A096E6E00C949D22A0E252
:10044000B0E0E5E2F2E00C94752269837A838B8355
:100450009C832D833E834F835887CE010196BE0136
:10046000675F7F4F0E944606CE010596BE016F5E14
:100470007F4F0E9446069985923088F089898230A4
:10048000C8F0943019F4823051F404C0843029F457
:10049000923081F486EC90E0C6C0923049F420E0BE
:1004A0009A858A89981321E02A87CE010996BBC0D4
:1004B000823049F420E09A858A89981321E02A8BBA
:1004C000CE014196B0C02D843E844F8458886D88FB
:1004D0007E888F88988CEE24FF248701AA24BB2471
:1004E000650140E050E060E070E0E0E0F0E0C10174
:1004F00081709070892BE9F0E60CF71C081D191D1E
:100500009A01AB012A0D3B1D4C1D5D1D80E090E062
:10051000A0E0B0E0E614F7040805190520F481E036
:1005200090E0A0E0B0E0BA01A901480F591F6A1F8E
:100530007B1FAA0CBB1CCC1CDD1C97FE08C081E0F5
:1005400090E0A0E0B0E0A82AB92ACA2ADB2A3196B6
:10055000E032F10549F0660C771C881C991C569412
:10056000479437942794C3CFFA85EA892B893C892D
:100570008B859C85280F391F2E5F3F4F17C0CA01FE
:1005800081709070892B61F016950795F794E79428
:1005900080E090E0A0E0B0E8E82AF92A0A2B1B2BC3
:1005A00076956795579547952F5F3F4F77FDE7CF36
:1005B0000CC0440F551F661F771F17FD4160EE0CDE
:1005C000FF1C001F111F21503040403090E05907A0
:1005D00090E0690790E4790760F32B8F3C8FDB0193
:1005E000CA018F779070A070B07080349105A1051A
:1005F000B10561F447FD0AC0E114F10401051105DC
:1006000029F0405C5F4F6F4F7F4F40781A8EFE1786
:1006100011F081E08A8F4D8F5E8F6F8F78A383E01A
:10062000898FCE0149960E947105A096E2E10C9453
:100630009122A8E1B0E0EFE1F3E00C947D22698320
:100640007A838B839C832D833E834F835887B9E0C5
:10065000EB2EF12CEC0EFD1ECE010196B7010E948F
:1006600046068E010F5E1F4FCE010596B8010E940F
:1006700046062985223008F47EC03989323010F4CC
:10068000B8017CC08A859A8989278A87243011F02D
:10069000223031F4231709F06EC066EC70E06EC0B2
:1006A000343039F41D861E861F86188A1C861B86E8
:1006B00004C0323021F484E08987B7015FC02B8504
:1006C0003C858B899C89281B390B3C872B87ED84C3
:1006D000FE840F851889AD88BE88CF88D88CEA142F
:1006E000FB040C051D0540F4EE0CFF1C001F111F40
:1006F000215030403C872B8720E030E040E050E044
:1007000080E090E0A0E0B0E460E070E0EA14FB0478
:100710000C051D0540F0282B392B4A2B5B2BEA18C2
:10072000FB080C091D09B695A79597958795EE0CC2
:10073000FF1C001F111F6F5F7F4F6F31710531F775
:10074000DA01C9018F779070A070B0708034910584
:10075000A105B10561F427FD0AC0E114F10401050A
:10076000110529F0205C3F4F4F4F5F4F20782D87B8
:100770003E874F87588BBE01675F7F4FCB010E943A
:1007800071056896EAE00C949922A8E1B0E0EBECE0
:10079000F3E00C94812269837A838B839C832D837D
:1007A0003E834F83588789E0E82EF12CEC0EFD1E26
:1007B000CE010196B7010E9446068E010F5E1F4FC3
:1007C000CE010596B8010E9446068985823040F028
:1007D0008989823028F0C701B8010E94BE0601C095
:1007E0008FEF6896E6E00C949D22A8E1B0E0EBEF75
:1007F000F3E00C94812269837A838B839C832D831D
:100800003E834F83588789E0E82EF12CEC0EFD1EC5
:10081000CE010196B7010E9446068E010F5E1F4F62
:10082000CE010596B8010E9446068985823040F0C7
:100830008989823028F0C701B8010E94BE0601C034
:100840008FEF6896E6E00C949D22A8E1B0E0EBE221
:10085000F4E00C94812269837A838B839C832D83BB
:100860003E834F83588789E0E82EF12CEC0EFD1E65
:10087000CE010196B7010E9446068E010F5E1F4F02
:10088000CE010596B8010E9446068985823040F067
:100890008989823028F0C701B8010E94BE0601C0D4
:1008A00081E06896E6E00C949D22ACE0B0E0EBE5D8
:1008B000F4E00C94852269837A838B839C83CE0138
:1008C0000196BE016B5F7F4F0E9446068D8182308C
:1008D00061F1823050F1843021F48E81882351F10E
:1008E0002EC02F81388537FD20C06E812F31310514
:1008F0001CF06623F9F023C08EE190E0821B930B7D
:1009000029853A854B855C8504C056954795379572
:1009100027958A95D2F76623B1F05095409530958A
:1009200021953F4F4F4F5F4F0EC020E030E040E039
:1009300050E009C02FEF3FEF4FEF5FE704C020E02A
:1009400030E040E050E8B901CA012C96E2E00C9496
:10095000A122A8E0B0E0EFEAF4E00C947D227B0154
:100960008C01611571058105910519F482E0898377
:1009700060C083E089838EE1C82ED12CDC82CB82DB
:10098000ED82FE820F831887C801B7010E942205FD
:10099000FC013197F7FF3BC0222733272E1B3F0B6B
:1009A00057016801022E04C0D694C794B794A79447
:1009B0000A94D2F740E050E060E070E081E090E01F
:1009C000A0E0B0E004C0880F991FAA1FBB1F2A95A2
:1009D000D2F70197A109B1098E219F21A023B1234C
:1009E0000097A105B10521F041E050E060E070E022
:1009F0004A295B296C297D294D835E836F83788723
:100A00008EE190E08E1B9F0B9C838B8312C03097EE
:100A100081F00E2E04C0EE0CFF1C001F111F0A9463
:100A2000D2F7ED82FE820F831887CE1ADF0ADC82AE
:100A3000CB821A82CE0101960E9471052896EAE0C7
:100A40000C949922EF92FF920F931F937B018C01DC
:100A500080E0E81680E0F80681E0080780E01807EB
:100A600088F48FEFE816F1040105110531F028F044
:100A700088E090E0A0E0B0E017C080E090E0A0E067
:100A8000B0E012C080E0E81680E0F80680E00807D9
:100A900081E0180728F088E190E0A0E0B0E004C011
:100AA00080E190E0A0E0B0E020E230E040E050E003
:100AB000281B390B4A0B5B0B04C016950795F7945E
:100AC000E7948A95D2F7F701E253FF4F8081281B04
:100AD000310941095109C9011F910F91FF90EF9010
:100AE0000895DF92EF92FF920F931F93FC01E48031
:100AF000F58006811781D1808081823048F480E0C2
:100B000090E0A0E1B0E0E82AF92A0A2B1B2BA5C04F
:100B1000843009F49FC0823021F4EE24FF24870141
:100B200005C0E114F1040105110519F4E0E0F0E05D
:100B300096C0628173819FEF623879070CF05BC0C9
:100B400022E83FEF261B370B2A3131052CF020E03D
:100B500030E040E050E02AC0B801A701022E04C0F6
:100B600076956795579547950A94D2F781E090E07E
:100B7000A0E0B0E004C0880F991FAA1FBB1F2A95F0
:100B8000D2F70197A109B1098E219F21A023B1239A
:100B90000097A105B10521F081E090E0A0E0B0E070
:100BA0009A01AB01282B392B4A2B5B2BDA01C901A7
:100BB0008F779070A070B07080349105A105B10559
:100BC00039F427FF09C0205C3F4F4F4F5F4F04C0EF
:100BD000215C3F4F4F4F5F4FE0E0F0E02030A0E05E
:100BE0003A07A0E04A07A0E45A0710F0E1E0F0E07D
:100BF00079018A0127C06038710564F5FB01E1586D
:100C0000FF4FD801C7018F779070A070B07080340B
:100C10009105A105B10539F4E7FE0DC080E490E02F
:100C2000A0E0B0E004C08FE390E0A0E0B0E0E80E08
:100C3000F91E0A1F1B1F17FF05C016950795F7948D
:100C4000E794319687E016950795F794E7948A958F
:100C5000D1F705C0EE24FF248701EFEFF0E06E2FFF
:100C6000679566276795902F9F77D794DD24D79453
:100C70008E2F8695492F462B582F5D29B701CA0123
:100C80001F910F91FF90EF90DF900895FC01DB0121
:100C9000408151812281622F6F7770E0221F2227CD
:100CA000221F9381892F880F822B282F30E0991FD4
:100CB0009927991F11969C93119721153105A9F534
:100CC000411551056105710511F482E037C082E8D4
:100CD0009FEF13969C938E9312979A01AB0167E056
:100CE000220F331F441F551F6A95D1F783E08C9361
:100CF0000DC0220F331F441F551F12968D919C91DA
:100D00001397019713969C938E931297203080E04F
:100D1000380780E0480780E4580758F314962D936D
:100D20003D934D935C93179708952F3F310579F4C8
:100D3000411551056105710519F484E08C930895FE
:100D400064FF03C081E08C9312C01C9210C02F5727
:100D5000304013963C932E93129783E08C9387E058
:100D6000440F551F661F771F8A95D1F7706414963C
:100D70004D935D936D937C93179708951F93DC01BA
:100D8000FB019C91923008F447C08081823008F4C6
:100D900043C0943051F411961C91843099F58181AF
:100DA000682F70E0611B71093FC0843021F09230E0
:100DB00031F48230B9F18181882389F12DC01196F7
:100DC0001C9111978230F1F081811817D9F4129695
:100DD0002D913C911397828193818217930794F010
:100DE00028173907BCF014968D919D910D90BC91F8
:100DF000A02D2481358146815781281739074A075C
:100E00005B0718F4112341F00AC082179307A40767
:100E1000B50740F4112319F061E070E005C06FEFF1
:100E20007FEF02C060E070E0CB011F910895DF9377
:100E3000CF93CDB7DEB7A1E2B0E0E1E2F0E0808190
:100E40008D7F8C93A1E2B0E0E1E2F0E080818E7FC3
:100E50008C93E0E2F0E08CE08083A6E5B0E0E6E58C
:100E6000F0E0808180648C93A6E5B0E0E6E5F0E0F8
:100E7000808184608C93CF91DF910895DF93CF932D
:100E80000F92CDB7DEB78983E2E2F0E08981880F67
:100E90008083A6E5B0E0E6E5F0E0808180648C9395
:100EA000A6E5B0E0E6E5F0E0808184608C930F90E9
:100EB000CF91DF910895DF93CF930F92CDB7DEB737
:100EC00081E08983A6E5B0E0E6E5F0E0808180621C
:100ED0008C93A6E5B0E0E6E5F0E0808180688C9335
:100EE000E6E5F0E080818823DCF7E1E2F0E0808154
:100EF000882F90E0887F90708830910511F082E013
:100F0000898389810F90CF91DF910895DF93CF93EB
:100F10000F92CDB7DEB781E08983A6E5B0E0E6E5C4
:100F2000F0E0808180628C93A6E5B0E0E6E5F0E039
:100F3000808180688C93E6E5F0E080818823DCF78F
:100F4000E1E2F0E08081882F90E0887F907080312E
:100F5000910511F083E0898389810F90CF91DF9112
:100F60000895DF93CF9300D0CDB7DEB78A8381E0B9
:100F70008983E3E2F0E08A81880F8083A3E2B0E016
:100F8000E3E2F0E080818E7F8C93A6E5B0E0E6E5B9
:100F9000F0E080818F7D8C93A6E5B0E0E6E5F0E09F
:100FA000808180688C93E6E5F0E080818823DCF71F
:100FB000E1E2F0E08081882F90E0887F90708831B6
:100FC000910511F084E0898389810F900F90CF9172
:100FD000DF910895DF93CF9300D0CDB7DEB78A833A
:100FE00081E08983E3E2F0E08A81880F8083A3E2D5
:100FF000B0E0E3E2F0E0808181608C93A6E5B0E0B0
:10100000E6E5F0E080818F7D8C93A6E5B0E0E6E533
:10101000F0E0808180688C93E6E5F0E080818823B1
:10102000DCF7E1E2F0E08081882F90E0887F90702B
:101030008034910511F085E0898389810F900F90AC
:10104000CF91DF910895DF93CF9300D0CDB7DEB776
:101050008A8381E08983E3E2F0E08A818083A6E5E8
:10106000B0E0E6E5F0E0808180688C93E6E5F0E0B2
:1010700080818823DCF7E1E2F0E08081882F90E036
:10108000887F90708832910511F086E0898389818C
:101090000F900F90CF91DF910895DF93CF9300D001
:1010A0000F92CDB7DEB79B838A8381E089838A81E3
:1010B0009B81009701F1A6E5B0E0E6E5F0E08081D4
:1010C00080688C93E6E5F0E080818823DCF7E1E23C
:1010D000F0E08081882F90E0887F907080359105C6
:1010E00019F088E0898309C0E3E2F0E08081EA81B9
:1010F000FB81808302C087E0898389810F900F90F4
:101100000F90CF91DF910895DF93CF93CDB7DEB7E6
:10111000A6E5B0E0E6E5F0E0808180618C93A6E58D
:10112000B0E0E6E5F0E0808180688C93CF91DF91BC
:101130000895DF93CF9300D0CDB7DEB79A8389832C
:1011400089819A819093E1018093E0010F900F9043
:10115000CF91DF910895DF93CF9300D0CDB7DEB765
:101160009A83898389819A819093E1018093E00138
:101170000F900F90CF91DF910895DF93CF9300D020
:10118000CDB7DEB79A83898389819A819093E501EF
:101190008093E4010F900F90CF91DF910895DF933A
:1011A000CF9300D0CDB7DEB79A83898389819A81A6
:1011B0009093E5018093E4010F900F90CF91DF9120
:1011C0000895DF93CF9300D0CDB7DEB79A8389839C
:1011D00089819A819093E5018093E4010F900F90AB
:1011E000CF91DF910895DF93CF9300D0CDB7DEB7D5
:1011F0009A83898389819A819093E3018093E201A4
:101200000F900F90CF91DF910895DF93CF9300D08F
:10121000CDB7DEB79A83898389819A819093E30160
:101220008093E2010F900F90CF91DF9108951F926C
:101230000F920FB60F9211242F933F934F935F930A
:101240006F937F938F939F93AF93BF93EF93FF938E
:10125000DF93CF93CDB7DEB78091E0019091E101AC
:10126000009729F0E091E001F091E1010995CF911B
:10127000DF91FF91EF91BF91AF919F918F917F91FE
:101280006F915F914F913F912F910F900FBE0F90F3
:101290001F9018951F920F920FB60F9211242F9343
:1012A0003F934F935F936F937F938F939F93AF93EE
:1012B000BF93EF93FF93DF93CF93CDB7DEB78091CA
:1012C000E0019091E101009729F0E091E001F091B7
:1012D000E1010995CF91DF91FF91EF91BF91AF911E
:1012E0009F918F917F916F915F914F913F912F913E
:1012F0000F900FBE0F901F9018951F920F920FB670
:101300000F9211242F933F934F935F936F937F938B
:101310008F939F93AF93BF93EF93FF93DF93CF93FD
:10132000CDB7DEB78091E4019091E501009729F0F7
:10133000E091E401F091E5010995CF91DF91FF91F2
:10134000EF91BF91AF919F918F917F916F915F913D
:101350004F913F912F910F900FBE0F901F901895B6
:101360001F920F920FB60F9211242F933F934F931A
:101370005F936F937F938F939F93AF93BF93EF93FD
:10138000FF93DF93CF93CDB7DEB78091E4019091C7
:10139000E501009729F0E091E401F091E50109955C
:1013A000CF91DF91FF91EF91BF91AF919F918F917D
:1013B0007F916F915F914F913F912F910F900FBE51
:1013C0000F901F9018951F920F920FB60F92112435
:1013D0002F933F934F935F936F937F938F939F933D
:1013E000AF93BF93EF93FF93DF93CF93CDB7DEB768
:1013F0008091E4019091E501009729F0E091E401EA
:10140000F091E5010995CF91DF91FF91EF91BF91A7
:10141000AF919F918F917F916F915F914F913F918C
:101420002F910F900FBE0F901F9018951F920F9243
:101430000FB60F9211242F933F934F935F936F93A7
:101440007F938F939F93AF93BF93EF93FF93DF931C
:10145000CF93CDB7DEB78091E2019091E301009781
:1014600029F0E091E201F091E3010995CF91DF913C
:10147000FF91EF91BF91AF919F918F917F916F916C
:101480005F914F913F912F910F900FBE0F901F9042
:1014900018951F920F920FB60F9211242F933F931E
:1014A0004F935F936F937F938F939F93AF93BF936C
:1014B000EF93FF93DF93CF93CDB7DEB78091E20137
:1014C0009091E301009729F0E091E201F091E301AE
:1014D0000995CF91DF91FF91EF91BF91AF919F91CE
:1014E0008F917F916F915F914F913F912F910F90CD
:1014F0000FBE0F901F901895DF93CF93CDB7DEB737
:10150000A3E5B0E0E3E5F0E0808188608C93A3E59B
:10151000B0E0E3E5F0E0808180648C93A3E5B0E087
:10152000E3E5F0E0808180628C93A3E5B0E0E3E541
:10153000F0E080818F7E8C93A3E5B0E0E3E5F0E0FE
:10154000808184608C93A3E5B0E0E3E5F0E08081E6
:101550008D7F8C93A3E5B0E0E3E5F0E080818E7FA2
:101560008C93CF91DF910895DF93CF93CDB7DEB702
:10157000E6E4F0E08FE19EE491838083AEE4B0E0A6
:10158000EEE4F0E080818B7F8C93AEE4B0E0EEE49B
:10159000F0E0808182608C93AEE4B0E0EEE4F0E0B5
:1015A00080818E7F8C93AFE4B0E0EFE4F0E0808147
:1015B0008E7F8C93AFE4B0E0EFE4F0E08081826056
:1015C0008C93AEE4B0E0EEE4F0E0808188608C9330
:1015D000AEE4B0E0EEE4F0E0808180618C93AFE4B3
:1015E000B0E0EFE4F0E080818F7B8C93AFE4B0E07B
:1015F000EFE4F0E0808180688C93AFE4B0E0EFE44A
:10160000F0E080818F7E8C93AFE4B0E0EFE4F0E017
:10161000808180628C93CF91DF910895DF93CF9387
:10162000CDB7DEB7CF91DF910895DF93CF93CDB7DC
:10163000DEB7A9E5B0E0E9E5F0E0808180628C9357
:10164000CF91DF9108950F931F93DF93CF9300D035
:1016500000D0CDB7DEB769837A838B839C836981A1
:101660007A818B819C8120E030E048EC52E40E943A
:101670001903DC01CB0189839A83AB83BC830CE51E
:1016800010E069817A818B819C8120E030E04FE716
:1016900053E40E941F02DC01CB01BC01CD0120E01C
:1016A00030E040E85FE30E94C101DC01CB01BC01F6
:1016B000CD010E944900DC01CB01F80180830F902D
:1016C0000F900F900F90CF91DF911F910F91089580
:1016D0000F931F93DF93CF9300D000D0CDB7DEB729
:1016E00069837A838B839C8369817A818B819C81D6
:1016F00020E030E048EC52E40E941903DC01CB0109
:1017000089839A83AB83BC830AE410E0E6E4F0E0CB
:1017100080819181CC01A0E0B0E0BC01CD010E94AC
:10172000A904DC01CB01BC01CD0129813A814B81A7
:101730005C810E941F02DC01CB01BC01CD0120E0D5
:1017400030E040E85FE30E94C101DC01CB01BC0155
:10175000CD010E944900DC01CB01F8019183808317
:101760000F900F900F900F90CF91DF911F910F91DD
:1017700008950F931F93DF93CF9300D000D0CDB780
:10178000DEB769837A838B839C8369817A818B81BD
:101790009C8120E030E048EC52E40E941903DC0117
:1017A000CB0189839A83AB83BC8308E410E0E6E431
:1017B000F0E080819181CC01A0E0B0E0BC01CD01DE
:1017C0000E94A904DC01CB01BC01CD0129813A8131
:1017D0004B815C810E941F02DC01CB01BC01CD0169
:1017E00020E030E040E85FE30E94C101DC01CB0172
:1017F000BC01CD010E944900DC01CB01F8019183BD
:1018000080830F900F900F900F90CF91DF911F91D9
:101810000F9108950F931F93DF93CF9300D000D0C3
:10182000CDB7DEB769837A838B839C8369817A81A4
:101830008B819C8120E030E048EC52E40E94190347
:10184000DC01CB0189839A83AB83BC8303E410E082
:1018500069817A818B819C8120E030E04FE753E4FD
:101860000E941F02DC01CB01BC01CD0120E030E071
:1018700040E85FE30E94C101DC01CB01BC01CD0166
:101880000E944900DC01CB01F80180830F900F908A
:101890000F900F90CF91DF911F910F910895DF93DB
:1018A000CF93CDB7DEB7AFE5B0E0EFE5F0E08081F4
:1018B00080688C93CF91DF910895DF93CF93CDB75C
:1018C000DEB7AFE5B0E0EFE5F0E080818F778C9395
:1018D000CF91DF910895DF93CF9300D0CDB7DEB7DE
:1018E0009A83898389819A819093E7018093E601A5
:1018F0000F900F90CF91DF910895DF93CF9300D099
:10190000CDB7DEB79A83898389819A819093E90163
:101910008093E8010F900F90CF91DF910895DF93AE
:10192000CF9300D0CDB7DEB79A83898389819A811E
:101930009093EB018093EA010F900F90CF91DF918C
:1019400008951F920F920FB60F9211242F933F9379
:101950004F935F936F937F938F939F93AF93BF93B7
:10196000EF93FF93DF93CF93CDB7DEB78091E6017E
:101970009091E701009729F0E091E601F091E701ED
:101980000995CF91DF91FF91EF91BF91AF919F9119
:101990008F917F916F915F914F913F912F910F9018
:1019A0000FBE0F901F9018951F920F920FB60F92B7
:1019B00011242F933F934F935F936F937F938F9354
:1019C0009F93AF93BF93EF93FF93DF93CF93CDB7E5
:1019D000DEB78091E8019091E901009729F0E0914C
:1019E000E801F091E9010995CF91DF91FF91EF9125
:1019F000BF91AF919F918F917F916F915F914F9127
:101A00003F912F910F900FBE0F901F9018951F922E
:101A10000F920FB60F9211242F933F934F935F9322
:101A20006F937F938F939F93AF93BF93EF93FF93A6
:101A3000DF93CF93CDB7DEB78091EA019091EB01B0
:101A4000009729F0E091EA01F091EB010995CF911F
:101A5000DF91FF91EF91BF91AF919F918F917F9116
:101A60006F915F914F913F912F910F900FBE0F900B
:101A70001F901895DF93CF93CDB7DEB7ABE5B0E0FD
:101A8000EBE5F0E0808180648C93A5E5B0E0E5E5CE
:101A9000F0E0808181608C93A5E5B0E0E5E5F0E0C1
:101AA00080818D7F8C93CF91DF910895DF93CF93C9
:101AB000CDB7DEB7ABE5B0E0EBE5F0E08081806864
:101AC0008C93A5E5B0E0E5E5F0E080818B7F8C9319
:101AD000A5E5B0E0E5E5F0E0808188608C93CF91EA
:101AE000DF910895DF93CF93CDB7DEB7ABE5B0E0DC
:101AF000EBE5F0E0808180628C93A4E5B0E0E4E562
:101B0000F0E080818F7B8C93CF91DF910895DF93FC
:101B1000CF93CDB7DEB727970FB6F894DEBF0FBED1
:101B2000CDBF89836A834B838B81813009F06FC07D
:101B30008981282F30E03F832E838E819F818130E1
:101B4000910549F12E813F81223031052CF48E819F
:101B50009F81009761F0D2C02E813F8122303105F4
:101B600071F18E819F8183309105E9F1C7C0AAE3AD
:101B7000B0E0EAE3F0E08081482F8A81282F30E04E
:101B800081E090E0022E02C0880F991F0A94E2F7CC
:101B9000842B8C93B3C0A7E3B0E0E7E3F0E080814F
:101BA000482F8A81282F30E081E090E0022E02C089
:101BB000880F991F0A94E2F7842B8C939FC0A4E3AB
:101BC000B0E0E4E3F0E08081482F8A81282F30E004
:101BD00081E090E0022E02C0880F991F0A94E2F77C
:101BE000842B8C938BC0A1E3B0E0E1E3F0E0808133
:101BF000482F8A81282F30E081E090E0022E02C039
:101C0000880F991F0A94E2F7842B8C9377C08B81FD
:101C1000882309F073C08981282F30E03D832C830D
:101C20008C819D818130910559F12C813D8122303B
:101C300031052CF48C819D81009769F05FC02C8167
:101C40003D812230310589F18C819D818330910560
:101C500009F440C053C0AAE3B0E0EAE3F0E08081B9
:101C6000482F8A81282F30E081E090E0022E02C0C8
:101C7000880F991F0A94E2F7809584238C933EC0C5
:101C8000A7E3B0E0E7E3F0E08081482F8A81282FC6
:101C900030E081E090E0022E02C0880F991F0A9484
:101CA000E2F7809584238C9329C0A4E3B0E0E4E3B9
:101CB000F0E08081482F8A81282F30E081E090E099
:101CC000022E02C0880F991F0A94E2F780958423A0
:101CD0008C9314C0A1E3B0E0E1E3F0E08081482FF1
:101CE0008A81282F30E081E090E0022E02C0880F28
:101CF000991F0A94E2F7809584238C9327960FB658
:101D0000F894DEBF0FBECDBFCF91DF910895DF9372
:101D1000CF93CDB7DEB727970FB6F894DEBF0FBECF
:101D2000CDBF89836A834B838B81813009F06FC07B
:101D30008981282F30E03F832E838E819F818130DF
:101D4000910549F12E813F81223031052CF48E819D
:101D50009F81009761F0D2C02E813F8122303105F2
:101D600071F18E819F8183309105E9F1C7C0ABE3AA
:101D7000B0E0EBE3F0E08081482F8A81282F30E04B
:101D800081E090E0022E02C0880F991F0A94E2F7CA
:101D9000842B8C93B3C0A8E3B0E0E8E3F0E080814B
:101DA000482F8A81282F30E081E090E0022E02C087
:101DB000880F991F0A94E2F7842B8C939FC0A5E3A8
:101DC000B0E0E5E3F0E08081482F8A81282F30E001
:101DD00081E090E0022E02C0880F991F0A94E2F77A
:101DE000842B8C938BC0A2E3B0E0E2E3F0E080812F
:101DF000482F8A81282F30E081E090E0022E02C037
:101E0000880F991F0A94E2F7842B8C9377C08B81FB
:101E1000882309F073C08981282F30E03D832C830B
:101E20008C819D818130910559F12C813D81223039
:101E300031052CF48C819D81009769F05FC02C8165
:101E40003D812230310589F18C819D81833091055E
:101E500009F440C053C0ABE3B0E0EBE3F0E08081B5
:101E6000482F8A81282F30E081E090E0022E02C0C6
:101E7000880F991F0A94E2F7809584238C933EC0C3
:101E8000A8E3B0E0E8E3F0E08081482F8A81282FC2
:101E900030E081E090E0022E02C0880F991F0A9482
:101EA000E2F7809584238C9329C0A5E3B0E0E5E3B5
:101EB000F0E08081482F8A81282F30E081E090E097
:101EC000022E02C0880F991F0A94E2F7809584239E
:101ED0008C9314C0A2E3B0E0E2E3F0E08081482FED
:101EE0008A81282F30E081E090E0022E02C0880F26
:101EF000991F0A94E2F7809584238C9327960FB656
:101F0000F894DEBF0FBECDBFCF91DF910895DF9370
:101F1000CF9300D000D0CDB7DEB789836A838981A3
:101F2000282F30E03C832B838B819C81813091056D
:101F3000D1F02B813C81223031052CF48B819C81A6
:101F4000009761F01EC02B813C812230310581F069
:101F50008B819C818330910581F013C0EAE3F0E02E
:101F60008A8180830EC0E7E3F0E08A81808309C024
:101F7000E4E3F0E08A81808304C0E1E3F0E08A8159
:101F800080830F900F900F900F90CF91DF91089565
:101F9000DF93CF9300D000D0CDB7DEB789836A83BB
:101FA0008981282F30E03C832B838B819C81813079
:101FB0009105D1F02B813C81223031052CF48B81AD
:101FC0009C81009761F01EC02B813C81223031053D
:101FD00081F08B819C818330910581F013C0EBE30C
:101FE000F0E08A8180830EC0E8E3F0E08A8180839C
:101FF00009C0E5E3F0E08A81808304C0E2E3F0E019
:102000008A8180830F900F900F900F90CF91DF9176
:102010000895DF93CF9300D000D00F92CDB7DEB7F5
:102020008A836B8319828A81282F30E03D832C8339
:102030004C815D814130510541F18C819D8182301F
:10204000910534F42C813D812115310561F052C098
:102050004C815D814230510551F18C819D818330ED
:102060009105B9F147C0E9E3F0E08081282F30E025
:102070008B81882F90E0A90102C0559547958A95DC
:10208000E2F7CA018170898335C0E6E3F0E0808120
:10209000282F30E08B81882F90E0A90102C0559550
:1020A00047958A95E2F7CA018170898323C0E3E3EB
:1020B000F0E08081282F30E08B81882F90E0A9010B
:1020C00002C0559547958A95E2F7CA0181708983C8
:1020D00011C0E0E3F0E08081282F30E08B81882F71
:1020E00090E0A90102C0559547958A95E2F7CA018B
:1020F0008170898389810F900F900F900F900F90BE
:10210000CF91DF910895DF93CF9300D000D0CDB76A
:10211000DEB789836A838981282F30E03C832B8353
:102120008B819C818130910549F12B813C8122304A
:1021300031052CF48B819C81009761F05AC02B8172
:102140003C812230310571F18B819C818330910576
:10215000E9F14FC0ABE3B0E0EBE3F0E08081482F62
:102160008A81282F30E081E090E0022E02C0880FA3
:10217000991F0A94E2F784278C933BC0A8E3B0E050
:10218000E8E3F0E08081482F8A81282F30E081E069
:1021900090E0022E02C0880F991F0A94E2F784276C
:1021A0008C9327C0A5E3B0E0E5E3F0E08081482F01
:1021B0008A81282F30E081E090E0022E02C0880F53
:1021C000991F0A94E2F784278C9313C0A2E3B0E02E
:1021D000E2E3F0E08081482F8A81282F30E081E01F
:1021E00090E0022E02C0880F991F0A94E2F784271C
:1021F0008C930F900F900F900F90CF91DF910895D7
:10220000DF93CF9300D000D00F92CDB7DEB7898394
:102210006A834B838981853008F0C6C08A81282F64
:1022200030E03D832C836C817D816130710509F440
:1022300041C08C819D818230910534F42C813D8197
:102240002115310571F0B0C06C817D81623071055E
:1022500009F459C08C819D818330910509F47CC0BB
:10226000A3C0ABE3B0E0EBE3F0E08081482F8981CD
:10227000282F30E08FE090E002C0880F991F2A9548
:10228000E2F7809584238C93ABE3B0E0EBE3F0E0DE
:102290008081482F8B81282F30E08981882F90E022
:1022A000B90102C0660F771F8A95E2F7CB01842B34
:1022B0008C937AC0A8E3B0E0E8E3F0E08081482F97
:1022C0008981282F30E08FE090E002C0880F991FAD
:1022D0002A95E2F7809584238C93A8E3B0E0E8E3A5
:1022E000F0E08081482F8B81282F30E08981882F72
:1022F00090E0B90102C0660F771F8A95E2F7CB0123
:10230000842B8C9351C0A5E3B0E0E5E3F0E080813D
:10231000482F8981282F30E08FE090E002C0880F9D
:10232000991F2A95E2F7809584238C93A5E3B0E06A
:10233000E5E3F0E08081482F8B81282F30E0898110
:10234000882F90E0B90102C0660F771F8A95E2F7E7
:10235000CB01842B8C9328C0A2E3B0E0E2E3F0E051
:102360008081482F8981282F30E08FE090E002C0E3
:10237000880F991F2A95E2F7809584238C93A2E316
:10238000B0E0E2E3F0E08081482F8B81282F30E03D
:102390008981882F90E0B90102C0660F771F8A9566
:1023A000E2F7CB01842B8C930F900F900F900F903E
:1023B0000F90CF91DF910895DF93CF9300D0CDB7E9
:1023C000DEB79A83898389819A819093ED01809306
:1023D000EC010F900F90CF91DF9108951F920F9213
:1023E0000FB60F9211242F933F934F935F936F93E8
:1023F0007F938F939F93AF93BF93EF93FF93DF935D
:10240000CF93CDB7DEB78091EC019091ED010097AD
:1024100029F0E091EC01F091ED010995CF91DF9168
:10242000FF91EF91BF91AF919F918F917F916F91AC
:102430005F914F913F912F910F900FBE0F901F9082
:102440001895DF93CF93CDB7DEB7A7E2B0E0E7E210
:10245000F0E0808180648C93A7E2B0E0E7E2F0E0F6
:1024600080818F778C93A6E2B0E0E6E2F0E0808195
:102470008E7F8C93A6E2B0E0E6E2F0E0808182609D
:102480008C93A6E2B0E0E6E2F0E0808184608C9379
:10249000A7E2B0E0E7E2F0E080818F7D8C93A6E2D6
:1024A000B0E0E6E2F0E080818F7D8C93A6E2B0E0C0
:1024B000E6E2F0E0808180688C93CF91DF9108950F
:1024C000DF93CF93CDB7DEB7A6E2B0E0E6E2F0E06F
:1024D000808180648C93CF91DF910895DF93CF93B7
:1024E0000F92CDB7DEB78983A7E2B0E0E7E2F0E074
:1024F0008081807E8C93A7E2B0E0E7E2F0E09081FB
:102500008981892B8C930F90CF91DF910895DF9370
:10251000CF93CDB7DEB7A6E2B0E0E6E2F0E080818F
:1025200088608C93CF91DF910895DF93CF93CDB7DF
:10253000DEB7E6E2F0E0808182958F70882F90E030
:10254000817090700097A9F3A6E2B0E0E6E2F0E0B7
:10255000808180618C93CF91DF910895DF93CF9339
:1025600000D0CDB7DEB79A838983E4E2F0E08081C2
:102570009181E981FA81918380830F900F90CF91AF
:10258000DF910895DF93CF93CDB7DEB7A6E2B0E039
:10259000E6E2F0E080818F778C93CF91DF91089510
:1025A000DF93CF93CDB7DEB72E970FB6F894DEBF8B
:1025B0000FBECDBF83E065E041E00E94870D0E9421
:1025C000B40A60E070E080E290E40E94680B80E072
:1025D00090E0A8ECB2E48B879C87AD87BE876B85C3
:1025E0007C858D859E8520E030E04AEF54E40E9492
:1025F0001F02DC01CB018F839887A987BA876F817F
:10260000788589859A8520E030E040E85FE30E9484
:10261000250488232CF481E090E09E838D833FC0C5
:102620006F81788589859A8520E03FEF4FE757E4F1
:102630000E94C50318164CF56B857C858D859E859B
:1026400020E030E040E251E40E941F02DC01CB01B7
:10265000BC01CD010E944900DC01CB019E838D832A
:102660000FC088EC90E09C838B838B819C810197C9
:10267000F1F79C838B838D819E8101979E838D834F
:102680008D819E81009769F714C06F817885898557
:102690009A850E944900DC01CB019E838D838D8148
:1026A0009E819A83898389819A810197F1F79A8320
:1026B00089832E960FB6F894DEBF0FBECDBFCF91A3
:1026C000DF910895DF93CF930F92CDB7DEB7898363
:1026D0008981813039F460E070E080EF90E40E94FD
:1026E000680B09C08981882331F460E070E080E2E2
:1026F00090E40E94680B0F90CF91DF910895DF93D3
:10270000CF9300D00F92CDB7DEB789837B836A83E6
:102710000E944F0C80E0698140E00E94870D8A8111
:102720009B810E94DC110E9421120E9487120F904F
:102730000F900F90CF91DF910895DF93CF930F9279
:10274000CDB7DEB7898381E08093EE0189810E9455
:102750006E120E9460128091EF019091F0019695A7
:1027600087959093F0018093EF018091EF01909114
:10277000F0010F90CF91DF910895DF93CF9300D0B8
:102780000F92CDB7DEB789837B836A830E944F0C9B
:1027900080E0698140E00E94870D8A819B810E94D0
:1027A000DC110E9421120E9487120F900F900F904F
:1027B000CF91DF910895DF93CF930F92CDB7DEB71E
:1027C000898382E08093EE0189810E946E120E94CB
:1027D00060128091F1019091F2012AE030E0B9019C
:1027E0000E943F22CB019093F2018093F1018091EE
:1027F000F1019091F2010F90CF91DF910895DF9355
:10280000CF93CDB7DEB76C970FB6F894DEBF0FBE8F
:10281000CDBF81E063E041E00E94870E80E090E060
:10282000A0E8BFE3898F9A8FAB8FBC8F698D7A8DBB
:102830008B8D9C8D20E030E04AEF54E40E941F0213
:10284000DC01CB018D8B9E8BAF8BB88F6D897E8920
:102850008F89988D20E030E040E85FE30E942504F6
:1028600088232CF481E090E09C8B8B8B3FC06D899A
:102870007E898F89988D20E03FEF4FE757E40E94D3
:10288000C50318164CF5698D7A8D8B8D9C8D20E0D3
:1028900030E040E251E40E941F02DC01CB01BC01A8
:1028A000CD010E944900DC01CB019C8B8B8B0FC0BA
:1028B00088EC90E09A8B898B89899A890197F1F746
:1028C0009A8B898B8B899C8901979C8B8B8B8B89AD
:1028D0009C89009769F714C06D897E898F89988DCE
:1028E0000E944900DC01CB019C8B8B8B8B899C89DE
:1028F000988B8F878F8598890197F1F7988B8F87B1
:1029000081E063E040E00E94870E80E090E0A0E874
:10291000BFE38B879C87AD87BE876B857C858D8564
:102920009E8520E030E04AEF54E40E941F02DC0163
:10293000CB018F839887A987BA876F81788589852E
:102940009A8520E030E040E85FE30E942504882378
:102950002CF481E090E09E838D833FC06F81788569
:1029600089859A8520E03FEF4FE757E40E94C50331
:1029700018164CF56B857C858D859E8520E030E0B2
:1029800040E251E40E941F02DC01CB01BC01CD01F9
:102990000E944900DC01CB019E838D830FC088EC2F
:1029A00090E09C838B838B819C810197F1F79C83C2
:1029B0008B838D819E8101979E838D838D819E81E6
:1029C000009769F714C06F81788589859A850E9480
:1029D0004900DC01CB019E838D838D819E819A838A
:1029E000898389819A810197F1F79A8389836C960B
:1029F0000FB6F894DEBF0FBECDBFCF91DF91089523
:102A0000DF93CF93CDB7DEB7E8970FB6F894DEBF6C
:102A10000FBECDBF80E090E0A8E4B2E48DAB9EABEA
:102A2000AFABB8AF6DA97EA98FA998AD20E030E01B
:102A30004AEF54E40E941F02DC01CB0189AB9AAB40
:102A4000ABABBCAB69A97AA98BA99CA920E030E00B
:102A500040E85FE30E94250488232CF481E090E0A5
:102A600098AB8FA73FC069A97AA98BA99CA920E040
:102A70003FEF4FE757E40E94C50318164CF56DA9C8
:102A80007EA98FA998AD20E030E040E251E40E9499
:102A90001F02DC01CB01BC01CD010E944900DC0119
:102AA000CB0198AB8FA70FC088EC90E09EA78DA7B5
:102AB0008DA59EA50197F1F79EA78DA78FA598A933
:102AC000019798AB8FA78FA598A9009769F714C0B5
:102AD00069A97AA98BA99CA90E944900DC01CB01B4
:102AE00098AB8FA78FA598A99CA78BA78BA59CA512
:102AF0000197F1F79CA78BA781E061E041E00E947C
:102B0000870D81E062E041E00E94870D81E063E093
:102B100041E00E94870D82E064E041E00E94870D61
:102B200082E065E041E00E94870D82E066E041E0DE
:102B30000E94870D82E067E041E00E94870D82E0FD
:102B40000E94191782E00E94191788E20E94191743
:102B500080E090E0A0E8BFE38FA398A7A9A7BAA759
:102B60006FA178A589A59AA520E030E04AEF54E44A
:102B70000E941F02DC01CB018BA39CA3ADA3BEA3CB
:102B80006BA17CA18DA19EA120E030E040E85FE335
:102B90000E94250488232CF481E090E09AA389A365
:102BA0003FC06BA17CA18DA19EA120E03FEF4FE72C
:102BB00057E40E94C50318164CF56FA178A589A5A6
:102BC0009AA520E030E040E251E40E941F02DC01BF
:102BD000CB01BC01CD010E944900DC01CB019AA3CD
:102BE00089A30FC088EC90E098A38F8F8F8D98A158
:102BF0000197F1F798A38F8F89A19AA101979AA3C2
:102C000089A389A19AA1009769F714C06BA17CA13F
:102C10008DA19EA10E944900DC01CB019AA389A34A
:102C200089A19AA19E8F8D8F8D8D9E8D0197F1F731
:102C30009E8F8D8F80E00E9419178CE00E941917DB
:102C400080E090E0A0E8BFE3898F9A8FAB8FBC8FC4
:102C5000698D7A8D8B8D9C8D20E030E04AEF54E4B5
:102C60000E941F02DC01CB018D8B9E8BAF8BB88F36
:102C70006D897E898F89988D20E030E040E85FE3A0
:102C80000E94250488232CF481E090E09C8B8B8BA0
:102C90003FC06D897E898F89988D20E03FEF4FE797
:102CA00057E40E94C50318164CF5698D7A8D8B8DFB
:102CB0009C8D20E030E040E251E40E941F02DC01E4
:102CC000CB01BC01CD010E944900DC01CB019C8BF2
:102CD0008B8B0FC088EC90E09A8B898B89899A89BD
:102CE0000197F1F79A8B898B8B899C8901979C8B33
:102CF0008B8B8B899C89009769F714C06D897E89BD
:102D00008F89988D0E944900DC01CB019C8B8B8BB5
:102D10008B899C89988B8F878F8598890197F1F78C
:102D2000988B8F8780E00E94191781E00E94191705
:102D300080E090E0A0E0B0E48B879C87AD87BE8701
:102D40006B857C858D859E8520E030E04AEF54E4DC
:102D50000E941F02DC01CB018F839887A987BA8765
:102D60006F81788589859A8520E030E040E85FE3CF
:102D70000E94250488232CF481E090E09E838D83BB
:102D80003FC06F81788589859A8520E03FEF4FE7C6
:102D900057E40E94C50318164CF56B857C858D851C
:102DA0009E8520E030E040E251E40E941F02DC01F9
:102DB000CB01BC01CD010E944900DC01CB019E8307
:102DC0008D830FC088EC90E09C838B838B819C81EA
:102DD0000197F1F79C838B838D819E8101979E8360
:102DE0008D838D819E81009769F714C06F817885EE
:102DF00089859A850E944900DC01CB019E838D83E1
:102E00008D819E819A83898389819A810197F1F7C7
:102E10009A83898380E00E94191786E00E9419171F
:102E2000E8960FB6F894DEBF0FBECDBFCF91DF910D
:102E30000895DF93CF93CDB7DEB7AB970FB6F89475
:102E4000DEBF0FBECDBF8BA781E061E040E00E94F6
:102E5000870E81E062E040E00E94870E80E090E013
:102E6000A0E8BFE38FA398A7A9A7BAA76FA178A5E9
:102E700089A59AA520E030E04AEF54E40E941F02A1
:102E8000DC01CB018BA39CA3ADA3BEA36BA17CA152
:102E90008DA19EA120E030E040E85FE30E94250480
:102EA00088232CF481E090E09AA389A33FC06BA112
:102EB0007CA18DA19EA120E03FEF4FE757E40E9447
:102EC000C50318164CF56FA178A589A59AA520E031
:102ED00030E040E251E40E941F02DC01CB01BC0162
:102EE000CD010E944900DC01CB019AA389A30FC048
:102EF00088EC90E098A38F8F8F8D98A10197F1F7C0
:102F000098A38F8F89A19AA101979AA389A389A1D8
:102F10009AA1009769F714C06BA17CA18DA19EA115
:102F20000E944900DC01CB019AA389A389A19AA13F
:102F30009E8F8D8F8D8D9E8D0197F1F79E8F8D8F3A
:102F400084E062E04BA50E94001180E090E0A0E8E0
:102F5000BFE3898F9A8FAB8FBC8F698D7A8D8B8DF4
:102F60009C8D20E030E04AEF54E40E941F02DC0117
:102F7000CB018D8B9E8BAF8BB88F6D897E898F89AE
:102F8000988D20E030E040E85FE30E94250488232C
:102F90002CF481E090E09C8B8B8B3FC06D897E8907
:102FA0008F89988D20E03FEF4FE757E40E94C503DB
:102FB00018164CF5698D7A8D8B8D9C8D20E030E054
:102FC00040E251E40E941F02DC01CB01BC01CD01B3
:102FD0000E944900DC01CB019C8B8B8B0FC088ECDD
:102FE00090E09A8B898B89899A890197F1F79A8B5E
:102FF000898B8B899C8901979C8B8B8B8B899C8976
:10300000009769F714C06D897E898F89988D0E9419
:103010004900DC01CB019C8B8B8B8B899C89988B25
:103020008F878F8598890197F1F7988B8F8781E03B
:1030300063E041E00E94870E80E090E0A0E0B0E411
:103040008B879C87AD87BE876B857C858D859E85AC
:1030500020E030E04AEF54E40E941F02DC01CB0183
:103060008F839887A987BA876F81788589859A85A4
:1030700020E030E040E85FE30E94250488232CF440
:1030800081E090E09E838D833FC06F817885898544
:103090009A8520E03FEF4FE757E40E94C5031816DA
:1030A0004CF56B857C858D859E8520E030E040E287
:1030B00051E40E941F02DC01CB01BC01CD010E9442
:1030C0004900DC01CB019E838D830FC088EC90E02A
:1030D0009C838B838B819C810197F1F79C838B83ED
:1030E0008D819E8101979E838D838D819E81009726
:1030F00069F714C06F81788589859A850E94490097
:10310000DC01CB019E838D838D819E819A8389838F
:1031100089819A810197F1F79A83898381E063E03D
:1031200040E00E94870EAB960FB6F894DEBF0FBE4C
:10313000CDBFCF91DF910895DF93CF93CDB7DEB7A9
:103140006D970FB6F894DEBF0FBECDBF8D8F81E0B7
:1031500061E041E00E94870E81E062E040E00E9471
:10316000870E80E090E0A0E8BFE3898F9A8FAB8F55
:10317000BC8F698D7A8D8B8D9C8D20E030E04AEF7D
:1031800054E40E941F02DC01CB018D8B9E8BAF8B20
:10319000B88F6D897E898F89988D20E030E040E876
:1031A0005FE30E94250488232CF481E090E09C8B4F
:1031B0008B8B3FC06D897E898F89988D20E03FEF92
:1031C0004FE757E40E94C50318164CF5698D7A8DB8
:1031D0008B8D9C8D20E030E040E251E40E941F0284
:1031E000DC01CB01BC01CD010E944900DC01CB0117
:1031F0009C8B8B8B0FC088EC90E09A8B898B898994
:103200009A890197F1F79A8B898B8B899C89019711
:103210009C8B8B8B8B899C89009769F714C06D8977
:103220007E898F89988D0E944900DC01CB019C8B9F
:103230008B8B8B899C89988B8F878F859889019739
:10324000F1F7988B8F8784E062E04D8D0E9400112A
:1032500081E063E041E00E94870E80E090E0A0E022
:10326000B0E48B879C87AD87BE876B857C858D8519
:103270009E8520E030E04AEF54E40E941F02DC010A
:10328000CB018F839887A987BA876F8178858985D5
:103290009A8520E030E040E85FE30E94250488231F
:1032A0002CF481E090E09E838D833FC06F81788510
:1032B00089859A8520E03FEF4FE757E40E94C503D8
:1032C00018164CF56B857C858D859E8520E030E059
:1032D00040E251E40E941F02DC01CB01BC01CD01A0
:1032E0000E944900DC01CB019E838D830FC088ECD6
:1032F00090E09C838B838B819C810197F1F79C8369
:103300008B838D819E8101979E838D838D819E818C
:10331000009769F714C06F81788589859A850E9426
:103320004900DC01CB019E838D838D819E819A8330
:10333000898389819A810197F1F79A83898381E052
:1033400063E040E00E94870E6D960FB6F894DEBFF2
:103350000FBECDBFCF91DF910895DF93CF93CDB74F
:10336000DEB72E970FB6F894DEBF0FBECDBF80E05C
:103370000E94191781E00E94191780E090E0A0EAEE
:10338000B1E48B879C87AD87BE876B857C858D85F7
:103390009E8520E030E04AEF54E40E941F02DC01E9
:1033A000CB018F839887A987BA876F8178858985B4
:1033B0009A8520E030E040E85FE30E9425048823FE
:1033C0002CF481E090E09E838D833FC06F817885EF
:1033D00089859A8520E03FEF4FE757E40E94C503B7
:1033E00018164CF56B857C858D859E8520E030E038
:1033F00040E251E40E941F02DC01CB01BC01CD017F
:103400000E944900DC01CB019E838D830FC088ECB4
:1034100090E09C838B838B819C810197F1F79C8347
:103420008B838D819E8101979E838D838D819E816B
:10343000009769F714C06F81788589859A850E9405
:103440004900DC01CB019E838D838D819E819A830F
:10345000898389819A810197F1F79A8389832E96CE
:103460000FB6F894DEBF0FBECDBFCF91DF910895A8
:10347000DF93CF930F92CDB7DEB789838981829591
:103480008F700E949C1889810E949C180F90CF9188
:10349000DF910895DF93CF9300D00F92CDB7DEB7C1
:1034A0009B838A8319820EC08981282F30E08A810C
:1034B0009B81FC01E20FF31F80810E94381A8981F1
:1034C0008F5F89838981282F30E08A819B81FC016D
:1034D000E20FF31F8081882F90E0009729F70F906B
:1034E0000F900F90CF91DF910895EF92FF920F937D
:1034F0001F93DF93CF93CDB7DEB72C970FB6F89419
:10350000DEBF0FBECDBF69877A878B879C871D8200
:103510001E821F8218861B8289859A85AB85BC8591
:103520000097A105B10509F046C080E30E94381A52
:1035300042C08D819E81AF81B8852AE030E040E0B5
:1035400050E0BC01CD010E9420227B018C018985C5
:103550009A85AB85BC852AE030E040E050E0BC01B4
:10356000CD010E945322DC01CB018E0D9F1DA01FB7
:10357000B11F8D839E83AF83B8878D819E81AF817C
:10358000B8850097A105B10521F41C828B818F5F5E
:103590008B8389859A85AB85BC852AE030E040E045
:1035A00050E0BC01CD010E945322DA01C901898794
:1035B0009A87AB87BC8789859A85AB85BC85009740
:1035C000A105B10509F0B5CF25C08D819E81AF81E0
:1035D000B8852AE030E040E050E0BC01CD010E9417
:1035E0005322DC01CB018A838A81805D0E94381AD4
:1035F0008D819E81AF81B8852AE030E040E050E0C7
:10360000BC01CD010E945322DA01C9018D839E8342
:10361000AF83B8878D819E81AF81B8850097A10562
:10362000B10599F68C81882361F4198206C080E384
:103630000E94381A89818F5F898399818B819817BD
:10364000B0F32C960FB6F894DEBF0FBECDBFCF916E
:10365000DF911F910F91FF90EF900895DF93CF932B
:1036600000D0CDB7DEB789836A8389818823B9F416
:103670008A818031A0F48A81882F90E080589F4F02
:103680009595879595958795959587959595879522
:103690000E9419178A8180580E94191719C08981C0
:1036A0008130B1F48A81803198F48A81882F90E04A
:1036B00080549F4F95958795959587959595879576
:1036C000959587950E9419178A8180540E94191731
:1036D0000F900F90CF91DF910895DF93CF93CDB7E7
:1036E000DEB780E064E041E00E94870D80E065E0A5
:1036F00041E00E94870D80E066E041E00E94870D76
:1037000080E067E041E00E94870D81E064E040E0F6
:103710000E94870D81E065E040E00E94870D81E016
:1037200066E040E00E94870D81E067E040E00E9493
:10373000870D81E064E041E00E94870E81E065E052
:1037400041E00E94870E81E066E041E00E94870E22
:1037500081E067E041E00E94870E80E064E041E0A4
:103760000E94870E80E065E041E00E94870E80E0C5
:1037700066E041E00E94870E80E067E041E00E9441
:10378000870ECF91DF910895DF93CF93CDB7DEB74A
:10379000A7970FB6F894DEBF0FBECDBFCE014296FD
:1037A0009CA38BA3EFECF1E0FEA3EDA3F0E1FFA35C
:1037B000EDA1FEA100808DA19EA101969EA38DA3E7
:1037C000EBA1FCA100828BA19CA101969CA38BA3E1
:1037D0009FA191509FA3EFA1EE2351F78FEF8F8709
:1037E00084E0898BB3C080E0698940E00E94870E45
:1037F00084E0888B9FC081E068890E94091088233B
:1038000009F095C08889882F90E09C0124503040B1
:103810008989882F90E0AC0144505040220F331F1B
:10382000220F331FCE010196820F931F840F951F25
:10383000FC01719680818F8781E068890E94091060
:103840008823D1F380E090E0A8E4B2E48B879C87E2
:10385000AD87BE876B857C858D859E8520E030E0B9
:103860004AEF54E40E941F02DC01CB018F8398874A
:10387000A987BA876F81788589859A8520E030E0AD
:1038800040E85FE30E94250488232CF481E090E067
:103890009E838D833FC06F81788589859A8520E0DE
:1038A0003FEF4FE757E40E94C50318164CF56B85B0
:1038B0007C858D859E8520E030E040E251E40E94C9
:1038C0001F02DC01CB01BC01CD010E944900DC01DB
:1038D000CB019E838D830FC088EC90E09C838B830B
:1038E0008B819C810197F1F79C838B838D819E81D5
:1038F00001979E838D838D819E81009769F714C007
:103900006F81788589859A850E944900DC01CB0109
:103910009E838D838D819E819A83898389819A81FB
:103920000197F1F79A838983FF85FAA315C08889E7
:103930008F5F888B8889883008F45DCF80E0698943
:1039400041E00E94870E89898F5F898B8989883041
:1039500008F449CF8F858AA38AA1A7960FB6F89459
:10396000DEBF0FBECDBFCF91DF910895DF93CF9320
:10397000CDB7DEB70E941707CF91DF910895DF938F
:10398000CF93CDB7DEB763970FB6F894DEBF0FBE07
:10399000CDBF898B7B8B6A8B81E0888B81E08F87A1
:1039A0000E945B078F878F850E943D1E888B8A89C6
:1039B0009B89892F992784650E94B1078F878F85FE
:1039C0000E943D1E888B8A890E9423088F878F85DD
:1039D0000E943D1E888B89890E9423088F878F85CE
:1039E0000E943D1E888B0E94840880E090E0A0EA3F
:1039F000B0E48B879C87AD87BE876B857C858D8582
:103A00009E8520E030E04AEF54E40E941F02DC0172
:103A1000CB018F839887A987BA876F81788589853D
:103A20009A8520E030E040E85FE30E942504882387
:103A30002CF481E090E09E838D833FC06F81788578
:103A400089859A8520E03FEF4FE757E40E94C50340
:103A500018164CF56B857C858D859E8520E030E0C1
:103A600040E251E40E941F02DC01CB01BC01CD0108
:103A70000E944900DC01CB019E838D830FC088EC3E
:103A800090E09C838B838B819C810197F1F79C83D1
:103A90008B838D819E8101979E838D838D819E81F5
:103AA000009769F714C06F81788589859A850E948F
:103AB0004900DC01CB019E838D838D819E819A8399
:103AC000898389819A810197F1F79A83898388890B
:103AD00063960FB6F894DEBF0FBECDBFCF91DF91D6
:103AE0000895DF93CF93CDB7DEB765970FB6F894FF
:103AF000DEBF0FBECDBF9B8B8A8B7D8B6C8B81E035
:103B0000898B81E0888B8A899B89009709F4AAC0F8
:103B10008C899D89892F992784658F870E945B07EF
:103B2000888B88890E943D1E898B8F850E94B107F2
:103B3000888B88890E943D1E898B8C890E9423086E
:103B4000888B88890E943D1E898B0E948607888BFE
:103B500088890E943D1E898B8F850E94EA07888B89
:103B600088890E943D1E898B8A899B890E944D0805
:103B7000888B88890E943D1E898B0E94840880E082
:103B800090E0A0EAB0E48B879C87AD87BE876B8509
:103B90007C858D859E8520E030E04AEF54E40E94CC
:103BA0001F02DC01CB018F839887A987BA876F81B9
:103BB000788589859A8520E030E040E85FE30E94BF
:103BC000250488232CF481E090E09E838D833FC000
:103BD0006F81788589859A8520E03FEF4FE757E42C
:103BE0000E94C50318164CF56B857C858D859E85D6
:103BF00020E030E040E251E40E941F02DC01CB01F2
:103C0000BC01CD010E944900DC01CB019E838D8364
:103C10000FC088EC90E09C838B838B819C81019703
:103C2000F1F79C838B838D819E8101979E838D8389
:103C30008D819E81009769F716C06F81788589858F
:103C40009A850E944900DC01CB019E838D838D8182
:103C50009E819A83898389819A810197F1F79A835A
:103C6000898301C0198A898965960FB6F894DEBFE9
:103C70000FBECDBFCF91DF910895DF93CF9300D0DA
:103C8000CDB7DEB78A8381E089838A81813009F0EC
:103C9000198289810F900F90CF91DF910895DF9362
:103CA000CF93CDB7DEB780E063E041E00E94870D9F
:103CB00080E063E040E00E94870ECF91DF9108959D
:103CC000DF93CF930F92CDB7DEB78983898181309F
:103CD00031F480E063E041E00E94870E08C08981F2
:103CE000882329F480E063E040E00E94870E0F9073
:103CF000CF91DF910895DF93CF93CDB7DEB780E00A
:103D000060E041E00E94870D80E060E040E00E94BA
:103D1000870ECF91DF910895DF93CF930F92CDB7A8
:103D2000DEB789838981813031F480E060E041E051
:103D30000E94870E08C08981882329F480E060E012
:103D400040E00E94870E0F90CF91DF910895DF939E
:103D5000CF93CDB7DEB7A0970FB6F894DEBF0FBEF6
:103D6000CDBF18A21F8E1E8E1D8E83E062E040E044
:103D70000E94870D83E062E041E00E94870E0E946E
:103D80004F0C0E9400150E946D1B0E94D0120E94D1
:103D90007B1E0E944F1E0E943A0D88E290E20E9414
:103DA0006B0C21E130E281E0B9010E94BD1321E1F9
:103DB00030E282E0B9010E947F1380E690E00E9429
:103DC0004A1A80E090E0AAE7B4E4898F9A8FAB8F1B
:103DD000BC8F698D7A8D8B8D9C8D20E030E04AEF11
:103DE00054E40E941F02DC01CB018D8B9E8BAF8BB4
:103DF000B88F6D897E898F89988D20E030E040E80A
:103E00005FE30E94250488232CF481E090E09C8BE2
:103E10008B8B3FC06D897E898F89988D20E03FEF25
:103E20004FE757E40E94C50318164CF5698D7A8D4B
:103E30008B8D9C8D20E030E040E251E40E941F0217
:103E4000DC01CB01BC01CD010E944900DC01CB01AA
:103E50009C8B8B8B0FC088EC90E09A8B898B898927
:103E60009A890197F1F79A8B898B8B899C890197A5
:103E70009C8B8B8B8B899C89009769F714C06D890B
:103E80007E898F89988D0E944900DC01CB019C8B33
:103E90008B8B8B899C89988B8F878F8598890197CD
:103EA000F1F7988B8F870E94AD1981E00E94DB1398
:103EB00098A38F8F80E060E00E942E1B8DE690E03B
:103EC0000E944A1A8F8D98A1CC01A0E0B0E0BC01FD
:103ED000CD010E94751A82E00E949D139E8F8D8FE6
:103EE00081E060E00E942E1B8AE790E00E944A1A5F
:103EF0008D8D9E8DCC01A0E0B0E0BC01CD010E9473
:103F0000751A8D8D9E8D8432910518F081E00E9486
:103F1000601E8D8D9E8D8932910518F081E00E9482
:103F20008C1E8D8D9E8D8332910530F480E00E9431
:103F3000601E80E00E948C1E80E090E0AAEFB3E457
:103F40008B879C87AD87BE876B857C858D859E859D
:103F500020E030E04AEF54E40E941F02DC01CB0174
:103F60008F839887A987BA876F81788589859A8595
:103F700020E030E040E85FE30E94250488232CF431
:103F800081E090E09E838D833FC06F817885898535
:103F90009A8520E03FEF4FE757E40E94C5031816CB
:103FA0004CF56B857C858D859E8520E030E040E278
:103FB00051E40E941F02DC01CB01BC01CD010E9433
:103FC0004900DC01CB019E838D830FC088EC90E01B
:103FD0009C838B838B819C810197F1F79C838B83DE
:103FE0008D819E8101979E838D838D819E81009717
:103FF00069F714C06F81788589859A850E94490088
:10400000DC01CB019E838D838D819E819A83898380
:1040100089819A810197F1F79A8389830E94AD196A
:1040200044CFDF93CF93CDB7DEB78091EE018130DF
:1040300021F48FEE91E00E94AE128091EE01823069
:1040400021F481EF91E00E94AE12CF91DF910895AB
:10405000DF93CF93CDB7DEB7AD970FB6F894DEBF41
:104060000FBECDBF0E94AD191DA60E94E0219CA7E6
:104070008BA713C18BA59CA524E08735920709F077
:10408000FFC00E94AD1981E00E94621380E060E0F1
:104090000E942E1B88E890E00E944A1A80E090E07F
:1040A000A6E9B3E48FA398A7A9A7BAA76FA178A59B
:1040B00089A59AA520E030E04AEF54E40E941F024F
:1040C000DC01CB018BA39CA3ADA3BEA36BA17CA100
:1040D0008DA19EA120E030E040E85FE30E9425042E
:1040E00088232CF481E090E09AA389A33FC06BA1C0
:1040F0007CA18DA19EA120E03FEF4FE757E40E94F5
:10410000C50318164CF56FA178A589A59AA520E0DE
:1041100030E040E251E40E941F02DC01CB01BC010F
:10412000CD010E944900DC01CB019AA389A30FC0F5
:1041300088EC90E098A38F8F8F8D98A10197F1F76D
:1041400098A38F8F89A19AA101979AA389A389A186
:104150009AA1009769F714C06BA17CA18DA19EA1C3
:104160000E944900DC01CB019AA389A389A19AA1ED
:104170009E8F8D8F8D8D9E8D0197F1F79E8F8D8FE8
:104180000E94AD1980E00E94621380E060E00E940E
:104190002E1B8DE990E00E944A1A80E090E0A6E98B
:1041A000B3E4898F9A8FAB8FBC8F698D7A8D8B8D9D
:1041B0009C8D20E030E04AEF54E40E941F02DC01B5
:1041C000CB018D8B9E8BAF8BB88F6D897E898F894C
:1041D000988D20E030E040E85FE30E9425048823CA
:1041E0002CF481E090E09C8B8B8B3FC06D897E89A5
:1041F0008F89988D20E03FEF4FE757E40E94C50379
:1042000018164CF5698D7A8D8B8D9C8D20E030E0F1
:1042100040E251E40E941F02DC01CB01BC01CD0150
:104220000E944900DC01CB019C8B8B8B0FC088EC7A
:1042300090E09A8B898B89899A890197F1F79A8BFB
:10424000898B8B899C8901979C8B8B8B8B899C8913
:10425000009769F726C06D897E898F89988D0E94A5
:104260004900DC01CB019C8B8B8B8B899C89988BC3
:104270008F878F8598890197F1F7988B8F8711C069
:104280008BA59CA524E08735920739F00E94E02198
:104290009CA78BA78DA58F5F8DA78DA5833008F474
:1042A000E9CE8DA5833009F082C00E94AD1980E06F
:1042B00060E00E942E1B84EB90E00E944A1A81E08D
:1042C0000E948C1E80E090E0A6E9B3E48B879C8777
:1042D000AD87BE876B857C858D859E8520E030E02F
:1042E0004AEF54E40E941F02DC01CB018F839887C0
:1042F000A987BA876F81788589859A8520E030E023
:1043000040E85FE30E94250488232CF481E090E0DC
:104310009E838D833FC06F81788589859A8520E053
:104320003FEF4FE757E40E94C50318164CF56B8525
:104330007C858D859E8520E030E040E251E40E943E
:104340001F02DC01CB01BC01CD010E944900DC0150
:10435000CB019E838D830FC088EC90E09C838B8380
:104360008B819C810197F1F79C838B838D819E814A
:1043700001979E838D838D819E81009769F714C07C
:104380006F81788589859A850E944900DC01CB017F
:104390009E838D838D819E819A83898389819A8171
:1043A0000197F1F79A83898380E00E948C1EAD9675
:1043B0000FB6F894DEBF0FBECDBFCF91DF91089549
:1043C000DF93CF9300D00F92CDB7DEB71B821A8256
:1043D00019822BC01092CE010E94C41B8093CE0183
:1043E0008091CE01882309F18091CE01882F90E041
:1043F000A0E0B0E0BC01CD010E94751A8A819B81CA
:104400009C01220F331FC901880F991F880F991F24
:10441000280F391F8091CE01882F90E0820F931FC3
:104420009B838A8389818F5F89838981843090F21D
:104430008A819B810F900F900F90CF91DF9108950B
:10444000629FD001739FF001829FE00DF11D649F78
:10445000E00DF11D929FF00D839FF00D749FF00D04
:10446000659FF00D9927729FB00DE11DF91F639FA5
:10447000B00DE11DF91FBD01CF0111240895AA1B44
:10448000BB1B51E107C0AA1FBB1FA617B70710F03F
:10449000A61BB70B881F991F5A95A9F78095909571
:1044A000BC01CD010895A1E21A2EAA1BBB1BFD0180
:1044B0000DC0AA1FBB1FEE1FFF1FA217B307E40703
:1044C000F50720F0A21BB30BE40BF50B661F771F5B
:1044D000881F991F1A9469F760957095809590953B
:1044E0009B01AC01BD01CF0108952F923F924F92E5
:1044F0005F926F927F928F929F92AF92BF92CF9274
:10450000DF92EF92FF920F931F93CF93DF93CDB77C
:10451000DEB7CA1BDB0B0FB6F894DEBF0FBECDBFF4
:1045200009942A88398848885F846E847D848C84C5
:104530009B84AA84B984C884DF80EE80FD800C81CE
:104540001B81AA81B981CE0FD11D0FB6F894DEBFB1
:0C4550000FBECDBFED010895F894FFCF21
:10455C0057454C434F4D45204241434B00427269F5
:10456C006768746E657373203D0054656D70657279
:10457C006174757265203D0054686520446F6F72DC
:10458C00206973206F70656E3E3E3E3E0054686538
:10459C0020446F6F7220697320436C6F73653C3CD1
:1045AC003C3C3C00594F552043414E275420454E2E
:1045BC00544552454400000000000000000000017A
:1045CC0002020303030304040404040404040505A5
:1045DC00050505050505050505050505050506067D
:1045EC00060606060606060606060606060606065F
:1045FC00060606060606060606060606060607074D
:10460C00070707070707070707070707070707072E
:10461C00070707070707070707070707070707071E
:10462C00070707070707070707070707070707070E
:10463C0007070707070707070707070707070808FC
:10464C0008080808080808080808080808080808DE
:10465C0008080808080808080808080808080808CE
:10466C0008080808080808080808080808080808BE
:10467C0008080808080808080808080808080808AE
:10468C00080808080808080808080808080808089E
:10469C00080808080808080808080808080808088E
:1046AC00080808080808080808080808080808087E
:1046BC000808080808080808080808080808FF017E
:1046CC0002030405060708090A0B0C0D0E0F100057
:00000001FF
