:100000000C942A000C9407010C9434010C946101A7
:100010000C943C000C943C000C943C000C943C0070
:100020000C943C000C943C000C943C000C943C0060
:100030000C943C000C943C000C943C000C943C0050
:100040000C943C000C943C000C943C000C943C0040
:100050000C943C0011241FBECFE5D8E0DEBFCDBF1D
:1000600010E0A0E6B0E001C01D92A636B107E1F7AE
:100070000E948E010C9497010C940000DF93CF93A3
:10008000CDB7DEB7A5E5B0E0E5E5F0E08081877F9C
:100090008C93A5E5B0E0E5E5F0E080818B7F8C9363
:1000A000A5E5B0E0E5E5F0E080818D7F8C93A5E5E6
:1000B000B0E0E5E5F0E080818E7F8C93CF91DF9119
:1000C0000895DF93CF93CDB7DEB7A5E5B0E0E5E5C2
:1000D000F0E080818D7F8C93A5E5B0E0E5E5F0E070
:1000E00080818E7F8C93CF91DF910895DF93CF93A2
:1000F000CDB7DEB7CF91DF910895DF93CF93CDB722
:10010000DEB7ABE5B0E0EBE5F0E0808180648C9396
:10011000CF91DF910895DF93CF93CDB7DEB7ABE5F5
:10012000B0E0EBE5F0E0808180688C93CF91DF91C7
:100130000895DF93CF93CDB7DEB7ABE5B0E0EBE545
:10014000F0E0808180628C93CF91DF910895DF93FE
:10015000CF93CDB7DEB7ABE5B0E0EBE5F0E0808163
:100160008F7B8C93CF91DF910895DF93CF93CDB7A1
:10017000DEB7ABE5B0E0EBE5F0E080818F778C9304
:10018000CF91DF910895DF93CF93CDB7DEB7ABE585
:10019000B0E0EBE5F0E080818F7D8C93CF91DF9133
:1001A0000895DF93CF9300D0CDB7DEB79A838983CC
:1001B00089819A8190936100809360000F900F90E5
:1001C000CF91DF910895DF93CF9300D0CDB7DEB705
:1001D0009A83898389819A819093630080936200D6
:1001E0000F900F90CF91DF910895DF93CF9300D0C0
:1001F000CDB7DEB79A83898389819A819093650010
:10020000809364000F900F90CF91DF9108951F921B
:100210000F920FB60F9211242F933F934F935F933A
:100220006F937F938F939F93AF93BF93EF93FF93BE
:10023000DF93CF93CDB7DEB7E0916000F09161001E
:100240000995CF91DF91FF91EF91BF91AF919F9170
:100250008F917F916F915F914F913F912F910F906F
:100260000FBE0F901F9018951F920F920FB60F920E
:1002700011242F933F934F935F936F937F938F93AB
:100280009F93AF93BF93EF93FF93DF93CF93CDB73C
:10029000DEB7E0916200F09163000995CF91DF91A4
:1002A000FF91EF91BF91AF919F918F917F916F914E
:1002B0005F914F913F912F910F900FBE0F901F9024
:1002C00018951F920F920FB60F9211242F933F9300
:1002D0004F935F936F937F938F939F93AF93BF934E
:1002E000EF93FF93DF93CF93CDB7DEB7E091640038
:1002F000F09165000995CF91DF91FF91EF91BF914A
:10030000AF919F918F917F916F915F914F913F91AD
:100310002F910F900FBE0F901F901895DF93CF93E2
:10032000CDB7DEB780E090E0CF91DF910895F894EB
:02033000FFCFFD
:00000001FF
