:100000000C942A000C94DA100C940D110C944011ED
:100010000C940C090C94D9080C94A6080C94400874
:100020000C9473080C940D080C94DA070C94A70731
:100030000C9447000C9447000C9447000C94470024
:100040000C94D2110C9447000C9447000C94470078
:100050000C94470011241FBECFE5D8E0DEBFCDBF12
:1000600011E0A0E6B0E0E0EFF5E302C005900D92EC
:10007000A439B107D9F711E0A4E9B1E001C01D929C
:10008000AA3AB107E1F70E94DD190C94F61A0C9414
:100090000000EF92FF920F931F937B018C0120E0F1
:1000A00030E040E05FE40E94F50388238CF0C80153
:1000B000B70120E030E040E05FE40E94C1010E940F
:1000C00055049B01AC01205030404040504806C0D0
:1000D000C801B7010E9455049B01AC01B901CA01D6
:1000E0001F910F91FF90EF900895A0E0B0E0EBE733
:1000F000F0E00C94BF1ADC012B01FA019C919230C4
:1001000008F439C1EB018881823008F433C194309E
:1001100069F4843009F02FC111969C91119789815F
:10012000981709F428C1ABE7B0E025C1843009F481
:1001300021C18230A9F4923009F01DC19A01AD01AC
:1001400088E0EA010990AE01E90109929E0181501F
:10015000C1F7E201898111969C918923818308C1AD
:10016000923009F407C112962D903C901397EB0141
:100170008A819B811496AD90BD90CD90DC901797AD
:10018000EC80FD800E811F819101281B390BB90184
:1001900037FF04C066277727621B730B6032710537
:1001A0000CF061C0121613066CF537014801062EDB
:1001B00004C096948794779467940A94D2F721E0C8
:1001C00030E040E050E004C0220F331F441F551FB1
:1001D0006A95D2F721503040404050402E213F21B7
:1001E00040235123211531054105510521F021E01E
:1001F00030E040E050E079018A01E628F72808293C
:1002000019293CC0232BD1F1260E371E350146019A
:10021000062E04C096948794779467940A94D2F734
:1002200021E030E040E050E004C0220F331F441FC3
:10023000551F6A95D2F721503040404050402A2146
:100240003B214C215D21211531054105510521F04E
:1002500021E030E040E050E059016A01A628B728CB
:10026000C828D9280BC0821593052CF01C01AA249C
:10027000BB24650103C0EE24FF24870111969C91E5
:10028000D20111968C91981709F445C0992339F041
:10029000A80197012A193B094C095D0906C0A6016E
:1002A00095012E193F09400B510B57FD08C01182D3
:1002B0003382228224833583468357831DC081E0A5
:1002C00081833382228288279927DC01821B930B4A
:1002D000A40BB50B84839583A683B7830DC0220F2F
:1002E000331F441F551F24833583468357838281E0
:1002F000938101979383828324813581468157813D
:10030000DA01C9010197A109B1098F5F9F4FAF4F72
:10031000BF4328F30BC0918333822282EA0CFB1C7B
:100320000C1D1D1DE482F5820683178383E0808304
:10033000248135814681578157FF1AC0C901AA27F8
:1003400097FDA095BA2F81709070A070B0705695EF
:10035000479537952795822B932BA42BB52B848318
:100360009583A683B7838281938101969383828349
:10037000DF0101C0D201CD01CDB7DEB7E2E10C94BF
:10038000DB1AA0E2B0E0E7ECF1E00C94CB1A698351
:100390007A838B839C832D833E834F835887E9E048
:1003A000EE2EF12CEC0EFD1ECE010196B7010E943F
:1003B00046068E010F5E1F4FCE010596B8010E94C2
:1003C00046068A8991E089278A8BC701B801AE0168
:1003D000475E5F4F0E9475000E947105A096E6E09F
:1003E0000C94E71AA0E2B0E0E8EFF1E00C94CB1A2D
:1003F00069837A838B839C832D833E834F835887C5
:10040000F9E0EF2EF12CEC0EFD1ECE010196B701A6
:100410000E9446068E010F5E1F4FCE010596B80161
:100420000E944606C701B801AE01475E5F4F0E94B9
:1004300075000E947105A096E6E00C94E71AA0E210
:10044000B0E0E5E2F2E00C94BF1A69837A838B8313
:100450009C832D833E834F835887CE010196BE0136
:10046000675F7F4F0E944606CE010596BE016F5E14
:100470007F4F0E9446069985923088F089898230A4
:10048000C8F0943019F4823051F404C0843029F457
:10049000923081F48BE790E0C6C0923049F420E0BE
:1004A0009A858A89981321E02A87CE010996BBC0D4
:1004B000823049F420E09A858A89981321E02A8BBA
:1004C000CE014196B0C02D843E844F8458886D88FB
:1004D0007E888F88988CEE24FF248701AA24BB2471
:1004E000650140E050E060E070E0E0E0F0E0C10174
:1004F00081709070892BE9F0E60CF71C081D191D1E
:100500009A01AB012A0D3B1D4C1D5D1D80E090E062
:10051000A0E0B0E0E614F7040805190520F481E036
:1005200090E0A0E0B0E0BA01A901480F591F6A1F8E
:100530007B1FAA0CBB1CCC1CDD1C97FE08C081E0F5
:1005400090E0A0E0B0E0A82AB92ACA2ADB2A3196B6
:10055000E032F10549F0660C771C881C991C569412
:10056000479437942794C3CFFA85EA892B893C892D
:100570008B859C85280F391F2E5F3F4F17C0CA01FE
:1005800081709070892B61F016950795F794E79428
:1005900080E090E0A0E0B0E8E82AF92A0A2B1B2BC3
:1005A00076956795579547952F5F3F4F77FDE7CF36
:1005B0000CC0440F551F661F771F17FD4160EE0CDE
:1005C000FF1C001F111F21503040403090E05907A0
:1005D00090E0690790E4790760F32B8F3C8FDB0193
:1005E000CA018F779070A070B07080349105A1051A
:1005F000B10561F447FD0AC0E114F10401051105DC
:1006000029F0405C5F4F6F4F7F4F40781A8EFE1786
:1006100011F081E08A8F4D8F5E8F6F8F78A383E01A
:10062000898FCE0149960E947105A096E2E10C9453
:10063000DB1AA8E1B0E0EFE1F3E00C94C71A69839C
:100640007A838B839C832D833E834F835887B9E0C5
:10065000EB2EF12CEC0EFD1ECE010196B7010E948F
:1006600046068E010F5E1F4FCE010596B8010E940F
:1006700046062985223008F47EC03989323010F4CC
:10068000B8017CC08A859A8989278A87243011F02D
:10069000223031F4231709F06EC06BE770E06EC0B2
:1006A000343039F41D861E861F86188A1C861B86E8
:1006B00004C0323021F484E08987B7015FC02B8504
:1006C0003C858B899C89281B390B3C872B87ED84C3
:1006D000FE840F851889AD88BE88CF88D88CEA142F
:1006E000FB040C051D0540F4EE0CFF1C001F111F40
:1006F000215030403C872B8720E030E040E050E044
:1007000080E090E0A0E0B0E460E070E0EA14FB0478
:100710000C051D0540F0282B392B4A2B5B2BEA18C2
:10072000FB080C091D09B695A79597958795EE0CC2
:10073000FF1C001F111F6F5F7F4F6F31710531F775
:10074000DA01C9018F779070A070B0708034910584
:10075000A105B10561F427FD0AC0E114F10401050A
:10076000110529F0205C3F4F4F4F5F4F20782D87B8
:100770003E874F87588BBE01675F7F4FCB010E943A
:1007800071056896EAE00C94E31AA8E1B0E0EBEC9E
:10079000F3E00C94CB1A69837A838B839C832D833B
:1007A0003E834F83588789E0E82EF12CEC0EFD1E26
:1007B000CE010196B7010E9446068E010F5E1F4FC3
:1007C000CE010596B8010E9446068985823040F028
:1007D0008989823028F0C701B8010E94BE0601C095
:1007E0008FEF6896E6E00C94E71AA8E1B0E0EBEF33
:1007F000F3E00C94CB1A69837A838B839C832D83DB
:100800003E834F83588789E0E82EF12CEC0EFD1EC5
:10081000CE010196B7010E9446068E010F5E1F4F62
:10082000CE010596B8010E9446068985823040F0C7
:100830008989823028F0C701B8010E94BE0601C034
:100840008FEF6896E6E00C94E71AA8E1B0E0EBE2DF
:10085000F4E00C94CB1A69837A838B839C832D8379
:100860003E834F83588789E0E82EF12CEC0EFD1E65
:10087000CE010196B7010E9446068E010F5E1F4F02
:10088000CE010596B8010E9446068985823040F067
:100890008989823028F0C701B8010E94BE0601C0D4
:1008A00081E06896E6E00C94E71AACE0B0E0EBE596
:1008B000F4E00C94CF1A69837A838B839C83CE01F6
:1008C0000196BE016B5F7F4F0E9446068D8182308C
:1008D00061F1823050F1843021F48E81882351F10E
:1008E0002EC02F81388537FD20C06E812F31310514
:1008F0001CF06623F9F023C08EE190E0821B930B7D
:1009000029853A854B855C8504C056954795379572
:1009100027958A95D2F76623B1F05095409530958A
:1009200021953F4F4F4F5F4F0EC020E030E040E039
:1009300050E009C02FEF3FEF4FEF5FE704C020E02A
:1009400030E040E050E8B901CA012C96E2E00C9496
:10095000EB1AA8E0B0E0EFEAF4E00C94C71A7B01D0
:100960008C01611571058105910519F482E0898377
:1009700060C083E089838EE1C82ED12CDC82CB82DB
:10098000ED82FE820F831887C801B7010E942205FD
:10099000FC013197F7FF3BC0222733272E1B3F0B6B
:1009A00057016801022E04C0D694C794B794A79447
:1009B0000A94D2F740E050E060E070E081E090E01F
:1009C000A0E0B0E004C0880F991FAA1FBB1F2A95A2
:1009D000D2F70197A109B1098E219F21A023B1234C
:1009E0000097A105B10521F041E050E060E070E022
:1009F0004A295B296C297D294D835E836F83788723
:100A00008EE190E08E1B9F0B9C838B8312C03097EE
:100A100081F00E2E04C0EE0CFF1C001F111F0A9463
:100A2000D2F7ED82FE820F831887CE1ADF0ADC82AE
:100A3000CB821A82CE0101960E9471052896EAE0C7
:100A40000C94E31AEF92FF920F931F937B018C019A
:100A500080E0E81680E0F80681E0080780E01807EB
:100A600088F48FEFE816F1040105110531F028F044
:100A700088E090E0A0E0B0E017C080E090E0A0E067
:100A8000B0E012C080E0E81680E0F80680E00807D9
:100A900081E0180728F088E190E0A0E0B0E004C011
:100AA00080E190E0A0E0B0E020E230E040E050E003
:100AB000281B390B4A0B5B0B04C016950795F7945E
:100AC000E7948A95D2F7F701ED57FF4F8081281BF5
:100AD000310941095109C9011F910F91FF90EF9010
:100AE0000895DF92EF92FF920F931F93FC01E48031
:100AF000F58006811781D1808081823048F480E0C2
:100B000090E0A0E1B0E0E82AF92A0A2B1B2BA5C04F
:100B1000843009F49FC0823021F4EE24FF24870141
:100B200005C0E114F1040105110519F4E0E0F0E05D
:100B300096C0628173819FEF623879070CF05BC0C9
:100B400022E83FEF261B370B2A3131052CF020E03D
:100B500030E040E050E02AC0B801A701022E04C0F6
:100B600076956795579547950A94D2F781E090E07E
:100B7000A0E0B0E004C0880F991FAA1FBB1F2A95F0
:100B8000D2F70197A109B1098E219F21A023B1239A
:100B90000097A105B10521F081E090E0A0E0B0E070
:100BA0009A01AB01282B392B4A2B5B2BDA01C901A7
:100BB0008F779070A070B07080349105A105B10559
:100BC00039F427FF09C0205C3F4F4F4F5F4F04C0EF
:100BD000215C3F4F4F4F5F4FE0E0F0E02030A0E05E
:100BE0003A07A0E04A07A0E45A0710F0E1E0F0E07D
:100BF00079018A0127C06038710564F5FB01E1586D
:100C0000FF4FD801C7018F779070A070B07080340B
:100C10009105A105B10539F4E7FE0DC080E490E02F
:100C2000A0E0B0E004C08FE390E0A0E0B0E0E80E08
:100C3000F91E0A1F1B1F17FF05C016950795F7948D
:100C4000E794319687E016950795F794E7948A958F
:100C5000D1F705C0EE24FF248701EFEFF0E06E2FFF
:100C6000679566276795902F9F77D794DD24D79453
:100C70008E2F8695492F462B582F5D29B701CA0123
:100C80001F910F91FF90EF90DF900895FC01DB0121
:100C9000408151812281622F6F7770E0221F2227CD
:100CA000221F9381892F880F822B282F30E0991FD4
:100CB0009927991F11969C93119721153105A9F534
:100CC000411551056105710511F482E037C082E8D4
:100CD0009FEF13969C938E9312979A01AB0167E056
:100CE000220F331F441F551F6A95D1F783E08C9361
:100CF0000DC0220F331F441F551F12968D919C91DA
:100D00001397019713969C938E931297203080E04F
:100D1000380780E0480780E4580758F314962D936D
:100D20003D934D935C93179708952F3F310579F4C8
:100D3000411551056105710519F484E08C930895FE
:100D400064FF03C081E08C9312C01C9210C02F5727
:100D5000304013963C932E93129783E08C9387E058
:100D6000440F551F661F771F8A95D1F7706414963C
:100D70004D935D936D937C93179708951F93DC01BA
:100D8000FB019C91923008F447C08081823008F4C6
:100D900043C0943051F411961C91843099F58181AF
:100DA000682F70E0611B71093FC0843021F09230E0
:100DB00031F48230B9F18181882389F12DC01196F7
:100DC0001C9111978230F1F081811817D9F4129695
:100DD0002D913C911397828193818217930794F010
:100DE00028173907BCF014968D919D910D90BC91F8
:100DF000A02D2481358146815781281739074A075C
:100E00005B0718F4112341F00AC082179307A40767
:100E1000B50740F4112319F061E070E005C06FEFF1
:100E20007FEF02C060E070E0CB011F910895DF9377
:100E3000CF9300D0CDB7DEB79A83898389819A8119
:100E400090939501809394010F900F90CF91DF9133
:100E50000895DF93CF9300D0CDB7DEB79A8389830F
:100E600089819A8190939501809394010F900F90BE
:100E7000CF91DF910895DF93CF9300D0CDB7DEB748
:100E80009A83898389819A8190939B0180939A01A7
:100E90000F900F90CF91DF910895DF93CF9300D003
:100EA000CDB7DEB79A83898389819A8190939D011A
:100EB00080939C010F900F90CF91DF910895DF9365
:100EC000CF9300D0CDB7DEB79A83898389819A8189
:100ED00090939F0180939E010F900F90CF91DF918F
:100EE0000895DF93CF9300D0CDB7DEB79A8389837F
:100EF00089819A819093A1018093A0010F900F9016
:100F0000CF91DF910895DF93CF9300D0CDB7DEB7B7
:100F10009A83898389819A8190939701809396011E
:100F20000F900F90CF91DF910895DF93CF9300D072
:100F3000CDB7DEB79A83898389819A81909397018F
:100F4000809396010F900F90CF91DF9108951F929B
:100F50000F920FB60F9211242F933F934F935F93ED
:100F60006F937F938F939F93AF93BF93EF93FF9371
:100F7000DF93CF93CDB7DEB7809194019091950127
:100F8000009729F0E0919401F09195010995CF9196
:100F9000DF91FF91EF91BF91AF919F918F917F91E1
:100FA0006F915F914F913F912F910F900FBE0F90D6
:100FB0001F9018951F920F920FB60F9211242F9326
:100FC0003F934F935F936F937F938F939F93AF93D1
:100FD000BF93EF93FF93DF93CF93CDB7DEB78091AD
:100FE000940190919501009729F0E0919401F0917E
:100FF00095010995CF91DF91FF91EF91BF91AF914D
:101000009F918F917F916F915F914F913F912F9120
:101010000F900FBE0F901F9018951F920F920FB652
:101020000F9211242F933F934F935F936F937F936E
:101030008F939F93AF93BF93EF93FF93DF93CF93E0
:10104000CDB7DEB780919A0190919B01009729F06E
:10105000E0919A01F0919B010995CF91DF91FF9169
:10106000EF91BF91AF919F918F917F916F915F9120
:101070004F913F912F910F900FBE0F901F90189599
:101080001F920F920FB60F9211242F933F934F93FD
:101090005F936F937F938F939F93AF93BF93EF93E0
:1010A000FF93DF93CF93CDB7DEB7809198019091F6
:1010B0009901009729F0E0919C01F0919D0109951B
:1010C000CF91DF91FF91EF91BF91AF919F918F9160
:1010D0007F916F915F914F913F912F910F900FBE34
:1010E0000F901F9018951F920F920FB60F92112418
:1010F0002F933F934F935F936F937F938F939F9320
:10110000AF93BF93EF93FF93DF93CF93CDB7DEB74A
:101110008091980190919901009729F0E0919E01AA
:10112000F0919F010995CF91DF91FF91EF91BF91D0
:10113000AF919F918F917F916F915F914F913F916F
:101140002F910F900FBE0F901F9018951F920F9226
:101150000FB60F9211242F933F934F935F936F938A
:101160007F938F939F93AF93BF93EF93FF93DF93FF
:10117000CF93CDB7DEB78091A0019091A1010097E8
:1011800029F0E091A001F091A1010995CF91DF91A3
:10119000FF91EF91BF91AF919F918F917F916F914F
:1011A0005F914F913F912F910F900FBE0F901F9025
:1011B00018951F920F920FB60F9211242F933F9301
:1011C0004F935F936F937F938F939F93AF93BF934F
:1011D000EF93FF93DF93CF93CDB7DEB78091960166
:1011E00090919701009729F0E0919601F091970175
:1011F0000995CF91DF91FF91EF91BF91AF919F91B1
:101200008F917F916F915F914F913F912F910F90AF
:101210000FBE0F901F9018951F920F920FB60F924E
:1012200011242F933F934F935F936F937F938F93EB
:101230009F93AF93BF93EF93FF93DF93CF93CDB77C
:10124000DEB78091960190919701009729F0E09187
:101250009601F09197010995CF91DF91FF91EF9160
:10126000BF91AF919F918F917F916F915F914F91BE
:101270003F912F910F900FBE0F901F901895DF9305
:10128000CF93CDB7DEB7A3E5B0E0E3E5F0E0808132
:1012900088608C93A3E5B0E0E3E5F0E080818064B2
:1012A0008C93A3E5B0E0E3E5F0E0808180628C936D
:1012B000A3E5B0E0E3E5F0E080818F7E8C93A3E5C9
:1012C000B0E0E3E5F0E0808184608C93A3E5B0E0DA
:1012D000E3E5F0E080818D7F8C93A3E5B0E0E3E56A
:1012E000F0E080818E7F8C93CF91DF910895DF9322
:1012F000CF93CDB7DEB7E6E4F0E081E792E09183EB
:101300008083AEE4B0E0EEE4F0E0808184608C9312
:10131000AEE4B0E0EEE4F0E080818D7F8C93AEE44B
:10132000B0E0EEE4F0E080818E7F8C93AFE4B0E03B
:10133000EFE4F0E080818E7F8C93AFE4B0E0EFE4E7
:10134000F0E0808182608C93AEE4B0E0EEE4F0E007
:10135000808188608C93AEE4B0E0EEE4F0E08081C0
:1013600080618C93AFE4B0E0EFE4F0E080818F7BAC
:101370008C93AFE4B0E0EFE4F0E0808180688C9380
:10138000AFE4B0E0EFE4F0E080818F7E8C93AFE4D7
:10139000B0E0EFE4F0E0808180628C93CF91DF9148
:1013A0000895DF93CF93CDB7DEB7A5E4B0E0E5E4D1
:1013B000F0E0808188608C93A5E4B0E0E5E4F0E0A3
:1013C000808180648C93A5E4B0E0E5E4F0E0808166
:1013D00080628C93A5E4B0E0E5E4F0E080818F7E4C
:1013E0008C93A5E4B0E0E5E4F0E0808184608C9328
:1013F000A5E4B0E0E5E4F0E080818D7F8C93A5E486
:10140000B0E0E5E4F0E080818E7F8C93CF91DF91B6
:101410000895DF93CF93CDB7DEB7A9E5B0E0E9E556
:10142000F0E0808180628C93CF91DF9108950F93DB
:101430001F93DF93CF9300D000D0CDB7DEB7698381
:101440007A838B839C8369817A818B819C8120E064
:1014500030E048EC52E40E941903DC01CB0189839F
:101460009A83AB83BC830CE510E069817A818B8120
:101470009C8120E030E04FE753E40E941F02DC0132
:10148000CB01BC01CD0120E030E040E85FE30E94E9
:10149000C101DC01CB01BC01CD010E944900DC018E
:1014A000CB01F80180830F900F900F900F90CF9198
:1014B000DF911F910F9108950F931F93DF93CF93A7
:1014C00000D000D0CDB7DEB769837A838B839C834D
:1014D00069817A818B819C8120E030E048EC52E484
:1014E0000E941903DC01CB0189839A83AB83BC83FF
:1014F0000AE410E0E6E4F0E080819181CC01A0E014
:10150000B0E0BC01CD010E94A904DC01CB01BC010B
:10151000CD0129813A814B815C810E941F02DC014F
:10152000CB01BC01CD0120E030E040E85FE30E9448
:10153000C101DC01CB01BC01CD010E944900DC01ED
:10154000CB01F801918380830F900F900F900F9043
:10155000CF91DF911F910F9108950F931F93DF9308
:10156000CF9300D000D0CDB7DEB769837A838B8369
:101570009C8369817A818B819C8120E030E048ECFA
:1015800052E40E941903DC01CB0189839A83AB8367
:10159000BC8308E410E0E6E4F0E080819181CC01B6
:1015A000A0E0B0E0BC01CD010E94A904DC01CB01A8
:1015B000BC01CD0129813A814B815C810E941F02CF
:1015C000DC01CB01BC01CD0120E030E040E85FE36D
:1015D0000E94C101DC01CB01BC01CD010E94490088
:1015E000DC01CB01F801918380830F900F900F9065
:1015F0000F90CF91DF911F910F9108950F931F933B
:10160000DF93CF9300D000D0CDB7DEB769837A8364
:101610008B839C8369817A818B819C8120E030E07F
:1016200048EC52E40E941903DC01CB0189839A83C0
:10163000AB83BC8303E410E069817A818B819C8158
:1016400020E030E04FE753E40E941F02DC01CB01B1
:10165000BC01CD0120E030E040E85FE30E94C10121
:10166000DC01CB01BC01CD010E944900DC01CB01B2
:10167000F80180830F900F900F900F90CF91DF9122
:101680001F910F910895DF93CF93CDB7DEB7EAE3B3
:10169000F0E01082E7E3F0E01082E4E3F0E0108293
:1016A000E1E3F0E08FEF8083EBE3F0E01082E8E32A
:1016B000F0E01082E5E3F0E01082E2E3F0E0108277
:1016C000CF91DF910895DF93CF93CDB7DEB72E97FB
:1016D0000FB6F894DEBF0FBECDBF8A836B834C83F9
:1016E00081E089838A81843008F00CC18B81883045
:1016F00008F008C18C81882321F08C81813009F0A9
:1017000001C18A81282F30E03E872D878D859E85F7
:101710008130910509F44FC02D853E852230310579
:101720002CF48D859E85009771F0EDC02D853E854A
:101730002230310509F477C08D859E85833091056F
:1017400009F4A9C0E0C08C81282F30E03C872B87AA
:101750008B859C850097D1F02B853C852130310508
:1017600009F0D1C0AAE3B0E0EAE3F0E08081482FBD
:101770008B81282F30E081E090E0022E02C0880F9C
:10178000991F0A94E2F7842B8C93BDC0AAE3B0E0C2
:10179000EAE3F0E08081482F8B81282F30E081E060
:1017A00090E0022E02C0880F991F0A94E2F78095FC
:1017B00084238C93A8C08C81282F30E03A87298716
:1017C00089859A850097D1F029853A8521303105A0
:1017D00009F099C0A7E3B0E0E7E3F0E08081482F8B
:1017E0008B81282F30E081E090E0022E02C0880F2C
:1017F000991F0A94E2F7842B8C9385C0A7E3B0E08D
:10180000E7E3F0E08081482F8B81282F30E081E0F2
:1018100090E0022E02C0880F991F0A94E2F780958B
:1018200084238C9370C08C81282F30E038872F83DD
:101830008F8198850097D1F02F813885213031052F
:1018400009F061C0A4E3B0E0E4E3F0E08081482F58
:101850008B81282F30E081E090E0022E02C0880FBB
:10186000991F0A94E2F7842B8C934DC0A4E3B0E057
:10187000E4E3F0E08081482F8B81282F30E081E085
:1018800090E0022E02C0880F991F0A94E2F780951B
:1018900084238C9338C08C81282F30E03E832D83A5
:1018A0008D819E810097C9F02D813E8121303105C7
:1018B00051F5A1E3B0E0E1E3F0E08081482F8B81B6
:1018C000282F30E081E090E0022E02C0880F991F9F
:1018D0000A94E2F7842B8C9316C0A1E3B0E0E1E315
:1018E000F0E08081482F8B81282F30E081E090E06C
:1018F000022E02C0880F991F0A94E2F78095842374
:101900008C9301C0198289812E960FB6F894DEBFA0
:101910000FBECDBFCF91DF910895DF93CF93CDB7A9
:10192000DEB72E970FB6F894DEBF0FBECDBF8A8309
:101930006B834C8381E089838A81843008F00CC1F9
:101940008B81883008F008C18C81813021F08C8136
:10195000882309F001C18A81282F30E03E872D8736
:101960008D859E858130910509F44FC02D853E857A
:10197000223031052CF48D859E85009771F0EDC0E5
:101980002D853E852230310509F477C08D859E85F1
:101990008330910509F4A9C0E0C08C81282F30E084
:1019A0003C872B878B859C850097D1F02B853C85C8
:1019B0002130310509F0D1C0ABE3B0E0EBE3F0E05A
:1019C0008081482F8B81282F30E081E090E0022E2B
:1019D00002C0880F991F0A94E2F7842B8C93BDC034
:1019E000ABE3B0E0EBE3F0E08081482F8B81282F60
:1019F00030E081E090E0022E02C0880F991F0A9427
:101A0000E2F7809584238C93A8C08C81282F30E046
:101A10003A87298789859A850097D1F029853A8563
:101A20002130310509F099C0A8E3B0E0E8E3F0E027
:101A30008081482F8B81282F30E081E090E0022EBA
:101A400002C0880F991F0A94E2F7842B8C9385C0FB
:101A5000A8E3B0E0E8E3F0E08081482F8B81282FF5
:101A600030E081E090E0022E02C0880F991F0A94B6
:101A7000E2F7809584238C9370C08C81282F30E00E
:101A800038872F838F8198850097D1F02F813885F3
:101A90002130310509F061C0A5E3B0E0E5E3F0E0F5
:101AA0008081482F8B81282F30E081E090E0022E4A
:101AB00002C0880F991F0A94E2F7842B8C934DC0C3
:101AC000A5E3B0E0E5E3F0E08081482F8B81282F8B
:101AD00030E081E090E0022E02C0880F991F0A9446
:101AE000E2F7809584238C9338C08C81282F30E0D6
:101AF0003E832D838D819E810097C9F02D813E818B
:101B00002130310551F5A2E3B0E0E2E3F0E080815D
:101B1000482F8B81282F30E081E090E0022E02C018
:101B2000880F991F0A94E2F7842B8C9316C0A2E3C6
:101B3000B0E0E2E3F0E08081482F8B81282F30E095
:101B400081E090E0022E02C0880F991F0A94E2F70C
:101B5000809584238C9301C0198289812E960FB6BB
:101B6000F894DEBF0FBECDBFCF91DF910895DF9314
:101B7000CF93CDB7DEB727970FB6F894DEBF0FBE71
:101B8000CDBF8A836B835D834C8381E089838A81A7
:101B9000843008F0EAC08B81883008F0E6C08C8180
:101BA0009D81009709F4E1C08A81282F30E03F83AE
:101BB0002E834E815F814130510509F448C08E81EA
:101BC0009F818230910534F42E813F8121153105AA
:101BD00071F0CCC04E815F814230510509F467C07D
:101BE0008E819F818330910509F490C0BFC0E9E3E5
:101BF000F0E08081282F30E08B81882F90E0A901D0
:101C000002C0559547958A95E2F7CA018170907098
:101C1000009721F4EC81FD811082A8C0E9E3F0E097
:101C20008081282F30E08B81882F90E0A90102C0AD
:101C3000559547958A95E2F7CA018170907088237F
:101C400009F494C0EC81FD8181E080838FC0E6E3DC
:101C5000F0E08081282F30E08B81882F90E0A9016F
:101C600002C0559547958A95E2F7CA018170907038
:101C7000009721F4EC81FD81108278C0E6E3F0E06A
:101C80008081282F30E08B81882F90E0A90102C04D
:101C9000559547958A95E2F7CA018170907088231F
:101CA00009F464C0EC81FD8181E080835FC0E3E3DF
:101CB000F0E08081282F30E08B81882F90E0A9010F
:101CC00002C0559547958A95E2F7CA0181709070D8
:101CD000009721F4EC81FD81108248C0E3E3F0E03D
:101CE0008081282F30E08B81882F90E0A90102C0ED
:101CF000559547958A95E2F7CA01817090708823BF
:101D0000A9F1EC81FD8181E0808330C0E0E3F0E067
:101D10008081282F30E08B81882F90E0A90102C0BC
:101D2000559547958A95E2F7CA01817090700097A2
:101D300021F4EC81FD81108219C0E0E3F0E08081A4
:101D4000282F30E08B81882F90E0A90102C05595A3
:101D500047958A95E2F7CA0181709070882331F027
:101D6000EC81FD8181E0808301C019828981279601
:101D70000FB6F894DEBF0FBECDBFCF91DF910895AF
:101D8000DF93CF9300D000D00F92CDB7DEB78A8318
:101D90006B8381E089838A81282F30E03D832C8307
:101DA0008C819D8181309105D1F02C813D81223043
:101DB00031052CF48C819D81009761F01EC02C812F
:101DC0003D812230310581F08C819D8183309105E8
:101DD00081F013C0EAE3F0E08B8180830EC0E7E37B
:101DE000F0E08B81808309C0E4E3F0E08B818083A5
:101DF00004C0E1E3F0E08B81808389810F900F9034
:101E00000F900F900F90CF91DF910895DF93CF93B4
:101E100000D000D00F92CDB7DEB78A836B8381E00C
:101E200089838A81282F30E03D832C838C819D819A
:101E300081309105D1F02C813D81223031052CF487
:101E40008C819D81009761F01FC02C813D812230E3
:101E5000310581F08C819D818330910581F014C022
:101E6000EBE3F0E08B81808310C0E8E3F0E08B814E
:101E700080830BC0E5E3F0E08B81808306C0E2E362
:101E8000F0E08B81808301C0198289810F900F90CF
:101E90000F900F900F90CF91DF910895DF93CF9324
:101EA00000D000D000D0CDB7DEB78A836B834C83DF
:101EB00081E089838B81853008F0C7C08C81282F11
:101EC00030E03E832D836D817E816130710509F4A0
:101ED00041C08D819E818230910534F42D813E81F7
:101EE0002115310571F0B2C06D817E8162307105BE
:101EF00009F459C08D819E818330910509F47CC01D
:101F0000A5C0ABE3B0E0EBE3F0E08081482F8B812C
:101F1000282F30E08FE090E002C0880F991F2A95AB
:101F2000E2F7809584238C93ABE3B0E0EBE3F0E041
:101F30008081482F8C81282F30E08B81882F90E082
:101F4000B90102C0660F771F8A95E2F7CB01842B97
:101F50008C937CC0A8E3B0E0E8E3F0E08081482FF8
:101F60008B81282F30E08FE090E002C0880F991F0E
:101F70002A95E2F7809584238C93A8E3B0E0E8E308
:101F8000F0E08081482F8C81282F30E08B81882FD2
:101F900090E0B90102C0660F771F8A95E2F7CB0186
:101FA000842B8C9353C0A5E3B0E0E5E3F0E080819F
:101FB000482F8B81282F30E08FE090E002C0880FFF
:101FC000991F2A95E2F7809584238C93A5E3B0E0CE
:101FD000E5E3F0E08081482F8C81282F30E08B8171
:101FE000882F90E0B90102C0660F771F8A95E2F74B
:101FF000CB01842B8C932AC0A2E3B0E0E2E3F0E0B3
:102000008081482F8B81282F30E08FE090E002C044
:10201000880F991F2A95E2F7809584238C93A2E379
:10202000B0E0E2E3F0E08081482F8C81282F30E09F
:102030008B81882F90E0B90102C0660F771F8A95C7
:10204000E2F7CB01842B8C9301C0198289812696FB
:102050000FB6F894DEBF0FBECDBFCF91DF910895CC
:10206000DF93CF9300D000D000D0CDB7DEB78A8306
:102070007C836B8381E089838B819C810097E9F16C
:102080008A81282F30E03E832D838D819E8181308F
:102090009105E1F02D813E81223031052CF48D81B6
:1020A0009E81009761F027C02D813E81223031054D
:1020B000A1F08D819E8183309105B1F01CC0E9E3D0
:1020C000F0E08081EB81FC81808318C0E6E3F0E0E2
:1020D0008081EB81FC81808311C0E3E3F0E08081AB
:1020E000EB81FC8180830AC0E0E3F0E08081EB813A
:1020F000FC81808303C0198201C0198289812696E0
:102100000FB6F894DEBF0FBECDBFCF91DF9108951B
:10211000DF93CF93CDB7DEB7AFE5B0E0EFE5F0E00A
:10212000808180688C93CF91DF910895DF93CF9366
:10213000CDB7DEB7AFE5B0E0EFE5F0E080818F77B7
:102140008C93CF91DF910895DF93CF9300D0CDB7DB
:10215000DEB79A83898389819A819093A3018093C2
:10216000A2010F900F90CF91DF910895DF93CF934D
:1021700000D0CDB7DEB79A83898389819A81909305
:10218000A5018093A4010F900F90CF91DF91089546
:10219000DF93CF9300D0CDB7DEB79A83898389814F
:1021A0009A819093A7018093A6010F900F90CF91F1
:1021B000DF9108951F920F920FB60F9211242F9363
:1021C0003F934F935F936F937F938F939F93AF93BF
:1021D000BF93EF93FF93DF93CF93CDB7DEB780919B
:1021E000A2019091A301009729F0E091A201F09142
:1021F000A3010995CF91DF91FF91EF91BF91AF912D
:102200009F918F917F916F915F914F913F912F910E
:102210000F900FBE0F901F9018951F920F920FB640
:102220000F9211242F933F934F935F936F937F935C
:102230008F939F93AF93BF93EF93FF93DF93CF93CE
:10224000CDB7DEB78091A4019091A501009729F048
:10225000E091A401F091A5010995CF91DF91FF9143
:10226000EF91BF91AF919F918F917F916F915F910E
:102270004F913F912F910F900FBE0F901F90189587
:102280001F920F920FB60F9211242F933F934F93EB
:102290005F936F937F938F939F93AF93BF93EF93CE
:1022A000FF93DF93CF93CDB7DEB78091A6019091D6
:1022B000A701009729F0E091A601F091A7010995E7
:1022C000CF91DF91FF91EF91BF91AF919F918F914E
:1022D0007F916F915F914F913F912F910F900FBE22
:1022E0000F901F901895DF93CF93CDB7DEB7ABE576
:1022F000B0E0EBE5F0E0808180648C93A5E5B0E090
:10230000E5E5F0E0808181608C93A5E5B0E0E5E54E
:10231000F0E080818D7F8C93CF91DF910895DF93E2
:10232000CF93CDB7DEB7ABE5B0E0EBE5F0E0808171
:1023300080688C93A5E5B0E0E5E5F0E080818B7FD7
:102340008C93A5E5B0E0E5E5F0E0808188608C93B2
:10235000CF91DF910895DF93CF93CDB7DEB7ABE593
:10236000B0E0EBE5F0E0808180628C93A4E5B0E022
:10237000E4E5F0E080818F7B8C93CF91DF9108952D
:10238000DF93CF9300D0CDB7DEB79A83898389815D
:102390009A819093A9018093A8010F900F90CF91FB
:1023A000DF9108951F920F920FB60F9211242F9371
:1023B0003F934F935F936F937F938F939F93AF93CD
:1023C000BF93EF93FF93DF93CF93CDB7DEB78091A9
:1023D000A8019091A901009729F0E091A801F0913E
:1023E000A9010995CF91DF91FF91EF91BF91AF9135
:1023F0009F918F917F916F915F914F913F912F911D
:102400000F900FBE0F901F901895DF93CF93CDB70D
:10241000DEB7A7E2B0E0E7E2F0E0808180648C9371
:10242000A7E2B0E0E7E2F0E080818F778C93A6E24C
:10243000B0E0E6E2F0E080818E7F8C93A6E2B0E02F
:10244000E6E2F0E0808182608C93A6E2B0E0E6E212
:10245000F0E0808184608C93A7E2B0E0E7E2F0E0F6
:1024600080818F7D8C93A6E2B0E0E6E2F0E080818F
:1024700080628C93A0E5B0E0E0E5F0E080818F7DA4
:102480008C93A0E5B0E0E0E5F0E0808180648C937F
:10249000A0E5B0E0E0E5F0E080818F778C93A6E2E4
:1024A000B0E0E6E2F0E0808180688C93CF91DF912C
:1024B0000895DF93CF93CDB7DEB7A6E2B0E0E6E2B2
:1024C000F0E0808180648C93CF91DF910895DF9359
:1024D000CF930F92CDB7DEB78983A7E2B0E0E7E2F2
:1024E000F0E08081807E8C93A7E2B0E0E7E2F0E04C
:1024F00090818981892B8C930F90CF91DF910895E2
:10250000DF93CF93CDB7DEB7A6E2B0E0E6E2F0E02E
:10251000808188608C93CF91DF910895DF93CF9372
:10252000CDB7DEB7E6E2F0E0808182958F70882F2C
:1025300090E0817090700097A9F3A6E2B0E0E6E227
:10254000F0E0808180618C93CF91DF910895DF93DB
:10255000CF9300D0CDB7DEB79A838983E4E2F0E071
:1025600080819181E981FA81918380830F900F901E
:10257000CF91DF910895DF93CF9300D0CDB7DEB731
:1025800089836A8389816A8141E00E94630B898122
:102590006A8141E00E948D0C0F900F90CF91DF91E6
:1025A0000895DF93CF9300D0CDB7DEB789836A83D8
:1025B00089816A8140E00E94630B89816A8140E0E1
:1025C0000E948D0C0F900F90CF91DF910895DF93B3
:1025D000CF93CDB7DEB7E8970FB6F894DEBF0FBE46
:1025E000CDBF80E090E0A8E4B2E48DAB9EABAFAB92
:1025F000B8AF6DA97EA98FA998AD20E030E04AEF71
:1026000054E40E941F02DC01CB0189AB9AABABAB57
:10261000BCAB69A97AA98BA99CA920E030E040E86D
:102620005FE30E94250488232CF481E090E098ABBE
:102630008FA73FC069A97AA98BA99CA920E03FEF89
:102640004FE757E40E94C50318164CF56DA97EA903
:102650008FA998AD20E030E040E251E40E941F02D3
:10266000DC01CB01BC01CD010E944900DC01CB01A2
:1026700098AB8FA70FC088EC90E09EA78DA78DA583
:102680009EA50197F1F79EA78DA78FA598A9019701
:1026900098AB8FA78FA598A9009769F714C069A96F
:1026A0007AA98BA99CA90E944900DC01CB0198ABB7
:1026B0008FA78FA598A99CA78BA78BA59CA50197F1
:1026C000F1F79CA78BA781E060E041E00E94630BDB
:1026D00081E061E041E00E94630B81E062E041E063
:1026E0000E94630B83E06FEF0E94C00E88E30E949C
:1026F000E11480E090E0A0E8BFE38FA398A7A9A72A
:10270000BAA76FA178A589A59AA520E030E04AEF85
:1027100054E40E941F02DC01CB018BA39CA3ADA358
:10272000BEA36BA17CA18DA19EA120E030E040E87A
:102730005FE30E94250488232CF481E090E09AA3B3
:1027400089A33FC06BA17CA18DA19EA120E03FEF9A
:102750004FE757E40E94C50318164CF56FA178A502
:1027600089A59AA520E030E040E251E40E941F02D2
:10277000DC01CB01BC01CD010E944900DC01CB0191
:102780009AA389A30FC088EC90E098A38F8F8F8DB8
:1027900098A10197F1F798A38F8F89A19AA101972A
:1027A0009AA389A389A19AA1009769F714C06BA184
:1027B0007CA18DA19EA10E944900DC01CB019AA3BE
:1027C00089A389A19AA19E8F8D8F8D8D9E8D019752
:1027D000F1F79E8F8D8F8CE00E94E11480E090E0F5
:1027E000A0E8BFE3898F9A8FAB8FBC8F698D7A8DFC
:1027F0008B8D9C8D20E030E04AEF54E40E941F0254
:10280000DC01CB018D8B9E8BAF8BB88F6D897E8960
:102810008F89988D20E030E040E85FE30E94250436
:1028200088232CF481E090E09C8B8B8B3FC06D89DA
:102830007E898F89988D20E03FEF4FE757E40E9413
:10284000C50318164CF5698D7A8D8B8D9C8D20E013
:1028500030E040E251E40E941F02DC01CB01BC01E8
:10286000CD010E944900DC01CB019C8B8B8B0FC0FA
:1028700088EC90E09A8B898B89899A890197F1F786
:102880009A8B898B8B899C8901979C8B8B8B8B89ED
:102890009C89009769F714C06D897E898F89988D0E
:1028A0000E944900DC01CB019C8B8B8B8B899C891E
:1028B000988B8F878F8598890197F1F7988B8F87F1
:1028C00081E00E94E11480E090E0A0E0B0E48B871A
:1028D0009C87AD87BE876B857C858D859E8520E036
:1028E00030E04AEF54E40E941F02DC01CB018F83E9
:1028F0009887A987BA876F81788589859A8520E02E
:1029000030E040E85FE30E94250488232CF481E056
:1029100090E09E838D833FC06F81788589859A85FD
:1029200020E03FEF4FE757E40E94C50318164CF52F
:102930006B857C858D859E8520E030E040E251E40A
:102940000E941F02DC01CB01BC01CD010E944900A5
:10295000DC01CB019E838D830FC088EC90E09C83CB
:102960008B838B819C810197F1F79C838B838D8175
:102970009E8101979E838D838D819E81009769F74B
:1029800014C06F81788589859A850E944900DC0191
:10299000CB019E838D838D819E819A8389838981DA
:1029A0009A810197F1F79A83898382E00E94E1146A
:1029B000E8960FB6F894DEBF0FBECDBFCF91DF9182
:1029C0000895DF93CF93CDB7DEB76D970FB6F89428
:1029D000DEBF0FBECDBF8D8F81E060E040E00E9482
:1029E0008D0C81E061E040E00E948D0C83E06D8DF4
:1029F0000E94060F81E062E041E00E948D0C80E0C1
:102A000090E0A0E0B0E4898F9A8FAB8FBC8F698D86
:102A10007A8D8B8D9C8D20E030E04AEF54E40E944B
:102A20001F02DC01CB018D8B9E8BAF8BB88F6D8924
:102A30007E898F89988D20E030E040E85FE30E9436
:102A4000250488232CF481E090E09C8B8B8B3FC085
:102A50006D897E898F89988D20E03FEF4FE757E49D
:102A60000E94C50318164CF5698D7A8D8B8D9C8D4F
:102A700020E030E040E251E40E941F02DC01CB0183
:102A8000BC01CD010E944900DC01CB019C8B8B8BEA
:102A90000FC088EC90E09A8B898B89899A8901977D
:102AA000F1F79A8B898B8B899C8901979C8B8B8BF7
:102AB0008B899C89009769F714C06D897E898F89FD
:102AC000988D0E944900DC01CB019C8B8B8B8B89FC
:102AD0009C89988B8F878F8598890197F1F7988BC0
:102AE0008F8781E062E040E00E948D0C80E090E002
:102AF000A0E8BFE38B879C87AD87BE876B857C850D
:102B00008D859E8520E030E04AEF54E40E941F024C
:102B1000DC01CB018F839887A987BA876F8178857D
:102B200089859A8520E030E040E85FE30E94250433
:102B300088232CF481E090E09E838D833FC06F81D9
:102B4000788589859A8520E03FEF4FE757E40E941A
:102B5000C50318164CF56B857C858D859E8520E018
:102B600030E040E251E40E941F02DC01CB01BC01D5
:102B7000CD010E944900DC01CB019E838D830FC0F3
:102B800088EC90E09C838B838B819C810197F1F78B
:102B90009C838B838D819E8101979E838D838D8104
:102BA0009E81009769F714C06F81788589859A8521
:102BB0000E944900DC01CB019E838D838D819E8123
:102BC0009A83898389819A810197F1F79A8389830E
:102BD0006D960FB6F894DEBF0FBECDBFCF91DF91DB
:102BE0000895DF93CF93CDB7DEB76D970FB6F89406
:102BF000DEBF0FBECDBF8D8F81E060E041E00E945F
:102C00008D0C81E061E040E00E948D0C83E06D8DD1
:102C10000E94060F81E062E041E00E948D0C80E09E
:102C200090E0A0E0B0E4898F9A8FAB8FBC8F698D64
:102C30007A8D8B8D9C8D20E030E04AEF54E40E9429
:102C40001F02DC01CB018D8B9E8BAF8BB88F6D8902
:102C50007E898F89988D20E030E040E85FE30E9414
:102C6000250488232CF481E090E09C8B8B8B3FC063
:102C70006D897E898F89988D20E03FEF4FE757E47B
:102C80000E94C50318164CF5698D7A8D8B8D9C8D2D
:102C900020E030E040E251E40E941F02DC01CB0161
:102CA000BC01CD010E944900DC01CB019C8B8B8BC8
:102CB0000FC088EC90E09A8B898B89899A8901975B
:102CC000F1F79A8B898B8B899C8901979C8B8B8BD5
:102CD0008B899C89009769F714C06D897E898F89DB
:102CE000988D0E944900DC01CB019C8B8B8B8B89DA
:102CF0009C89988B8F878F8598890197F1F7988B9E
:102D00008F8781E062E040E00E948D0C80E090E0DF
:102D1000A0E8BFE38B879C87AD87BE876B857C85EA
:102D20008D859E8520E030E04AEF54E40E941F022A
:102D3000DC01CB018F839887A987BA876F8178855B
:102D400089859A8520E030E040E85FE30E94250411
:102D500088232CF481E090E09E838D833FC06F81B7
:102D6000788589859A8520E03FEF4FE757E40E94F8
:102D7000C50318164CF56B857C858D859E8520E0F6
:102D800030E040E251E40E941F02DC01CB01BC01B3
:102D9000CD010E944900DC01CB019E838D830FC0D1
:102DA00088EC90E09C838B838B819C810197F1F769
:102DB0009C838B838D819E8101979E838D838D81E2
:102DC0009E81009769F714C06F81788589859A85FF
:102DD0000E944900DC01CB019E838D838D819E8101
:102DE0009A83898389819A810197F1F79A838983EC
:102DF0006D960FB6F894DEBF0FBECDBFCF91DF91B9
:102E00000895DF93CF93CDB7DEB72E970FB6F89422
:102E1000DEBF0FBECDBF81E00E94E11480E090E0F4
:102E2000A0EAB1E48B879C87AD87BE876B857C85E4
:102E30008D859E8520E030E04AEF54E40E941F0219
:102E4000DC01CB018F839887A987BA876F8178854A
:102E500089859A8520E030E040E85FE30E94250400
:102E600088232CF481E090E09E838D833FC06F81A6
:102E7000788589859A8520E03FEF4FE757E40E94E7
:102E8000C50318164CF56B857C858D859E8520E0E5
:102E900030E040E251E40E941F02DC01CB01BC01A2
:102EA000CD010E944900DC01CB019E838D830FC0C0
:102EB00088EC90E09C838B838B819C810197F1F758
:102EC0009C838B838D819E8101979E838D838D81D1
:102ED0009E81009769F714C06F81788589859A85EE
:102EE0000E944900DC01CB019E838D838D819E81F0
:102EF0009A83898389819A810197F1F79A838983DB
:102F00002E960FB6F894DEBF0FBECDBFCF91DF91E6
:102F10000895DF93CF930F92CDB7DEB78983898170
:102F20000E94F1150F90CF91DF910895DF93CF9319
:102F300000D00F92CDB7DEB79B838A8319820EC073
:102F40008981282F30E08A819B81FC01E20FF31FE9
:102F500080810E94891789818F5F89838981282FC9
:102F600030E08A819B81FC01E20FF31F8081882F72
:102F700090E0009729F70F900F900F90CF91DF917D
:102F80000895EF92FF920F931F93DF93CF93CDB7E6
:102F9000DEB72C970FB6F894DEBF0FBECDBF6987A2
:102FA0007A878B879C871D821E821F8218861B82D0
:102FB00089859A85AB85BC850097A105B10509F087
:102FC00046C080E30E94891742C08D819E81AF81F7
:102FD000B8852AE030E040E050E0BC01CD010E941D
:102FE0007E1A7B018C0189859A85AB85BC852AE098
:102FF00030E040E050E0BC01CD010E949D1ADC01B0
:10300000CB018E0D9F1DA01FB11F8D839E83AF83AB
:10301000B8878D819E81AF81B8850097A105B105E4
:1030200021F41C828B818F5F8B8389859A85AB8588
:10303000BC852AE030E040E050E0BC01CD010E94B8
:103040009D1ADA01C90189879A87AB87BC87898570
:103050009A85AB85BC850097A105B10509F0B5CF70
:1030600025C08D819E81AF81B8852AE030E040E0A7
:1030700050E0BC01CD010E949D1ADC01CB018A8386
:103080008A81805D0E9489178D819E81AF81B8857C
:103090002AE030E040E050E0BC01CD010E949D1AE2
:1030A000DA01C9018D839E83AF83B8878D819E81AC
:1030B000AF81B8850097A105B10599F68C81882369
:1030C00061F4198206C080E30E94891789818F5FAD
:1030D000898399818B819817B0F32C960FB6F89459
:1030E000DEBF0FBECDBFCF91DF911F910F91FF903B
:1030F000EF900895DF93CF9300D000D0CDB7DEB727
:1031000089836A8389818823D9F48A818832C0F4CB
:103110008981282F30E03C832B838B819C81009711
:1031200031F02B813C812130310531F009C08A8199
:1031300080580E94E11404C08A8180540E94E114E6
:103140000F900F900F900F90CF91DF910895DF9324
:10315000CF93CDB7DEB782E06FE00E94C00E82E071
:103160006FEF0E94060FCF91DF910895DF93CF9309
:10317000CDB7DEB7A7970FB6F894DEBF0FBECDBFB1
:10318000CE0142969CA38BA3E3E8F1E0FEA3EDA35E
:10319000F0E1FFA3EDA1FEA100808DA19EA101960B
:1031A0009EA38DA3EBA1FCA100828BA19CA1019603
:1031B0009CA38BA39FA191509FA3EFA1EE2351F756
:1031C0001F8681E08AA3198AB8C082E0698940E03D
:1031D0000E948D0C84E0888BA4C09E012E5D3F4F21
:1031E00082E06889A9010E94B70D8AA1882309F0AD
:1031F00095C08889882F90E09C01245030408989AF
:10320000482F50E0220F331F220F331FCE010196AB
:10321000820F931F840F951FFC01719680818F8709
:1032200008C09E012E5D3F4F82E06889A9010E947F
:10323000B70D8AA18823A9F380E090E0A8E4B2E466
:103240008B879C87AD87BE876B857C858D859E85AA
:1032500020E030E04AEF54E40E941F02DC01CB0181
:103260008F839887A987BA876F81788589859A85A2
:1032700020E030E040E85FE30E94250488232CF43E
:1032800081E090E09E838D833FC06F817885898542
:103290009A8520E03FEF4FE757E40E94C5031816D8
:1032A0004CF56B857C858D859E8520E030E040E285
:1032B00051E40E941F02DC01CB01BC01CD010E9440
:1032C0004900DC01CB019E838D830FC088EC90E028
:1032D0009C838B838B819C810197F1F79C838B83EB
:1032E0008D819E8101979E838D838D819E81009724
:1032F00069F714C06F81788589859A850E94490095
:10330000DC01CB019E838D838D819E819A8389838D
:1033100089819A810197F1F79A83898388898F5FE0
:10332000888B8889883008F458CF82E0698941E029
:103330000E948D0C89898F5F898B8989843008F47C
:1033400044CF8F85A7960FB6F894DEBF0FBECDBFD2
:10335000CF91DF910895DF93CF9300D00F92CDB737
:10336000DEB78A836B8319828A816B8140E00E9479
:10337000630B8A816B8141E00E948D0C8A816B8195
:103380009E012F5F3F4FA9010E94B70D89810F90C9
:103390000F900F90CF91DF910895DF93CF9300D0DE
:1033A0000F92CDB7DEB78A836B83198289810F9024
:1033B0000F900F90CF91DF910895DF93CF93CDB70A
:1033C000DEB72F970FB6F894DEBF0FBECDBF81E0FA
:1033D0008F870E94E7120E94A71880E690E00E9463
:1033E000961780E090E0AAE7B4E48B879C87AD87CE
:1033F000BE876B857C858D859E8520E030E04AEF19
:1034000054E40E941F02DC01CB018F839887A987B7
:10341000BA876F81788589859A8520E030E040E819
:103420005FE30E94250488232CF481E090E09E83D2
:103430008D833FC06F81788589859A8520E03FEF35
:103440004FE757E40E94C50318164CF56B857C8541
:103450008D859E8520E030E040E251E40E941F020D
:10346000DC01CB01BC01CD010E944900DC01CB0194
:103470009E838D830FC088EC90E09C838B838B812F
:103480009C810197F1F79C838B838D819E810197AD
:103490009E838D838D819E81009769F714C06F8113
:1034A000788589859A850E944900DC01CB019E833D
:1034B0008D838D819E819A83898389819A810197E9
:1034C000F1F79A8389830E9401170E94B6188F87AB
:1034D0008F85882389F080E060E00E947A1880E779
:1034E00090E00E9496178F85882F90E0A0E0B0E0D2
:1034F000BC01CD010E94C1171F86E7CF629FD0019A
:10350000739FF001829FE00DF11D649FE00DF11D9E
:10351000929FF00D839FF00D749FF00D659FF00D4D
:103520009927729FB00DE11DF91F639FB00DE11D3A
:10353000F91FBD01CF0111240895A1E21A2EAA1B83
:10354000BB1BFD010DC0AA1FBB1FEE1FFF1FA21753
:10355000B307E407F50720F0A21BB30BE40BF50B50
:10356000661F771F881F991F1A9469F760957095D9
:10357000809590959B01AC01BD01CF0108952F92DC
:103580003F924F925F926F927F928F929F92AF92F3
:10359000BF92CF92DF92EF92FF920F931F93CF9340
:1035A000DF93CDB7DEB7CA1BDB0B0FB6F894DEBFD7
:1035B0000FBECDBF09942A88398848885F846E84FD
:1035C0007D848C849B84AA84B984C884DF80EE8047
:1035D000FD800C811B81AA81B981CE0FD11D0FB650
:1035E000F894DEBF0FBECDBFED010895F894FFCF74
:1035F00057656C636F6D6520656C736179656400F8
:103600007468652076616C75653D000000000000FF
:103610000000000001020203030303040404040485
:10362000040404050505050505050505050505054D
:10363000050505060606060606060606060606062D
:10364000060606060606060606060606060606061A
:1036500006060607070707070707070707070707FD
:1036600007070707070707070707070707070707EA
:1036700007070707070707070707070707070707DA
:1036800007070707070707070707070707070707CA
:1036900007070708080808080808080808080808AD
:1036A000080808080808080808080808080808089A
:1036B000080808080808080808080808080808088A
:1036C000080808080808080808080808080808087A
:1036D000080808080808080808080808080808086A
:1036E000080808080808080808080808080808085A
:1036F000080808080808080808080808080808084A
:103700000808080808080808080808080808080839
:103710000808080102030405060708090A0B0C0D36
:043720000E0F100078
:00000001FF
