:100000000C942A000C94EE0B0C94210C0C94540CC0
:100010000C9465090C9432090C9447000C94CC089C
:100020000C94FF080C9499080C9466080C943308FF
:100030000C9447000C9447000C9447000C94470024
:100040000C945F100C9447000C9447000C944700EC
:100050000C94470011241FBECFE5D8E0DEBFCDBF12
:1000600011E0A0E6B0E0E4EEF0E302C005900D92EE
:10007000A837B107D9F711E0A8E7B1E001C01D9298
:10008000AA38B107E1F70E94D3160C9470180C94AB
:100090000000EF92FF920F931F937B018C0120E0F1
:1000A00030E040E05FE40E94F50388238CF0C80153
:1000B000B70120E030E040E05FE40E94C1010E940F
:1000C00055049B01AC01205030404040504806C0D0
:1000D000C801B7010E9455049B01AC01B901CA01D6
:1000E0001F910F91FF90EF900895A0E0B0E0EBE733
:1000F000F0E00C943918DC012B01FA019C9192304C
:1001000008F439C1EB018881823008F433C194309E
:1001100069F4843009F02FC111969C91119789815F
:10012000981709F428C1A0E7B0E025C1843009F48C
:1001300021C18230A9F4923009F01DC19A01AD01AC
:1001400088E0EA010990AE01E90109929E0181501F
:10015000C1F7E201898111969C918923818308C1AD
:10016000923009F407C112962D903C901397EB0141
:100170008A819B811496AD90BD90CD90DC901797AD
:10018000EC80FD800E811F819101281B390BB90184
:1001900037FF04C066277727621B730B6032710537
:1001A0000CF061C0121613066CF537014801062EDB
:1001B00004C096948794779467940A94D2F721E0C8
:1001C00030E040E050E004C0220F331F441F551FB1
:1001D0006A95D2F721503040404050402E213F21B7
:1001E00040235123211531054105510521F021E01E
:1001F00030E040E050E079018A01E628F72808293C
:1002000019293CC0232BD1F1260E371E350146019A
:10021000062E04C096948794779467940A94D2F734
:1002200021E030E040E050E004C0220F331F441FC3
:10023000551F6A95D2F721503040404050402A2146
:100240003B214C215D21211531054105510521F04E
:1002500021E030E040E050E059016A01A628B728CB
:10026000C828D9280BC0821593052CF01C01AA249C
:10027000BB24650103C0EE24FF24870111969C91E5
:10028000D20111968C91981709F445C0992339F041
:10029000A80197012A193B094C095D0906C0A6016E
:1002A00095012E193F09400B510B57FD08C01182D3
:1002B0003382228224833583468357831DC081E0A5
:1002C00081833382228288279927DC01821B930B4A
:1002D000A40BB50B84839583A683B7830DC0220F2F
:1002E000331F441F551F24833583468357838281E0
:1002F000938101979383828324813581468157813D
:10030000DA01C9010197A109B1098F5F9F4FAF4F72
:10031000BF4328F30BC0918333822282EA0CFB1C7B
:100320000C1D1D1DE482F5820683178383E0808304
:10033000248135814681578157FF1AC0C901AA27F8
:1003400097FDA095BA2F81709070A070B0705695EF
:10035000479537952795822B932BA42BB52B848318
:100360009583A683B7838281938101969383828349
:10037000DF0101C0D201CD01CDB7DEB7E2E10C94BF
:100380005518A0E2B0E0E7ECF1E00C944518698361
:100390007A838B839C832D833E834F835887E9E048
:1003A000EE2EF12CEC0EFD1ECE010196B7010E943F
:1003B00046068E010F5E1F4FCE010596B8010E94C2
:1003C00046068A8991E089278A8BC701B801AE0168
:1003D000475E5F4F0E9475000E947105A096E6E09F
:1003E0000C946118A0E2B0E0E8EFF1E00C9445183D
:1003F00069837A838B839C832D833E834F835887C5
:10040000F9E0EF2EF12CEC0EFD1ECE010196B701A6
:100410000E9446068E010F5E1F4FCE010596B80161
:100420000E944606C701B801AE01475E5F4F0E94B9
:1004300075000E947105A096E6E00C946118A0E298
:10044000B0E0E5E2F2E00C94391869837A838B839B
:100450009C832D833E834F835887CE010196BE0136
:10046000675F7F4F0E944606CE010596BE016F5E14
:100470007F4F0E9446069985923088F089898230A4
:10048000C8F0943019F4823051F404C0843029F457
:10049000923081F480E790E0C6C0923049F420E0C9
:1004A0009A858A89981321E02A87CE010996BBC0D4
:1004B000823049F420E09A858A89981321E02A8BBA
:1004C000CE014196B0C02D843E844F8458886D88FB
:1004D0007E888F88988CEE24FF248701AA24BB2471
:1004E000650140E050E060E070E0E0E0F0E0C10174
:1004F00081709070892BE9F0E60CF71C081D191D1E
:100500009A01AB012A0D3B1D4C1D5D1D80E090E062
:10051000A0E0B0E0E614F7040805190520F481E036
:1005200090E0A0E0B0E0BA01A901480F591F6A1F8E
:100530007B1FAA0CBB1CCC1CDD1C97FE08C081E0F5
:1005400090E0A0E0B0E0A82AB92ACA2ADB2A3196B6
:10055000E032F10549F0660C771C881C991C569412
:10056000479437942794C3CFFA85EA892B893C892D
:100570008B859C85280F391F2E5F3F4F17C0CA01FE
:1005800081709070892B61F016950795F794E79428
:1005900080E090E0A0E0B0E8E82AF92A0A2B1B2BC3
:1005A00076956795579547952F5F3F4F77FDE7CF36
:1005B0000CC0440F551F661F771F17FD4160EE0CDE
:1005C000FF1C001F111F21503040403090E05907A0
:1005D00090E0690790E4790760F32B8F3C8FDB0193
:1005E000CA018F779070A070B07080349105A1051A
:1005F000B10561F447FD0AC0E114F10401051105DC
:1006000029F0405C5F4F6F4F7F4F40781A8EFE1786
:1006100011F081E08A8F4D8F5E8F6F8F78A383E01A
:10062000898FCE0149960E947105A096E2E10C9453
:100630005518A8E1B0E0EFE1F3E00C9441186983AC
:100640007A838B839C832D833E834F835887B9E0C5
:10065000EB2EF12CEC0EFD1ECE010196B7010E948F
:1006600046068E010F5E1F4FCE010596B8010E940F
:1006700046062985223008F47EC03989323010F4CC
:10068000B8017CC08A859A8989278A87243011F02D
:10069000223031F4231709F06EC060E770E06EC0BD
:1006A000343039F41D861E861F86188A1C861B86E8
:1006B00004C0323021F484E08987B7015FC02B8504
:1006C0003C858B899C89281B390B3C872B87ED84C3
:1006D000FE840F851889AD88BE88CF88D88CEA142F
:1006E000FB040C051D0540F4EE0CFF1C001F111F40
:1006F000215030403C872B8720E030E040E050E044
:1007000080E090E0A0E0B0E460E070E0EA14FB0478
:100710000C051D0540F0282B392B4A2B5B2BEA18C2
:10072000FB080C091D09B695A79597958795EE0CC2
:10073000FF1C001F111F6F5F7F4F6F31710531F775
:10074000DA01C9018F779070A070B0708034910584
:10075000A105B10561F427FD0AC0E114F10401050A
:10076000110529F0205C3F4F4F4F5F4F20782D87B8
:100770003E874F87588BBE01675F7F4FCB010E943A
:1007800071056896EAE00C945D18A8E1B0E0EBEC26
:10079000F3E00C94451869837A838B839C832D83C3
:1007A0003E834F83588789E0E82EF12CEC0EFD1E26
:1007B000CE010196B7010E9446068E010F5E1F4FC3
:1007C000CE010596B8010E9446068985823040F028
:1007D0008989823028F0C701B8010E94BE0601C095
:1007E0008FEF6896E6E00C946118A8E1B0E0EBEFBB
:1007F000F3E00C94451869837A838B839C832D8363
:100800003E834F83588789E0E82EF12CEC0EFD1EC5
:10081000CE010196B7010E9446068E010F5E1F4F62
:10082000CE010596B8010E9446068985823040F0C7
:100830008989823028F0C701B8010E94BE0601C034
:100840008FEF6896E6E00C946118A8E1B0E0EBE267
:10085000F4E00C94451869837A838B839C832D8301
:100860003E834F83588789E0E82EF12CEC0EFD1E65
:10087000CE010196B7010E9446068E010F5E1F4F02
:10088000CE010596B8010E9446068985823040F067
:100890008989823028F0C701B8010E94BE0601C0D4
:1008A00081E06896E6E00C946118ACE0B0E0EBE51E
:1008B000F4E00C94491869837A838B839C83CE017E
:1008C0000196BE016B5F7F4F0E9446068D8182308C
:1008D00061F1823050F1843021F48E81882351F10E
:1008E0002EC02F81388537FD20C06E812F31310514
:1008F0001CF06623F9F023C08EE190E0821B930B7D
:1009000029853A854B855C8504C056954795379572
:1009100027958A95D2F76623B1F05095409530958A
:1009200021953F4F4F4F5F4F0EC020E030E040E039
:1009300050E009C02FEF3FEF4FEF5FE704C020E02A
:1009400030E040E050E8B901CA012C96E2E00C9496
:100950006518A8E0B0E0EFEAF4E00C9441187B01E0
:100960008C01611571058105910519F482E0898377
:1009700060C083E089838EE1C82ED12CDC82CB82DB
:10098000ED82FE820F831887C801B7010E942205FD
:10099000FC013197F7FF3BC0222733272E1B3F0B6B
:1009A00057016801022E04C0D694C794B794A79447
:1009B0000A94D2F740E050E060E070E081E090E01F
:1009C000A0E0B0E004C0880F991FAA1FBB1F2A95A2
:1009D000D2F70197A109B1098E219F21A023B1234C
:1009E0000097A105B10521F041E050E060E070E022
:1009F0004A295B296C297D294D835E836F83788723
:100A00008EE190E08E1B9F0B9C838B8312C03097EE
:100A100081F00E2E04C0EE0CFF1C001F111F0A9463
:100A2000D2F7ED82FE820F831887CE1ADF0ADC82AE
:100A3000CB821A82CE0101960E9471052896EAE0C7
:100A40000C945D18EF92FF920F931F937B018C0122
:100A500080E0E81680E0F80681E0080780E01807EB
:100A600088F48FEFE816F1040105110531F028F044
:100A700088E090E0A0E0B0E017C080E090E0A0E067
:100A8000B0E012C080E0E81680E0F80680E00807D9
:100A900081E0180728F088E190E0A0E0B0E004C011
:100AA00080E190E0A0E0B0E020E230E040E050E003
:100AB000281B390B4A0B5B0B04C016950795F7945E
:100AC000E7948A95D2F7F701E858FF4F8081281BF9
:100AD000310941095109C9011F910F91FF90EF9010
:100AE0000895DF92EF92FF920F931F93FC01E48031
:100AF000F58006811781D1808081823048F480E0C2
:100B000090E0A0E1B0E0E82AF92A0A2B1B2BA5C04F
:100B1000843009F49FC0823021F4EE24FF24870141
:100B200005C0E114F1040105110519F4E0E0F0E05D
:100B300096C0628173819FEF623879070CF05BC0C9
:100B400022E83FEF261B370B2A3131052CF020E03D
:100B500030E040E050E02AC0B801A701022E04C0F6
:100B600076956795579547950A94D2F781E090E07E
:100B7000A0E0B0E004C0880F991FAA1FBB1F2A95F0
:100B8000D2F70197A109B1098E219F21A023B1239A
:100B90000097A105B10521F081E090E0A0E0B0E070
:100BA0009A01AB01282B392B4A2B5B2BDA01C901A7
:100BB0008F779070A070B07080349105A105B10559
:100BC00039F427FF09C0205C3F4F4F4F5F4F04C0EF
:100BD000215C3F4F4F4F5F4FE0E0F0E02030A0E05E
:100BE0003A07A0E04A07A0E45A0710F0E1E0F0E07D
:100BF00079018A0127C06038710564F5FB01E1586D
:100C0000FF4FD801C7018F779070A070B07080340B
:100C10009105A105B10539F4E7FE0DC080E490E02F
:100C2000A0E0B0E004C08FE390E0A0E0B0E0E80E08
:100C3000F91E0A1F1B1F17FF05C016950795F7948D
:100C4000E794319687E016950795F794E7948A958F
:100C5000D1F705C0EE24FF248701EFEFF0E06E2FFF
:100C6000679566276795902F9F77D794DD24D79453
:100C70008E2F8695492F462B582F5D29B701CA0123
:100C80001F910F91FF90EF90DF900895FC01DB0121
:100C9000408151812281622F6F7770E0221F2227CD
:100CA000221F9381892F880F822B282F30E0991FD4
:100CB0009927991F11969C93119721153105A9F534
:100CC000411551056105710511F482E037C082E8D4
:100CD0009FEF13969C938E9312979A01AB0167E056
:100CE000220F331F441F551F6A95D1F783E08C9361
:100CF0000DC0220F331F441F551F12968D919C91DA
:100D00001397019713969C938E931297203080E04F
:100D1000380780E0480780E4580758F314962D936D
:100D20003D934D935C93179708952F3F310579F4C8
:100D3000411551056105710519F484E08C930895FE
:100D400064FF03C081E08C9312C01C9210C02F5727
:100D5000304013963C932E93129783E08C9387E058
:100D6000440F551F661F771F8A95D1F7706414963C
:100D70004D935D936D937C93179708951F93DC01BA
:100D8000FB019C91923008F447C08081823008F4C6
:100D900043C0943051F411961C91843099F58181AF
:100DA000682F70E0611B71093FC0843021F09230E0
:100DB00031F48230B9F18181882389F12DC01196F7
:100DC0001C9111978230F1F081811817D9F4129695
:100DD0002D913C911397828193818217930794F010
:100DE00028173907BCF014968D919D910D90BC91F8
:100DF000A02D2481358146815781281739074A075C
:100E00005B0718F4112341F00AC082179307A40767
:100E1000B50740F4112319F061E070E005C06FEFF1
:100E20007FEF02C060E070E0CB011F910895DF9377
:100E3000CF930F92CDB7DEB71982E0E4F0E01082D5
:100E4000E9E2F0E083E38083AAE2B0E0EAE2F0E0E6
:100E5000808180618C93AAE2B0E0EAE2F0E08081D8
:100E600088608C93AAE2B0E0EAE2F0E080818B7FB8
:100E70008C93898184608983898182608983898157
:100E80008068898389818F7B898389818F7D89832C
:100E900089818F7E89838981877F898389818E7FFC
:100EA0008983E0E4F0E0898180830F90CF91DF9126
:100EB0000895DF93CF930F92CDB7DEB78983EBE22E
:100EC000F0E08081829586958770882F90E0817010
:100ED00090700097A1F3ABE2B0E0EBE2F0E080812C
:100EE00080628C93ECE2F0E0898180830F90CF9157
:100EF000DF910895DF93CF930F92CDB7DEB71982BC
:100F0000EBE2F0E080818823DCF7ABE2B0E0EBE2DB
:100F1000F0E0808180688C93ECE2F0E0808189834E
:100F200089810F90CF91DF9108950F931F93DF93E5
:100F3000CF930F92CDB7DEB719820CC08981082FED
:100F400010E00E947A07F801EA57FE4F80838981FA
:100F50008F5F89838981843088F386E891E00F90E0
:100F6000CF91DF911F910F910895DF93CF9300D020
:100F7000CDB7DEB79A83898389819A81909379016D
:100F8000809378010F900F90CF91DF910895DF93B8
:100F9000CF9300D0CDB7DEB79A83898389819A81B8
:100FA00090937901809378010F900F90CF91DF910A
:100FB0000895DF93CF9300D0CDB7DEB79A838983AE
:100FC00089819A8190937D0180937C010F900F908D
:100FD000CF91DF910895DF93CF9300D0CDB7DEB7E7
:100FE0009A83898389819A8190937D0180937C0182
:100FF0000F900F90CF91DF910895DF93CF9300D0A2
:10100000CDB7DEB79A83898389819A8190937D01D8
:1010100080937C010F900F90CF91DF910895DF9323
:10102000CF9300D0CDB7DEB79A83898389819A8127
:1010300090937B0180937A010F900F90CF91DF9175
:101040000895DF93CF9300D0CDB7DEB79A8389831D
:1010500089819A8190937B0180937A010F900F9000
:10106000CF91DF9108951F920F920FB60F92112426
:101070002F933F934F935F936F937F938F939F93A0
:10108000AF93BF93EF93FF93DF93CF93CDB7DEB7CB
:101090008091780190917901009729F0E091780191
:1010A000F09179010995CF91DF91FF91EF91BF9177
:1010B000AF919F918F917F916F915F914F913F91F0
:1010C0002F910F900FBE0F901F9018951F920F92A7
:1010D0000FB60F9211242F933F934F935F936F930B
:1010E0007F938F939F93AF93BF93EF93FF93DF9380
:1010F000CF93CDB7DEB780917801909179010097B9
:1011000029F0E0917801F09179010995CF91DF9173
:10111000FF91EF91BF91AF919F918F917F916F91CF
:101120005F914F913F912F910F900FBE0F901F90A5
:1011300018951F920F920FB60F9211242F933F9381
:101140004F935F936F937F938F939F93AF93BF93CF
:10115000EF93FF93DF93CF93CDB7DEB780917C0100
:1011600090917D01009729F0E0917C01F0917D0143
:101170000995CF91DF91FF91EF91BF91AF919F9131
:101180008F917F916F915F914F913F912F910F9030
:101190000FBE0F901F9018951F920F920FB60F92CF
:1011A00011242F933F934F935F936F937F938F936C
:1011B0009F93AF93BF93EF93FF93DF93CF93CDB7FD
:1011C000DEB780917C0190917D01009729F0E0913C
:1011D0007C01F0917D010995CF91DF91FF91EF9115
:1011E000BF91AF919F918F917F916F915F914F913F
:1011F0003F912F910F900FBE0F901F9018951F9247
:101200000F920FB60F9211242F933F934F935F933A
:101210006F937F938F939F93AF93BF93EF93FF93BE
:10122000DF93CF93CDB7DEB780917C0190917D01A4
:10123000009729F0E0917C01F0917D010995CF9113
:10124000DF91FF91EF91BF91AF919F918F917F912E
:101250006F915F914F913F912F910F900FBE0F9023
:101260001F9018951F920F920FB60F9211242F9373
:101270003F934F935F936F937F938F939F93AF931E
:10128000BF93EF93FF93DF93CF93CDB7DEB78091FA
:101290007A0190917B01009729F0E0917A01F09119
:1012A0007B010995CF91DF91FF91EF91BF91AF91B4
:1012B0009F918F917F916F915F914F913F912F916E
:1012C0000F900FBE0F901F9018951F920F920FB6A0
:1012D0000F9211242F933F934F935F936F937F93BC
:1012E0008F939F93AF93BF93EF93FF93DF93CF932E
:1012F000CDB7DEB780917A0190917B01009729F0FC
:10130000E0917A01F0917B010995CF91DF91FF91F6
:10131000EF91BF91AF919F918F917F916F915F916D
:101320004F913F912F910F900FBE0F901F901895E6
:10133000DF93CF93CDB7DEB7A3E5B0E0E3E5F0E010
:10134000808188608C93A3E5B0E0E3E5F0E08081E4
:1013500080648C93A3E5B0E0E3E5F0E080818062F7
:101360008C93A3E5B0E0E3E5F0E080818F7E8C9381
:10137000A3E5B0E0E3E5F0E0808184608C93A3E531
:10138000B0E0E3E5F0E080818D7F8C93A3E5B0E0F1
:10139000E3E5F0E080818E7F8C93CF91DF9108951B
:1013A000DF93CF93CDB7DEB7E6E4F0E081E792E0DC
:1013B00091838083AEE4B0E0EEE4F0E0808184606D
:1013C0008C93AEE4B0E0EEE4F0E080818D7F8C930E
:1013D000AEE4B0E0EEE4F0E080818E7F8C93AFE489
:1013E000B0E0EFE4F0E080818E7F8C93AFE4B0E07A
:1013F000EFE4F0E0808182608C93AEE4B0E0EEE454
:10140000F0E0808188608C93AEE4B0E0EEE4F0E040
:10141000808180618C93AFE4B0E0EFE4F0E0808104
:101420008F7B8C93AFE4B0E0EFE4F0E080818068E4
:101430008C93AFE4B0E0EFE4F0E080818F7E8C939A
:10144000AFE4B0E0EFE4F0E0808180628C93CF9174
:10145000DF910895DF93CF93CDB7DEB7A5E4B0E079
:10146000E5E4F0E0808188608C93A5E4B0E0E5E4F9
:10147000F0E0808180648C93A5E4B0E0E5E4F0E0E6
:10148000808180628C93A5E4B0E0E5E4F0E08081A7
:101490008F7E8C93A5E4B0E0E5E4F0E08081846089
:1014A0008C93A5E4B0E0E5E4F0E080818D7F8C933F
:1014B000A5E4B0E0E5E4F0E080818E7F8C93CF91ED
:1014C000DF910895DF93CF93CDB7DEB7A9E5B0E004
:1014D000E9E5F0E0808180628C93CF91DF910895FF
:1014E0000F931F93DF93CF9300D000D0CDB7DEB71B
:1014F00069837A838B839C8369817A818B819C81C8
:1015000020E030E048EC52E40E941903DC01CB01FA
:1015100089839A83AB83BC830CE510E069817A816F
:101520008B819C8120E030E04FE753E40E941F0252
:10153000DC01CB01BC01CD0120E030E040E85FE3FD
:101540000E94C101DC01CB01BC01CD010E94490018
:10155000DC01CB01F80180830F900F900F900F906A
:10156000CF91DF911F910F9108950F931F93DF93F8
:10157000CF9300D000D0CDB7DEB769837A838B8359
:101580009C8369817A818B819C8120E030E048ECEA
:1015900052E40E941903DC01CB0189839A83AB8357
:1015A000BC830AE410E0E6E4F0E080819181CC01A4
:1015B000A0E0B0E0BC01CD010E94A904DC01CB0198
:1015C000BC01CD0129813A814B815C810E941F02BF
:1015D000DC01CB01BC01CD0120E030E040E85FE35D
:1015E0000E94C101DC01CB01BC01CD010E94490078
:1015F000DC01CB01F801918380830F900F900F9055
:101600000F90CF91DF911F910F9108950F931F932A
:10161000DF93CF9300D000D0CDB7DEB769837A8354
:101620008B839C8369817A818B819C8120E030E06F
:1016300048EC52E40E941903DC01CB0189839A83B0
:10164000AB83BC8308E410E0E6E4F0E080819181A4
:10165000CC01A0E0B0E0BC01CD010E94A904DC01F6
:10166000CB01BC01CD0129813A814B815C810E9473
:101670001F02DC01CB01BC01CD0120E030E040E8DD
:101680005FE30E94C101DC01CB01BC01CD010E94DE
:101690004900DC01CB01F801918380830F900F900A
:1016A0000F900F90CF91DF911F910F9108950F939D
:1016B0001F93DF93CF9300D000D0CDB7DEB76983FF
:1016C0007A838B839C8369817A818B819C8120E0E2
:1016D00030E048EC52E40E941903DC01CB0189831D
:1016E0009A83AB83BC8303E410E069817A818B81A8
:1016F0009C8120E030E04FE753E40E941F02DC01B0
:10170000CB01BC01CD0120E030E040E85FE30E9466
:10171000C101DC01CB01BC01CD010E944900DC010B
:10172000CB01F80180830F900F900F900F90CF9115
:10173000DF911F910F910895DF93CF93CDB7DEB75F
:10174000AFE5B0E0EFE5F0E0808180688C93CF9169
:10175000DF910895DF93CF93CDB7DEB7AFE5B0E06B
:10176000EFE5F0E080818F778C93CF91DF91089542
:10177000DF93CF9300D0CDB7DEB79A838983898179
:101780009A8190937F0180937E010F900F90CF916B
:10179000DF910895DF93CF9300D0CDB7DEB79A8362
:1017A000898389819A8190938101809380010F9030
:1017B0000F90CF91DF910895DF93CF9300D0CDB7F5
:1017C000DEB79A83898389819A819093830180937C
:1017D00082010F900F90CF91DF9108951F920F9289
:1017E0000FB60F9211242F933F934F935F936F93F4
:1017F0007F938F939F93AF93BF93EF93FF93DF9369
:10180000CF93CDB7DEB780917E0190917F01009795
:1018100029F0E0917E01F0917F010995CF91DF9150
:10182000FF91EF91BF91AF919F918F917F916F91B8
:101830005F914F913F912F910F900FBE0F901F908E
:1018400018951F920F920FB60F9211242F933F936A
:101850004F935F936F937F938F939F93AF93BF93B8
:10186000EF93FF93DF93CF93CDB7DEB780918001E5
:1018700090918101009729F0E0918001F091810120
:101880000995CF91DF91FF91EF91BF91AF919F911A
:101890008F917F916F915F914F913F912F910F9019
:1018A0000FBE0F901F9018951F920F920FB60F92B8
:1018B00011242F933F934F935F936F937F938F9355
:1018C0009F93AF93BF93EF93FF93DF93CF93CDB7E6
:1018D000DEB78091820190918301009729F0E09119
:1018E0008201F09183010995CF91DF91FF91EF91F2
:1018F000BF91AF919F918F917F916F915F914F9128
:101900003F912F910F900FBE0F901F901895DF936E
:10191000CF93CDB7DEB7ABE5B0E0EBE5F0E080818B
:1019200080648C93A5E5B0E0E5E5F0E0808181601E
:101930008C93A5E5B0E0E5E5F0E080818D7F8C93A8
:10194000CF91DF910895DF93CF93CDB7DEB7ABE5AD
:10195000B0E0EBE5F0E0808180688C93A5E5B0E035
:10196000E5E5F0E080818B7F8C93A5E5B0E0E5E5CF
:10197000F0E0808188608C93CF91DF910895DF93B0
:10198000CF93CDB7DEB7ABE5B0E0EBE5F0E080811B
:1019900080628C93A4E5B0E0E4E5F0E080818F7B89
:1019A0008C93CF91DF910895DF93CF93CDB7DEB7BE
:1019B00027970FB6F894DEBF0FBECDBF89836A8329
:1019C0004B838B81813009F06FC08981282F30E0F3
:1019D0003F832E838E819F818130910549F12E8135
:1019E0003F81223031052CF48E819F81009761F078
:1019F000D2C02E813F812230310571F18E819F81CD
:101A000083309105E9F1C7C0AAE3B0E0EAE3F0E072
:101A10008081482F8A81282F30E081E090E0022EDB
:101A200002C0880F991F0A94E2F7842B8C93B3C0ED
:101A3000A7E3B0E0E7E3F0E08081482F8A81282F18
:101A400030E081E090E0022E02C0880F991F0A94D6
:101A5000E2F7842B8C939FC0A4E3B0E0E4E3F0E0D2
:101A60008081482F8A81282F30E081E090E0022E8B
:101A700002C0880F991F0A94E2F7842B8C938BC0C5
:101A8000A1E3B0E0E1E3F0E08081482F8A81282FD4
:101A900030E081E090E0022E02C0880F991F0A9486
:101AA000E2F7842B8C9377C08B81882309F073C075
:101AB0008981282F30E03D832C838C819D8181306A
:101AC000910559F12C813D81223031052CF48C8116
:101AD0009D81009769F05FC02C813D8122303105E6
:101AE00089F18C819D818330910509F440C053C0F8
:101AF000AAE3B0E0EAE3F0E08081482F8A81282F52
:101B000030E081E090E0022E02C0880F991F0A9415
:101B1000E2F7809584238C933EC0A7E3B0E0E7E32F
:101B2000F0E08081482F8A81282F30E081E090E02A
:101B3000022E02C0880F991F0A94E2F78095842331
:101B40008C9329C0A4E3B0E0E4E3F0E08081482F67
:101B50008A81282F30E081E090E0022E02C0880FB9
:101B6000991F0A94E2F7809584238C9314C0A1E313
:101B7000B0E0E1E3F0E08081482F8A81282F30E057
:101B800081E090E0022E02C0880F991F0A94E2F7CC
:101B9000809584238C9327960FB6F894DEBF0FBEF2
:101BA000CDBFCF91DF910895DF93CF93CDB7DEB74F
:101BB00027970FB6F894DEBF0FBECDBF89836A8327
:101BC0004B838B81813009F06FC08981282F30E0F1
:101BD0003F832E838E819F818130910549F12E8133
:101BE0003F81223031052CF48E819F81009761F076
:101BF000D2C02E813F812230310571F18E819F81CB
:101C000083309105E9F1C7C0ABE3B0E0EBE3F0E06E
:101C10008081482F8A81282F30E081E090E0022ED9
:101C200002C0880F991F0A94E2F7842B8C93B3C0EB
:101C3000A8E3B0E0E8E3F0E08081482F8A81282F14
:101C400030E081E090E0022E02C0880F991F0A94D4
:101C5000E2F7842B8C939FC0A5E3B0E0E5E3F0E0CE
:101C60008081482F8A81282F30E081E090E0022E89
:101C700002C0880F991F0A94E2F7842B8C938BC0C3
:101C8000A2E3B0E0E2E3F0E08081482F8A81282FD0
:101C900030E081E090E0022E02C0880F991F0A9484
:101CA000E2F7842B8C9377C08B81882309F073C073
:101CB0008981282F30E03D832C838C819D81813068
:101CC000910559F12C813D81223031052CF48C8114
:101CD0009D81009769F05FC02C813D8122303105E4
:101CE00089F18C819D818330910509F440C053C0F6
:101CF000ABE3B0E0EBE3F0E08081482F8A81282F4E
:101D000030E081E090E0022E02C0880F991F0A9413
:101D1000E2F7809584238C933EC0A8E3B0E0E8E32B
:101D2000F0E08081482F8A81282F30E081E090E028
:101D3000022E02C0880F991F0A94E2F7809584232F
:101D40008C9329C0A5E3B0E0E5E3F0E08081482F63
:101D50008A81282F30E081E090E0022E02C0880FB7
:101D6000991F0A94E2F7809584238C9314C0A2E310
:101D7000B0E0E2E3F0E08081482F8A81282F30E054
:101D800081E090E0022E02C0880F991F0A94E2F7CA
:101D9000809584238C9327960FB6F894DEBF0FBEF0
:101DA000CDBFCF91DF910895DF93CF9300D000D0C6
:101DB000CDB7DEB789836A838981282F30E03C83E1
:101DC0002B838B819C8181309105D1F02B813C81CB
:101DD000223031052CF48B819C81009761F01EC06C
:101DE0002B813C812230310581F08B819C818330B5
:101DF000910581F013C0EAE3F0E08A8180830EC090
:101E0000E7E3F0E08A81808309C0E4E3F0E08A81BF
:101E1000808304C0E1E3F0E08A8180830F900F901B
:101E20000F900F90CF91DF910895DF93CF9300D063
:101E300000D0CDB7DEB789836A838981282F30E04F
:101E40003C832B838B819C8181309105D1F02B8148
:101E50003C81223031052CF48B819C81009761F00C
:101E60001EC02B813C812230310581F08B819C8109
:101E70008330910581F013C0EBE3F0E08A81808329
:101E80000EC0E8E3F0E08A81808309C0E5E3F0E07A
:101E90008A81808304C0E2E3F0E08A8180830F902E
:101EA0000F900F900F90CF91DF910895DF93CF9314
:101EB00000D000D00F92CDB7DEB78A836B83198232
:101EC0008A81282F30E03D832C834C815D81413015
:101ED000510541F18C819D818230910534F42C8132
:101EE0003D812115310561F052C04C815D81423048
:101EF000510551F18C819D8183309105B9F147C025
:101F0000E9E3F0E08081282F30E08B81882F90E09A
:101F1000A90102C0559547958A95E2F7CA018170DB
:101F2000898335C0E6E3F0E08081282F30E08B81A3
:101F3000882F90E0A90102C0559547958A95E2F750
:101F4000CA018170898323C0E3E3F0E08081282FF8
:101F500030E08B81882F90E0A90102C0559547950C
:101F60008A95E2F7CA018170898311C0E0E3F0E04D
:101F70008081282F30E08B81882F90E0A90102C05A
:101F8000559547958A95E2F7CA01817089838981C1
:101F90000F900F900F900F900F90CF91DF910895B9
:101FA000DF93CF9300D000D0CDB7DEB789836A83AB
:101FB0008981282F30E03C832B838B819C81813069
:101FC000910549F12B813C81223031052CF48B8124
:101FD0009C81009761F05AC02B813C8122303105F1
:101FE00071F18B819C8183309105E9F14FC0ABE3A6
:101FF000B0E0EBE3F0E08081482F8A81282F30E0C9
:1020000081E090E0022E02C0880F991F0A94E2F747
:1020100084278C933BC0A8E3B0E0E8E3F0E0808144
:10202000482F8A81282F30E081E090E0022E02C004
:10203000880F991F0A94E2F784278C9327C0A5E3A1
:10204000B0E0E5E3F0E08081482F8A81282F30E07E
:1020500081E090E0022E02C0880F991F0A94E2F7F7
:1020600084278C9313C0A2E3B0E0E2E3F0E0808128
:10207000482F8A81282F30E081E090E0022E02C0B4
:10208000880F991F0A94E2F784278C930F900F9082
:102090000F900F90CF91DF910895DF93CF9300D0F1
:1020A000CDB7DEB79A83898389819A819093850120
:1020B000809384010F900F90CF91DF9108951F922C
:1020C0000F920FB60F9211242F933F934F935F936C
:1020D0006F937F938F939F93AF93BF93EF93FF93F0
:1020E000DF93CF93CDB7DEB78091840190918501C6
:1020F000009729F0E0918401F09185010995CF9135
:10210000DF91FF91EF91BF91AF919F918F917F915F
:102110006F915F914F913F912F910F900FBE0F9054
:102120001F901895DF93CF93CDB7DEB7A7E2B0E04D
:10213000E7E2F0E0808180648C93A7E2B0E0E7E220
:10214000F0E080818F778C93A6E2B0E0E6E2F0E0E9
:1021500080818E7F8C93A6E2B0E0E6E2F0E08081A1
:1021600082608C93A6E2B0E0E6E2F0E080818460D9
:102170008C93A7E2B0E0E7E2F0E080818F7D8C9362
:10218000A6E2B0E0E6E2F0E0808180628C93A0E518
:10219000B0E0E0E5F0E080818F7D8C93A0E5B0E0D9
:1021A000E0E5F0E0808180648C93A0E5B0E0E0E5BC
:1021B000F0E080818F778C93A6E2B0E0E6E2F0E079
:1021C000808180688C93CF91DF910895DF93CF93C6
:1021D000CDB7DEB7A6E2B0E0E6E2F0E08081806451
:1021E0008C93CF91DF910895DF93CF930F92CDB76A
:1021F000DEB78983A7E2B0E0E7E2F0E08081807E8D
:102200008C93A7E2B0E0E7E2F0E090818981892B2E
:102210008C930F90CF91DF910895DF93CF93CDB73B
:10222000DEB7A6E2B0E0E6E2F0E0808188608C9361
:10223000CF91DF910895DF93CF93CDB7DEB7E6E27C
:10224000F0E0808182958F70882F90E0817090708F
:102250000097A9F3A6E2B0E0E6E2F0E080818061B9
:102260008C93CF91DF910895DF93CF9300D0CDB7BA
:10227000DEB79A838983E4E2F0E080819181E9818D
:10228000FA81918380830F900F90CF91DF91089511
:10229000DF93CF93CDB7DEB76C970FB6F894DEBF60
:1022A0000FBECDBF80E062E041E00E94D40D80E02F
:1022B00090E0A0E8BFE3898F9A8FAB8FBC8F698DC8
:1022C0007A8D8B8D9C8D20E030E04AEF54E40E94A3
:1022D0001F02DC01CB018D8B9E8BAF8BB88F6D897C
:1022E0007E898F89988D20E030E040E85FE30E948E
:1022F000250488232CF481E090E09C8B8B8B3FC0DD
:102300006D897E898F89988D20E03FEF4FE757E4F4
:102310000E94C50318164CF5698D7A8D8B8D9C8DA6
:1023200020E030E040E251E40E941F02DC01CB01DA
:10233000BC01CD010E944900DC01CB019C8B8B8B41
:102340000FC088EC90E09A8B898B89899A890197D4
:10235000F1F79A8B898B8B899C8901979C8B8B8B4E
:102360008B899C89009769F714C06D897E898F8954
:10237000988D0E944900DC01CB019C8B8B8B8B8953
:102380009C89988B8F878F8598890197F1F7988B17
:102390008F8780E062E040E00E94D40D80E090E012
:1023A000A0E8BFE38B879C87AD87BE876B857C8564
:1023B0008D859E8520E030E04AEF54E40E941F02A4
:1023C000DC01CB018F839887A987BA876F817885D5
:1023D00089859A8520E030E040E85FE30E9425048B
:1023E00088232CF481E090E09E838D833FC06F8131
:1023F000788589859A8520E03FEF4FE757E40E9472
:10240000C50318164CF56B857C858D859E8520E06F
:1024100030E040E251E40E941F02DC01CB01BC012C
:10242000CD010E944900DC01CB019E838D830FC04A
:1024300088EC90E09C838B838B819C810197F1F7E2
:102440009C838B838D819E8101979E838D838D815B
:102450009E81009769F714C06F81788589859A8578
:102460000E944900DC01CB019E838D838D819E817A
:102470009A83898389819A810197F1F79A83898365
:102480006C960FB6F894DEBF0FBECDBFCF91DF9133
:102490000895DF93CF93CDB7DEB7E8970FB6F894E2
:1024A000DEBF0FBECDBF80E090E0A8E4B2E48DAB0C
:1024B0009EABAFABB8AF6DA97EA98FA998AD20E058
:1024C00030E04AEF54E40E941F02DC01CB0189ABEB
:1024D0009AABABABBCAB69A97AA98BA99CA920E04C
:1024E00030E040E85FE30E94250488232CF481E07B
:1024F00090E098AB8FA73FC069A97AA98BA99CA946
:1025000020E03FEF4FE757E40E94C50318164CF553
:102510006DA97EA98FA998AD20E030E040E251E49A
:102520000E941F02DC01CB01BC01CD010E944900C9
:10253000DC01CB0198AB8FA70FC088EC90E09EA781
:102540008DA78DA59EA50197F1F79EA78DA78FA5B5
:1025500098A9019798AB8FA78FA598A9009769F7BD
:1025600014C069A97AA98BA99CA90E944900DC0121
:10257000CB0198AB8FA78FA598A99CA78BA78BA5FC
:102580009CA50197F1F79CA78BA782E06FEF0E94B3
:10259000D40E80E067E00E94D40E88E30E944114CC
:1025A00080E090E0A0E8BFE38FA398A7A9A7BAA70F
:1025B0006FA178A589A59AA520E030E04AEF54E400
:1025C0000E941F02DC01CB018BA39CA3ADA3BEA381
:1025D0006BA17CA18DA19EA120E030E040E85FE3EB
:1025E0000E94250488232CF481E090E09AA389A31B
:1025F0003FC06BA17CA18DA19EA120E03FEF4FE7E2
:1026000057E40E94C50318164CF56FA178A589A55B
:102610009AA520E030E040E251E40E941F02DC0174
:10262000CB01BC01CD010E944900DC01CB019AA382
:1026300089A30FC088EC90E098A38F8F8F8D98A10D
:102640000197F1F798A38F8F89A19AA101979AA377
:1026500089A389A19AA1009769F714C06BA17CA1F5
:102660008DA19EA10E944900DC01CB019AA389A300
:1026700089A19AA19E8F8D8F8D8D9E8D0197F1F7E7
:102680009E8F8D8F8CE00E94411480E090E0A0E846
:10269000BFE3898F9A8FAB8FBC8F698D7A8D8B8DBD
:1026A0009C8D20E030E04AEF54E40E941F02DC01E0
:1026B000CB018D8B9E8BAF8BB88F6D897E898F8977
:1026C000988D20E030E040E85FE30E9425048823F5
:1026D0002CF481E090E09C8B8B8B3FC06D897E89D0
:1026E0008F89988D20E03FEF4FE757E40E94C503A4
:1026F00018164CF5698D7A8D8B8D9C8D20E030E01D
:1027000040E251E40E941F02DC01CB01BC01CD017B
:102710000E944900DC01CB019C8B8B8B0FC088ECA5
:1027200090E09A8B898B89899A890197F1F79A8B26
:10273000898B8B899C8901979C8B8B8B8B899C893E
:10274000009769F714C06D897E898F89988D0E94E2
:102750004900DC01CB019C8B8B8B8B899C89988BEE
:102760008F878F8598890197F1F7988B8F8781E004
:102770000E94411480E090E0A0E0B0E48B879C8749
:10278000AD87BE876B857C858D859E8520E030E09A
:102790004AEF54E40E941F02DC01CB018F8398872B
:1027A000A987BA876F81788589859A8520E030E08E
:1027B00040E85FE30E94250488232CF481E090E048
:1027C0009E838D833FC06F81788589859A8520E0BF
:1027D0003FEF4FE757E40E94C50318164CF56B8591
:1027E0007C858D859E8520E030E040E251E40E94AA
:1027F0001F02DC01CB01BC01CD010E944900DC01BC
:10280000CB019E838D830FC088EC90E09C838B83EB
:102810008B819C810197F1F79C838B838D819E81B5
:1028200001979E838D838D819E81009769F714C0E7
:102830006F81788589859A850E944900DC01CB01EA
:102840009E838D838D819E819A83898389819A81DC
:102850000197F1F79A83898386E00E94411482E010
:102860000E94411481E00E94411481E00E944114C1
:10287000E8960FB6F894DEBF0FBECDBFCF91DF91C3
:102880000895DF93CF930F92CDB7DEB7898380E0B1
:1028900060E040E00E94D40D80E061E040E00E94F2
:1028A000D40D82E069810E94150F0E9448110F909B
:1028B000CF91DF910895DF93CF93CDB7DEB76D97BA
:1028C0000FB6F894DEBF0FBECDBF8D8F80E060E005
:1028D00041E00E94D40D80E061E040E00E94D40D10
:1028E00082E06D8D0E94150F80E062E041E00E9461
:1028F000D40D80E090E0A0E8BFE3898F9A8FAB8F82
:10290000BC8F698D7A8D8B8D9C8D20E030E04AEFF5
:1029100054E40E941F02DC01CB018D8B9E8BAF8B98
:10292000B88F6D897E898F89988D20E030E040E8EE
:102930005FE30E94250488232CF481E090E09C8BC7
:102940008B8B3FC06D897E898F89988D20E03FEF0A
:102950004FE757E40E94C50318164CF5698D7A8D30
:102960008B8D9C8D20E030E040E251E40E941F02FC
:10297000DC01CB01BC01CD010E944900DC01CB018F
:102980009C8B8B8B0FC088EC90E09A8B898B89890C
:102990009A890197F1F79A8B898B8B899C8901978A
:1029A0009C8B8B8B8B899C89009769F714C06D89F0
:1029B0007E898F89988D0E944900DC01CB019C8B18
:1029C0008B8B8B899C89988B8F878F8598890197B2
:1029D000F1F7988B8F8780E062E040E00E94D40D91
:1029E00080E090E0A0E8BFE38B879C87AD87BE873F
:1029F0006B857C858D859E8520E030E04AEF54E430
:102A00000E941F02DC01CB018F839887A987BA87B8
:102A10006F81788589859A8520E030E040E85FE322
:102A20000E94250488232CF481E090E09E838D830E
:102A30003FC06F81788589859A8520E03FEF4FE719
:102A400057E40E94C50318164CF56B857C858D856F
:102A50009E8520E030E040E251E40E941F02DC014C
:102A6000CB01BC01CD010E944900DC01CB019E835A
:102A70008D830FC088EC90E09C838B838B819C813D
:102A80000197F1F79C838B838D819E8101979E83B3
:102A90008D838D819E81009769F714C06F81788541
:102AA00089859A850E944900DC01CB019E838D8334
:102AB0008D819E819A83898389819A810197F1F71B
:102AC0009A8389836D960FB6F894DEBF0FBECDBF93
:102AD000CF91DF910895DF93CF9300D00F92CDB7C0
:102AE000DEB79B838A83198219C08981282F30E041
:102AF0008A819B81FC01E20FF31F8081882389F08A
:102B00008981282F30E08A819B81FC01E20FF31F2D
:102B100080810E945B1489818F5F898389818436DB
:102B200020F30F900F900F90CF91DF910895EF92C7
:102B3000FF920F931F93DF93CF93CDB7DEB72C9700
:102B40000FB6F894DEBF0FBECDBF69877A878B873B
:102B50009C871D821E821F8218861B8289859A850A
:102B6000AB85BC850097A105B10509F046C080E39F
:102B70000E945B1442C08D819E81AF81B8852AE09E
:102B800030E040E050E0BC01CD010E94F8177B012D
:102B90008C0189859A85AB85BC852AE030E040E0D0
:102BA00050E0BC01CD010E941718DC01CB018E0D55
:102BB0009F1DA01FB11F8D839E83AF83B8878D811A
:102BC0009E81AF81B8850097A105B10521F41C82D3
:102BD0008B818F5F8B8389859A85AB85BC852AE045
:102BE00030E040E050E0BC01CD010E941718DA014E
:102BF000C90189879A87AB87BC8789859A85AB8508
:102C0000BC850097A105B10509F0B5CF25C08D8120
:102C10009E81AF81B8852AE030E040E050E0BC0101
:102C2000CD010E941718DC01CB018A838A81805D67
:102C30000E945B148D819E81AF81B8852AE030E0CF
:102C400040E050E0BC01CD010E941718DA01C90133
:102C50008D839E83AF83B8878D819E81AF81B88538
:102C60000097A105B10599F68C81882361F419823A
:102C700006C080E30E945B1489818F5F89839981FC
:102C80008B819817B0F32C960FB6F894DEBF0FBE69
:102C9000CDBFCF91DF911F910F91FF90EF900895DD
:102CA000DF93CF9300D0CDB7DEB789836A83898164
:102CB000882329F48A8180580E94411407C08981A1
:102CC000813021F48A8180540E9441140F900F902A
:102CD000CF91DF9108950F93DF93CF93CDB7DEB7F8
:102CE00027970FB6F894DEBF0FBECDBF9B838A83B4
:102CF0006C834D832E830F838C81805C0E944114F2
:102D000019820EC08981282F30E08A819B81FC01C5
:102D1000E20FF31F80810E945B1489818F5F89839A
:102D20008981883078F38D816E810E9450168F8161
:102D30000E945B1427960FB6F894DEBF0FBECDBF7E
:102D4000CF91DF910F9108950F93DF93CF93CDB77C
:102D5000DEB72B970FB6F894DEBF0FBECDBF8987C5
:102D60006A874B8788E0FE013196DF01982F1D921C
:102D70009A95E9F7CE01019660E049852A8500E041
:102D80000E946B168A858F5F8A879A858B85981734
:102D900089F72B960FB6F894DEBF0FBECDBFCF914B
:102DA000DF910F910895DF93CF93CDB7DEB76E9784
:102DB0000FB6F894DEBF0FBECDBF80E060E041E00B
:102DC0000E94D40C83E060E040E00E94D40C83E0D9
:102DD00061E041E00E94D40C1E8E1D8E0E941707F8
:102DE0000E94491280E690E00E946B1580E090E01E
:102DF000AAE7B4E4898F9A8FAB8FBC8F698D7A8DE7
:102E00008B8D9C8D20E030E04AEF54E40E941F023D
:102E1000DC01CB018D8B9E8BAF8BB88F6D897E894A
:102E20008F89988D20E030E040E85FE30E94250420
:102E300088232CF481E090E09C8B8B8B3FC06D89C4
:102E40007E898F89988D20E03FEF4FE757E40E94FD
:102E5000C50318164CF5698D7A8D8B8D9C8D20E0FD
:102E600030E040E251E40E941F02DC01CB01BC01D2
:102E7000CD010E944900DC01CB019C8B8B8B0FC0E4
:102E800088EC90E09A8B898B89899A890197F1F770
:102E90009A8B898B8B899C8901979C8B8B8B8B89D7
:102EA0009C89009769F714C06D897E898F89988DF8
:102EB0000E944900DC01CB019C8B8B8B8B899C8908
:102EC000988B8F878F8598890197F1F7988B8F87DB
:102ED00081E00E9441140E947A078E8F8E8D833389
:102EE00049F480E060E041E00E94D40D8E8D0E94A4
:102EF000590708C08E8D833629F480E060E040E0F9
:102F00000E94D40D8E8D0E94590780E090E0A8E4C5
:102F1000B3E48B879C87AD87BE876B857C858D8569
:102F20009E8520E030E04AEF54E40E941F02DC015D
:102F3000CB018F839887A987BA876F817885898528
:102F40009A8520E030E040E85FE30E942504882372
:102F50002CF481E090E09E838D833FC06F81788563
:102F600089859A8520E03FEF4FE757E40E94C5032B
:102F700018164CF56B857C858D859E8520E030E0AC
:102F800040E251E40E941F02DC01CB01BC01CD01F3
:102F90000E944900DC01CB019E838D830FC088EC29
:102FA00090E09C838B838B819C810197F1F79C83BC
:102FB0008B838D819E8101979E838D838D819E81E0
:102FC000009769F788CF6F81788589859A850E94F7
:102FD0004900DC01CB019E838D838D819E819A8384
:102FE000898389819A810197F1F79A83898373CFC5
:102FF000629FD001739FF001829FE00DF11D649FDD
:10300000E00DF11D929FF00D839FF00D749FF00D68
:10301000659FF00D9927729FB00DE11DF91F639F09
:10302000B00DE11DF91FBD01CF0111240895A1E2EA
:103030001A2EAA1BBB1BFD010DC0AA1FBB1FEE1F32
:10304000FF1FA217B307E407F50720F0A21BB30B7D
:10305000E40BF50B661F771F881F991F1A9469F7F9
:1030600060957095809590959B01AC01BD01CF0155
:1030700008952F923F924F925F926F927F928F921C
:103080009F92AF92BF92CF92DF92EF92FF920F93F7
:103090001F93CF93DF93CDB7DEB7CA1BDB0B0FB601
:1030A000F894DEBF0FBECDBF09942A8839884888BE
:1030B0005F846E847D848C849B84AA84B984C88454
:1030C000DF80EE80FD800C811B81AA81B981CE0F4B
:1030D000D11D0FB6F894DEBF0FBECDBFED01089530
:0430E000F894FFCF92
:1030E40057656C636F6D6520456C73617965640029
:1030F40000000000000000000001020203030303BB
:103104000404040404040404050505050505050573
:103114000505050505050505060606060606060653
:10312400060606060606060606060606060606063B
:103134000606060606060606070707070707070723
:10314400070707070707070707070707070707070B
:1031540007070707070707070707070707070707FB
:1031640007070707070707070707070707070707EB
:1031740007070707070707070808080808080808D3
:1031840008080808080808080808080808080808BB
:1031940008080808080808080808080808080808AB
:1031A400080808080808080808080808080808089B
:1031B400080808080808080808080808080808088B
:1031C400080808080808080808080808080808087B
:1031D400080808080808080808080808080808086B
:1031E400080808080808080808080808080808085B
:0831F400080808080808080893
:00000001FF
