:100000000C942A000C943C000C943C000C943C0092
:100010000C943C000C943C000C943C000C943C0070
:100020000C943C000C943C000C943C000C943C0060
:100030000C943C000C943C000C943C000C943C0050
:100040000C943C000C943C000C943C000C943C0040
:100050000C943C0011241FBECFE5D8E0DEBFCDBF1D
:1000600010E0A0E6B0E001C01D92A136B107E1F7B3
:100070000E9407040C9431040C940000DF93CF938A
:10008000CDB7DEB727970FB6F894DEBF0FBECDBF52
:1000900089836A834B838B81813009F06FC08981AA
:1000A000282F30E03F832E838E819F818130910500
:1000B00049F12E813F81223031052CF48E819F81C0
:1000C000009761F0D2C02E813F812230310571F15D
:1000D0008E819F8183309105E9F1C7C0AAE3B0E02A
:1000E000EAE3F0E08081482F8A81282F30E081E028
:1000F00090E0022E02C0880F991F0A94E2F7842B29
:100100008C93B3C0A7E3B0E0E7E3F0E08081482F31
:100110008A81282F30E081E090E0022E02C0880F13
:10012000991F0A94E2F7842B8C939FC0A4E3B0E05C
:10013000E4E3F0E08081482F8A81282F30E081E0DD
:1001400090E0022E02C0880F991F0A94E2F7842BD8
:100150008C938BC0A1E3B0E0E1E3F0E08081482F15
:100160008A81282F30E081E090E0022E02C0880FC3
:10017000991F0A94E2F7842B8C9377C08B81882394
:1001800009F073C08981282F30E03D832C838C8156
:100190009D818130910559F12C813D8122303105BD
:1001A0002CF48C819D81009769F05FC02C813D818A
:1001B0002230310589F18C819D818330910509F4CC
:1001C00040C053C0AAE3B0E0EAE3F0E08081482FEA
:1001D0008A81282F30E081E090E0022E02C0880F53
:1001E000991F0A94E2F7809584238C933EC0A7E37D
:1001F000B0E0E7E3F0E08081482F8A81282F30E0EB
:1002000081E090E0022E02C0880F991F0A94E2F765
:10021000809584238C9329C0A4E3B0E0E4E3F0E06C
:100220008081482F8A81282F30E081E090E0022EE3
:1002300002C0880F991F0A94E2F7809584238C935B
:1002400014C0A1E3B0E0E1E3F0E08081482F8A81AF
:10025000282F30E081E090E0022E02C0880F991F25
:100260000A94E2F7809584238C9327960FB6F8942E
:10027000DEBF0FBECDBFCF91DF910895DF93CF9347
:10028000CDB7DEB727970FB6F894DEBF0FBECDBF50
:1002900089836A834B838B81813009F06FC08981A8
:1002A000282F30E03F832E838E819F8181309105FE
:1002B00049F12E813F81223031052CF48E819F81BE
:1002C000009761F0D2C02E813F812230310571F15B
:1002D0008E819F8183309105E9F1C7C0ABE3B0E027
:1002E000EBE3F0E08081482F8A81282F30E081E025
:1002F00090E0022E02C0880F991F0A94E2F7842B27
:100300008C93B3C0A8E3B0E0E8E3F0E08081482F2D
:100310008A81282F30E081E090E0022E02C0880F11
:10032000991F0A94E2F7842B8C939FC0A5E3B0E059
:10033000E5E3F0E08081482F8A81282F30E081E0DA
:1003400090E0022E02C0880F991F0A94E2F7842BD6
:100350008C938BC0A2E3B0E0E2E3F0E08081482F11
:100360008A81282F30E081E090E0022E02C0880FC1
:10037000991F0A94E2F7842B8C9377C08B81882392
:1003800009F073C08981282F30E03D832C838C8154
:100390009D818130910559F12C813D8122303105BB
:1003A0002CF48C819D81009769F05FC02C813D8188
:1003B0002230310589F18C819D818330910509F4CA
:1003C00040C053C0ABE3B0E0EBE3F0E08081482FE6
:1003D0008A81282F30E081E090E0022E02C0880F51
:1003E000991F0A94E2F7809584238C933EC0A8E37A
:1003F000B0E0E8E3F0E08081482F8A81282F30E0E8
:1004000081E090E0022E02C0880F991F0A94E2F763
:10041000809584238C9329C0A5E3B0E0E5E3F0E068
:100420008081482F8A81282F30E081E090E0022EE1
:1004300002C0880F991F0A94E2F7809584238C9359
:1004400014C0A2E3B0E0E2E3F0E08081482F8A81AB
:10045000282F30E081E090E0022E02C0880F991F23
:100460000A94E2F7809584238C9327960FB6F8942C
:10047000DEBF0FBECDBFCF91DF910895DF93CF9345
:1004800000D000D00F92CDB7DEB78A836B838FEF99
:1004900089838A81282F30E03D832C834C815D81C4
:1004A0004130510541F18C819D818230910534F4B8
:1004B0002C813D812115310561F052C04C815D8157
:1004C0004230510551F18C819D8183309105B9F104
:1004D00047C0E9E3F0E08081282F30E08B81882F4E
:1004E00090E0A90102C0559547958A95E2F7CA01A7
:1004F0008170898335C0E6E3F0E08081282F30E009
:100500008B81882F90E0A90102C0559547958A9567
:10051000E2F7CA018170898323C0E3E3F0E08081C0
:10052000282F30E08B81882F90E0A90102C05595DB
:1005300047958A95E2F7CA018170898311C0E0E38B
:10054000F0E08081282F30E08B81882F90E0A90196
:1005500002C0559547958A95E2F7CA018170898353
:1005600089810F900F900F900F900F90CF91DF9196
:100570000895DF93CF9300D000D0CDB7DEB7898345
:100580006A838981282F30E03C832B838B819C8177
:1005900081309105D1F02B813C81223031052CF442
:1005A0008B819C81009761F01EC02B813C812230A1
:1005B000310581F08B819C818330910581F013C0DE
:1005C000EAE3F0E08A8180830EC0E7E3F0E08A810D
:1005D000808309C0E4E3F0E08A81808304C0E1E322
:1005E000F0E08A8180830F900F900F900F90CF9151
:1005F000DF910895DF93CF9300D000D0CDB7DEB761
:1006000089836A838981282F30E03C832B838B8107
:100610009C8181309105D1F02B813C8122303105C4
:100620002CF48B819C81009761F01EC02B813C8152
:100630002230310581F08B819C818330910581F0DE
:1006400013C0EBE3F0E08A8180830EC0E8E3F0E0C2
:100650008A81808309C0E5E3F0E08A81808304C059
:10066000E2E3F0E08A8180830F900F900F900F906B
:10067000CF91DF910895DF93CF9300D000D0CDB715
:10068000DEB78A8319828A81282F30E03C832B834E
:100690008B819C8181309105D1F02B813C8122306E
:1006A00031052CF48B819C81009761F01EC02B8159
:1006B0003C812230310581F08B819C818330910512
:1006C00081F013C0E9E3F0E0808189830EC0E6E3A6
:1006D000F0E08081898309C0E3E3F0E080818983D1
:1006E00004C0E0E3F0E08081898389810F900F905E
:1006F0000F900F90CF91DF910895DF93CF93CDB7F7
:10070000DEB7AAE2B0E0EAE2F0E0808191818061A8
:1007100011969C938E93AAE2B0E0EAE2F0E0808129
:100720009181886011969C938E93AAE2B0E0EAE2F0
:10073000F0E0808191818B7F11969C938E938091C4
:10074000600084608093600080916000826080938C
:1007500060008091600080688093600080916000FC
:100760008F7B80936000809160008F7D809360001C
:10077000809160008F7E8093600080916000877F11
:1007800080936000E0E4F0E0809160008083E0E42A
:10079000F0E01082E9E2F0E083E38083CF91DF9123
:1007A0000895DF93CF930F92CDB7DEB78983ECE244
:1007B000F0E089818083EBE2F0E08081829586958C
:1007C00086958370882F90E081709070009799F3E0
:1007D000ABE2B0E0EBE2F0E0808180648C930F90BC
:1007E000CF91DF910895DF93CF930F92CDB7DEB70E
:1007F0001982EBE2F0E080818823DCF7ECE2F0E0A4
:100800008081898389810F90CF91DF910895DF9353
:10081000CF930F92CDB7DEB783E060E040E00E9457
:100820003E0083E061E041E00E943E000E947D03C3
:1008300080E060E041E00E943E0080E060E040E057
:100840000E943E010E94F30389838981813629F445
:1008500080E060E041E00E943E0189810E94D10376
:06086000F1CFF894FFCF78
:00000001FF
