:100000000C942A000C9434000C9434000C943400AA
:100010000C9434000C9434000C9434000C94340090
:100020000C9434000C9434000C9434000C94340080
:100030000C9434000C9434000C9434000C94340070
:100040000C9434000C9434000C9434000C94340060
:100050000C94340011241FBECFE5D8E0DEBFCDBF25
:100060000E9445030C94A3030C9400004130B1F5A9
:10007000813099F0813030F08230D1F0833009F056
:1000800067C021C02AB381E090E002C0880F991FA9
:100090006A95E2F7282B2ABB089527B381E090E008
:1000A00002C0880F991F6A95E2F7282B27BB089595
:1000B00024B381E090E002C0880F991F6A95E2F7AF
:1000C000282B24BB089521B381E090E002C0880F63
:1000D000991F6A95E2F7282B21BB08954423C1F5A7
:1000E000813099F0813028F08230D9F0833081F569
:1000F00024C02AB381E090E002C0880F991F6A955E
:10010000E2F7809582238ABB089527B381E090E0CF
:1001100002C0880F991F6A95E2F78095822387BBFA
:10012000089524B381E090E002C0880F991F6A957A
:10013000E2F78095822384BB089521B381E090E0AB
:1001400002C0880F991F6A95E2F78095822381BBD0
:1001500008954130B1F5813099F0813030F082302E
:10016000D1F0833009F067C021C02BB381E090E06B
:1001700002C0880F991F6A95E2F7282B2BBB0895C0
:1001800028B381E090E002C0880F991F6A95E2F7DA
:10019000282B28BB089525B381E090E002C0880F8A
:1001A000991F6A95E2F7282B25BB089522B381E0B9
:1001B00090E002C0880F991F6A95E2F7282B22BBB6
:1001C00008954423C1F5813099F0813028F08230C0
:1001D000D9F0833081F524C02BB381E090E002C0D8
:1001E000880F991F6A95E2F7809582238BBB08954B
:1001F00028B381E090E002C0880F991F6A95E2F76A
:100200008095822388BB089525B381E090E002C0E9
:10021000880F991F6A95E2F78095822385BB089520
:1002200022B381E090E002C0880F991F6A95E2F73F
:100230008095822382BB0895813049F0813028F077
:10024000823039F0833041F406C06ABB089567BB41
:10025000089564BB089561BB0895813049F08130F1
:1002600028F0823039F0833041F406C06BBB08952A
:1002700068BB089565BB089562BB0895813051F055
:10028000813030F0823041F0833079F080E00895A1
:100290008BB303C088B301C085B390E002C09595CD
:1002A00087956A95E2F78170089582B390E002C065
:1002B000959587956A95E2F781700895813091F060
:1002C000813028F08230C9F0833061F521C02BB332
:1002D00081E090E002C0880F991F6A95E2F7282715
:1002E0002BBB089528B381E090E002C0880F991FCE
:1002F0006A95E2F7282728BB089525B381E090E0AE
:1003000002C0880F991F6A95E2F7282725BB089538
:1003100022B381E090E002C0880F991F6A95E2F74E
:10032000282722BB08950895FF920F931F93F82E5C
:100330008B010E94F502000F012F001F110B119578
:10034000802F806A0E94000380E00E941C038F2D92
:100350000E941C030E942E031F910F91FF9008958D
:100360000E94E00208951F93182F82E060E041E0B0
:100370000E94A90082E061E040E00E94A90080E0C4
:10038000612F0E942D0182E062E041E00E94A900FD
:1003900080EA9FE00197F1F782E062E040E00E948E
:1003A000A90080ED97E00197F1F71F9108950E9451
:1003B000B30108955F926F927F928F929F92AF9256
:1003C000BF92CF92DF92EF92FF920F931F933B0168
:1003D0004C01611571058105910519F480E30E94B6
:1003E000B301AA24BB246501552426C0C601B5016A
:1003F0002AE030E040E050E00E9462037B018C0183
:10040000C401B3010E9481035B016C01AE0CBF1CEF
:10041000C01ED11EA114B104C104D10409F4539427
:10042000C401B3012AE030E040E050E00E948103C3
:10043000C901DA013C014D01611471048104910488
:10044000A9F618C0C601B5012AE030E040E050E04E
:100450000E948103862F805D0E94B301C601B50111
:100460002AE030E040E050E00E948103C901DA0157
:100470005C016D01A114B104C104D10419F710E0AD
:1004800004C080E30E94B3011F5F1515D0F31F91D4
:100490000F91FF90EF90DF90CF90BF90AF909F9023
:1004A0008F907F906F905F9008951F93CF93DF930D
:1004B000EC0110E003C00E94B3011F5FFE01E10FD9
:1004C000F11D80818823B9F7DF91CF911F910895A5
:1004D0001F93182F82E060E040E00E94A90082E0B4
:1004E00061E040E00E94A90080E0612F0E942D01A0
:1004F00082E062E041E00E94A90080EA9FE001976B
:10050000F1F782E062E040E00E94A90080ED97E010
:100510000197F1F71F910895823080F4603170F4F3
:10052000882319F0813051F405C0862F80580E942D
:1005300068020895862F80540E946802089581E021
:100540000E94680280E49CE90197F1F708950F93F7
:100550001F9384EF91E028EC30E0F9013197F1F737
:100560000197D9F782E060E041E00E94360082E026
:1005700061E041E00E94360082E062E041E00E94DA
:10058000360080E06FEF0E941C0188E30E94680241
:1005900000ED17E0C8010197F1F78CE00E946802B6
:1005A000C8010197F1F781E00E94680280EA9FE0AC
:1005B0000197F1F782E00E9468021F910F91089560
:1005C00082E080B911B886B7806486BF86B7846040
:1005D00086BF84E082B9089586B7806486BF82E0D2
:1005E00082B986B7846086BF089586B7806886BF63
:1005F00086B7806286BF06B607FEFDCF81B108953B
:10060000880F83B9189886B78F7D86BF86B78068B4
:1006100086BF06B607FEFDCF81B10895880F83B966
:10062000189A86B78F7D86BF86B7806886BF06B664
:1006300007FEFDCF81B1089583B986B7806886BF74
:1006400006B607FEFDCF81B1089586B7806886BFE4
:1006500006B607FEFDCF81B183B1089586B78068E5
:1006600086BF86B7806186BF089581B1887F803656
:10067000E1F786B7806486BF86B7806886BF06B616
:1006800007FEFDCF81B183B10895CF93DF9382E060
:1006900060E041E00E9436000E94E002C8ECD0E039
:1006A0000E94F50282E00E94000385E60E941C037E
:1006B0000E942E0388E893E1FE013197F1F701973C
:1006C000D9F7EECF629FD001739FF001829FE00DBA
:1006D000F11D649FE00DF11D929FF00D839FF00DC1
:1006E000749FF00D659FF00D9927729FB00DE11D6D
:1006F000F91F639FB00DE11DF91FBD01CF0111244A
:100700000895A1E21A2EAA1BBB1BFD010DC0AA1F52
:10071000BB1FEE1FFF1FA217B307E407F50720F06A
:10072000A21BB30BE40BF50B661F771F881F991FE5
:100730001A9469F760957095809590959B01AC012E
:0A074000BD01CF010895F894FFCF2A
:00000001FF
