:100000000C942A000C94090D0C943C0D0C946F0D6B
:100010000C946B0A0C94380A0C94050A0C949F09F2
:100020000C94D2090C946C090C9439090C940609AF
:100030000C9447000C9447000C9447000C94470024
:100040000C947A110C9447000C9447000C944700D0
:100050000C94470011241FBECFE5D8E0DEBFCDBF12
:1000600010E0A0E6B0E0E4E9F4E302C005900D92F0
:10007000A438B107D9F710E0A4E8B0E001C01D92A0
:10008000A43AB107E1F70E94EE170C94481A0C94B9
:100090000000EF92FF920F931F937B018C0120E0F1
:1000A00030E040E05FE40E94F50388238CF0C80153
:1000B000B70120E030E040E05FE40E94C1010E940F
:1000C00055049B01AC01205030404040504806C0D0
:1000D000C801B7010E9455049B01AC01B901CA01D6
:1000E0001F910F91FF90EF900895A0E0B0E0EBE733
:1000F000F0E00C94111ADC012B01FA019C91923072
:1001000008F439C1EB018881823008F433C194309E
:1001100069F4843009F02FC111969C91119789815F
:10012000981709F428C1ABE7B0E025C1843009F481
:1001300021C18230A9F4923009F01DC19A01AD01AC
:1001400088E0EA010990AE01E90109929E0181501F
:10015000C1F7E201898111969C918923818308C1AD
:10016000923009F407C112962D903C901397EB0141
:100170008A819B811496AD90BD90CD90DC901797AD
:10018000EC80FD800E811F819101281B390BB90184
:1001900037FF04C066277727621B730B6032710537
:1001A0000CF061C0121613066CF537014801062EDB
:1001B00004C096948794779467940A94D2F721E0C8
:1001C00030E040E050E004C0220F331F441F551FB1
:1001D0006A95D2F721503040404050402E213F21B7
:1001E00040235123211531054105510521F021E01E
:1001F00030E040E050E079018A01E628F72808293C
:1002000019293CC0232BD1F1260E371E350146019A
:10021000062E04C096948794779467940A94D2F734
:1002200021E030E040E050E004C0220F331F441FC3
:10023000551F6A95D2F721503040404050402A2146
:100240003B214C215D21211531054105510521F04E
:1002500021E030E040E050E059016A01A628B728CB
:10026000C828D9280BC0821593052CF01C01AA249C
:10027000BB24650103C0EE24FF24870111969C91E5
:10028000D20111968C91981709F445C0992339F041
:10029000A80197012A193B094C095D0906C0A6016E
:1002A00095012E193F09400B510B57FD08C01182D3
:1002B0003382228224833583468357831DC081E0A5
:1002C00081833382228288279927DC01821B930B4A
:1002D000A40BB50B84839583A683B7830DC0220F2F
:1002E000331F441F551F24833583468357838281E0
:1002F000938101979383828324813581468157813D
:10030000DA01C9010197A109B1098F5F9F4FAF4F72
:10031000BF4328F30BC0918333822282EA0CFB1C7B
:100320000C1D1D1DE482F5820683178383E0808304
:10033000248135814681578157FF1AC0C901AA27F8
:1003400097FDA095BA2F81709070A070B0705695EF
:10035000479537952795822B932BA42BB52B848318
:100360009583A683B7838281938101969383828349
:10037000DF0101C0D201CD01CDB7DEB7E2E10C94BF
:100380002D1AA0E2B0E0E7ECF1E00C941D1A6983AD
:100390007A838B839C832D833E834F835887E9E048
:1003A000EE2EF12CEC0EFD1ECE010196B7010E943F
:1003B0007E058E010F5E1F4FCE010596B8010E948B
:1003C0007E058A8991E089278A8BC701B801AE0131
:1003D000475E5F4F0E9475000E94A904A096E6E068
:1003E0000C94391AA0E2B0E0E8EFF1E00C941D1A89
:1003F00069837A838B839C832D833E834F835887C5
:10040000F9E0EF2EF12CEC0EFD1ECE010196B701A6
:100410000E947E058E010F5E1F4FCE010596B8012A
:100420000E947E05C701B801AE01475E5F4F0E9482
:1004300075000E94A904A096E6E00C94391AA0E287
:10044000B0E0E5E2F2E00C94111A69837A838B83C1
:100450009C832D833E834F835887CE010196BE0136
:10046000675F7F4F0E947E05CE010596BE016F5EDD
:100470007F4F0E947E059985923088F0898982306D
:10048000C8F0943019F4823051F404C0843029F457
:10049000923081F48BE790E0C6C0923049F420E0BE
:1004A0009A858A89981321E02A87CE010996BBC0D4
:1004B000823049F420E09A858A89981321E02A8BBA
:1004C000CE014196B0C02D843E844F8458886D88FB
:1004D0007E888F88988CEE24FF248701AA24BB2471
:1004E000650140E050E060E070E0E0E0F0E0C10174
:1004F00081709070892BE9F0E60CF71C081D191D1E
:100500009A01AB012A0D3B1D4C1D5D1D80E090E062
:10051000A0E0B0E0E614F7040805190520F481E036
:1005200090E0A0E0B0E0BA01A901480F591F6A1F8E
:100530007B1FAA0CBB1CCC1CDD1C97FE08C081E0F5
:1005400090E0A0E0B0E0A82AB92ACA2ADB2A3196B6
:10055000E032F10549F0660C771C881C991C569412
:10056000479437942794C3CFFA85EA892B893C892D
:100570008B859C85280F391F2E5F3F4F17C0CA01FE
:1005800081709070892B61F016950795F794E79428
:1005900080E090E0A0E0B0E8E82AF92A0A2B1B2BC3
:1005A00076956795579547952F5F3F4F77FDE7CF36
:1005B0000CC0440F551F661F771F17FD4160EE0CDE
:1005C000FF1C001F111F21503040403090E05907A0
:1005D00090E0690790E4790760F32B8F3C8FDB0193
:1005E000CA018F779070A070B07080349105A1051A
:1005F000B10561F447FD0AC0E114F10401051105DC
:1006000029F0405C5F4F6F4F7F4F40781A8EFE1786
:1006100011F081E08A8F4D8F5E8F6F8F78A383E01A
:10062000898FCE0149960E94A904A096E2E10C941C
:100630002D1AA8E1B0E0EFE1F3E00C94191A6983F8
:100640007A838B839C832D833E834F835887B9E0C5
:10065000EB2EF12CEC0EFD1ECE010196B7010E948F
:100660007E058E010F5E1F4FCE010596B8010E94D8
:100670007E052985223008F47EC03989323010F495
:10068000B8017CC08A859A8989278A87243011F02D
:10069000223031F4231709F06EC06BE770E06EC0B2
:1006A000343039F41D861E861F86188A1C861B86E8
:1006B00004C0323021F484E08987B7015FC02B8504
:1006C0003C858B899C89281B390B3C872B87ED84C3
:1006D000FE840F851889AD88BE88CF88D88CEA142F
:1006E000FB040C051D0540F4EE0CFF1C001F111F40
:1006F000215030403C872B8720E030E040E050E044
:1007000080E090E0A0E0B0E460E070E0EA14FB0478
:100710000C051D0540F0282B392B4A2B5B2BEA18C2
:10072000FB080C091D09B695A79597958795EE0CC2
:10073000FF1C001F111F6F5F7F4F6F31710531F775
:10074000DA01C9018F779070A070B0708034910584
:10075000A105B10561F427FD0AC0E114F10401050A
:10076000110529F0205C3F4F4F4F5F4F20782D87B8
:100770003E874F87588BBE01675F7F4FCB010E943A
:10078000A9046896EAE00C94351AA8E1B0E0EBEC15
:10079000F3E00C941D1A69837A838B839C832D83E9
:1007A0003E834F83588789E0E82EF12CEC0EFD1E26
:1007B000CE010196B7010E947E058E010F5E1F4F8C
:1007C000CE010596B8010E947E058985823040F0F1
:1007D0008989823028F0C701B8010E94F60501C05E
:1007E0008FEF6896E6E00C94391AA8E1B0E0EBEFE1
:1007F000F3E00C941D1A69837A838B839C832D8389
:100800003E834F83588789E0E82EF12CEC0EFD1EC5
:10081000CE010196B7010E947E058E010F5E1F4F2B
:10082000CE010596B8010E947E058985823040F090
:100830008989823028F0C701B8010E94F60501C0FD
:100840008FEF6896E6E00C94391AA8E1B0E0EBE28D
:10085000F4E00C941D1A69837A838B839C832D8327
:100860003E834F83588789E0E82EF12CEC0EFD1E65
:10087000CE010196B7010E947E058E010F5E1F4FCB
:10088000CE010596B8010E947E058985823040F030
:100890008989823028F0C701B8010E94F60501C09D
:1008A00081E06896E6E00C94391AACE0B0E0EBE544
:1008B000F4E00C94211A69837A838B839C83CE01A4
:1008C0000196BE016B5F7F4F0E947E058D81823055
:1008D00061F1823050F1843021F48E81882351F10E
:1008E0002EC02F81388537FD20C06E812F31310514
:1008F0001CF06623F9F023C08EE190E0821B930B7D
:1009000029853A854B855C8504C056954795379572
:1009100027958A95D2F76623B1F05095409530958A
:1009200021953F4F4F4F5F4F0EC020E030E040E039
:1009300050E009C02FEF3FEF4FEF5FE704C020E02A
:1009400030E040E050E8B901CA012C96E2E00C9496
:100950003D1ADF92EF92FF920F931F93FC01E48008
:10096000F58006811781D1808081823048F480E053
:1009700090E0A0E1B0E0E82AF92A0A2B1B2BA5C0E1
:10098000843009F49FC0823021F4EE24FF248701D3
:1009900005C0E114F1040105110519F4E0E0F0E0EF
:1009A00096C0628173819FEF623879070CF05BC05B
:1009B00022E83FEF261B370B2A3131052CF020E0CF
:1009C00030E040E050E02AC0B801A701022E04C088
:1009D00076956795579547950A94D2F781E090E010
:1009E000A0E0B0E004C0880F991FAA1FBB1F2A9582
:1009F000D2F70197A109B1098E219F21A023B1232C
:100A00000097A105B10521F081E090E0A0E0B0E001
:100A10009A01AB01282B392B4A2B5B2BDA01C90138
:100A20008F779070A070B07080349105A105B105EA
:100A300039F427FF09C0205C3F4F4F4F5F4F04C080
:100A4000215C3F4F4F4F5F4FE0E0F0E02030A0E0EF
:100A50003A07A0E04A07A0E45A0710F0E1E0F0E00E
:100A600079018A0127C06038710564F5FB01E158FE
:100A7000FF4FD801C7018F779070A070B07080349D
:100A80009105A105B10539F4E7FE0DC080E490E0C1
:100A9000A0E0B0E004C08FE390E0A0E0B0E0E80E9A
:100AA000F91E0A1F1B1F17FF05C016950795F7941F
:100AB000E794319687E016950795F794E7948A9521
:100AC000D1F705C0EE24FF248701EFEFF0E06E2F91
:100AD000679566276795902F9F77D794DD24D794E5
:100AE0008E2F8695492F462B582F5D29B701CA01B5
:100AF0001F910F91FF90EF90DF900895FC01DB01B3
:100B0000408151812281622F6F7770E0221F22275E
:100B1000221F9381892F880F822B282F30E0991F65
:100B20009927991F11969C93119721153105A9F5C5
:100B3000411551056105710511F482E037C082E865
:100B40009FEF13969C938E9312979A01AB0167E0E7
:100B5000220F331F441F551F6A95D1F783E08C93F2
:100B60000DC0220F331F441F551F12968D919C916B
:100B70001397019713969C938E931297203080E0E1
:100B8000380780E0480780E4580758F314962D93FF
:100B90003D934D935C93179708952F3F310579F45A
:100BA000411551056105710519F484E08C93089590
:100BB00064FF03C081E08C9312C01C9210C02F57B9
:100BC000304013963C932E93129783E08C9387E0EA
:100BD000440F551F661F771F8A95D1F770641496CE
:100BE0004D935D936D937C93179708951F93DC014C
:100BF000FB019C91923008F447C08081823008F458
:100C000043C0943051F411961C91843099F5818140
:100C1000682F70E0611B71093FC0843021F0923071
:100C200031F48230B9F18181882389F12DC0119688
:100C30001C9111978230F1F081811817D9F4129626
:100C40002D913C911397828193818217930794F0A1
:100C500028173907BCF014968D919D910D90BC9189
:100C6000A02D2481358146815781281739074A07ED
:100C70005B0718F4112341F00AC082179307A407F9
:100C8000B50740F4112319F061E070E005C06FEF83
:100C90007FEF02C060E070E0CB011F910895DF9309
:100CA000CF93CDB7DEB7E0E4F0E01082E9E2F0E008
:100CB00083E38083AAE2B0E0EAE2F0E08081806131
:100CC0008C93AAE2B0E0EAE2F0E0808188608C9345
:100CD000AAE2B0E0EAE2F0E080818B7F8C93809121
:100CE000840084608093840080918400826080937B
:100CF00084008091840080688093840080918400C7
:100D00008F7B80938400809184008F7D809384000A
:100D1000809184008F7E8093840080918400877FFF
:100D200080938400809184008E7F80938400E0E42F
:100D3000F0E0809184008083CF91DF910895DF936C
:100D4000CF930F92CDB7DEB78983EBE2F0E08081DD
:100D5000829586958770882F90E0817090700097BB
:100D6000A1F3ECE2F0E0898180830F90CF91DF91D5
:100D70000895DF93CF930F92CDB7DEB71982EBE2E0
:100D8000F0E080818823DCF7ECE2F0E08081898369
:100D9000ABE2B0E0EBE2F0E0808180648C9389818B
:100DA0000F90CF91DF9108950F931F93DF93CF930F
:100DB0000F92CDB7DEB719820CC08981082F10E0E1
:100DC0000E94B906F801E156FF4F808389818F5F49
:100DD00089838981833088F38FE990E00F90CF91E8
:100DE000DF911F910F910895DF93CF93CDB7DEB7B9
:100DF000A1E2B0E0E1E2F0E080818D7F8C93A1E29E
:100E0000B0E0E1E2F0E080818E7F8C93E0E2F0E000
:100E10008CE08083A6E5B0E0E6E5F0E080818064C8
:100E20008C93A6E5B0E0E6E5F0E0808184608C93E9
:100E3000CF91DF910895DF93CF930F92CDB7DEB7B7
:100E40008983E2E2F0E08981880F8083A6E5B0E043
:100E5000E6E5F0E0808180648C93A6E5B0E0E6E50D
:100E6000F0E0808184608C930F90CF91DF910895A2
:100E7000DF93CF930F92CDB7DEB781E08983A6E5EC
:100E8000B0E0E6E5F0E0808180628C93A6E5B0E01A
:100E9000E6E5F0E0808180688C93E6E5F0E0808113
:100EA0008823DCF7E1E2F0E08081882F90E0887F02
:100EB00090708830910511F082E0898389810F90CC
:100EC000CF91DF910895DF93CF930F92CDB7DEB727
:100ED00081E08983A6E5B0E0E6E5F0E0808180620C
:100EE0008C93A6E5B0E0E6E5F0E0808180688C9325
:100EF000E6E5F0E080818823DCF7E1E2F0E0808144
:100F0000882F90E0887F90708031910511F083E008
:100F1000898389810F90CF91DF910895DF93CF93DB
:100F200000D0CDB7DEB78A8381E08983E3E2F0E0C9
:100F30008A81880F8083A3E2B0E0E3E2F0E0808161
:100F40008E7F8C93A6E5B0E0E6E5F0E080818F7DB2
:100F50008C93A6E5B0E0E6E5F0E0808180688C93B4
:100F6000E6E5F0E080818823DCF7E1E2F0E08081D3
:100F7000882F90E0887F90708831910511F084E08F
:100F8000898389810F900F90CF91DF910895DF932E
:100F9000CF9300D0CDB7DEB78A8381E08983E3E2C7
:100FA000F0E08A81880F8083A3E2B0E0E3E2F0E022
:100FB000808181608C93A6E5B0E0E6E5F0E0808179
:100FC0008F7D8C93A6E5B0E0E6E5F0E08081806857
:100FD0008C93E6E5F0E080818823DCF7E1E2F0E045
:100FE0008081882F90E0887F90708034910511F087
:100FF00085E0898389810F900F90CF91DF910895CB
:10100000DF93CF9300D0CDB7DEB78A8381E08983A9
:10101000E3E2F0E08A818083A6E5B0E0E6E5F0E077
:10102000808180688C93E6E5F0E080818823DCF79E
:10103000E1E2F0E08081882F90E0887F9070883234
:10104000910511F086E0898389810F900F90CF91EF
:10105000DF910895DF93CF9300D00F92CDB7DEB725
:101060009B838A8381E089838A819B81009701F138
:10107000A6E5B0E0E6E5F0E0808180688C93E6E5E7
:10108000F0E080818823DCF7E1E2F0E08081882FC6
:1010900090E0887F90708035910519F088E0898311
:1010A00009C0E3E2F0E08081EA81FB81808302C035
:1010B00087E0898389810F900F900F90CF91DF9106
:1010C0000895DF93CF93CDB7DEB7A6E5B0E0E6E5B0
:1010D000F0E0808180618C93A6E5B0E0E6E5F0E089
:1010E000808180688C93CF91DF910895DF93CF93B7
:1010F00000D0CDB7DEB79A83898389819A81909396
:101100008600809385000F900F90CF91DF91089516
:10111000DF93CF9300D0CDB7DEB79A8389838981DF
:101120009A8190938600809385000F900F90CF91C5
:10113000DF910895DF93CF9300D0CDB7DEB79A83C8
:10114000898389819A8190938C0080938B000F9082
:101150000F90CF91DF910895DF93CF9300D0CDB75B
:10116000DEB79A83898389819A8190938A008093DC
:1011700089000F900F90CF91DF910895DF93CF9367
:1011800000D0CDB7DEB79A83898389819A81909305
:101190008A00809389000F900F90CF91DF9108957E
:1011A000DF93CF9300D0CDB7DEB79A83898389814F
:1011B0009A8190938E0080938D000F900F90CF9125
:1011C000DF910895DF93CF9300D0CDB7DEB79A8338
:1011D000898389819A8190938800809387000F90FA
:1011E0000F90CF91DF910895DF93CF9300D0CDB7CB
:1011F000DEB79A83898389819A819093880080934E
:1012000087000F900F90CF91DF9108951F920F925A
:101210000FB60F9211242F933F934F935F936F93C9
:101220007F938F939F93AF93BF93EF93FF93DF933E
:10123000CF93CDB7DEB7809185009091860000975F
:1012400029F0E0918500F09186000995CF91DF911A
:10125000FF91EF91BF91AF919F918F917F916F918E
:101260005F914F913F912F910F900FBE0F901F9064
:1012700018951F920F920FB60F9211242F933F9340
:101280004F935F936F937F938F939F93AF93BF938E
:10129000EF93FF93DF93CF93CDB7DEB780918500B7
:1012A00090918600009729F0E0918500F0918600EA
:1012B0000995CF91DF91FF91EF91BF91AF919F91F0
:1012C0008F917F916F915F914F913F912F910F90EF
:1012D0000FBE0F901F9018951F920F920FB60F928E
:1012E00011242F933F934F935F936F937F938F932B
:1012F0009F93AF93BF93EF93FF93DF93CF93CDB7BC
:10130000DEB780918B0090918C00009729F0E091DE
:101310008B00F0918C000995CF91DF91FF91EF91B7
:10132000BF91AF919F918F917F916F915F914F91FD
:101330003F912F910F900FBE0F901F9018951F9205
:101340000F920FB60F9211242F933F934F935F93F9
:101350006F937F938F939F93AF93BF93EF93FF937D
:10136000DF93CF93CDB7DEB78091890090918A004B
:10137000009729F0E0918900F0918A000995CF91BA
:10138000DF91FF91EF91BF91AF919F918F917F91ED
:101390006F915F914F913F912F910F900FBE0F90E2
:1013A0001F9018951F920F920FB60F9211242F9332
:1013B0003F934F935F936F937F938F939F93AF93DD
:1013C000BF93EF93FF93DF93CF93CDB7DEB78091B9
:1013D000890090918A00009729F0E0918900F091AE
:1013E0008A000995CF91DF91FF91EF91BF91AF9165
:1013F0009F918F917F916F915F914F913F912F912D
:101400000F900FBE0F901F9018951F920F920FB65E
:101410000F9211242F933F934F935F936F937F937A
:101420008F939F93AF93BF93EF93FF93DF93CF93EC
:10143000CDB7DEB780918D0090918E00009729F096
:10144000E0918D00F0918E000995CF91DF91FF9191
:10145000EF91BF91AF919F918F917F916F915F912C
:101460004F913F912F910F900FBE0F901F901895A5
:101470001F920F920FB60F9211242F933F934F9309
:101480005F936F937F938F939F93AF93BF93EF93EC
:10149000FF93DF93CF93CDB7DEB780918700909114
:1014A0008800009729F0E0918700F0918800099565
:1014B000CF91DF91FF91EF91BF91AF919F918F916C
:1014C0007F916F915F914F913F912F910F900FBE40
:1014D0000F901F9018951F920F920FB60F92112424
:1014E0002F933F934F935F936F937F938F939F932C
:1014F000AF93BF93EF93FF93DF93CF93CDB7DEB757
:101500008091870090918800009729F0E0918700F2
:10151000F09188000995CF91DF91FF91EF91BF91F4
:10152000AF919F918F917F916F915F914F913F917B
:101530002F910F900FBE0F901F901895DF93CF93B0
:10154000CDB7DEB7A3E5B0E0E3E5F0E080818860E9
:101550008C93A3E5B0E0E3E5F0E0808180648C93B8
:10156000A3E5B0E0E3E5F0E0808180628C93A3E541
:10157000B0E0E3E5F0E080818F7E8C93A3E5B0E0FE
:10158000E3E5F0E0808184608C93A3E5B0E0E3E5DF
:10159000F0E080818D7F8C93A3E5B0E0E3E5F0E09F
:1015A00080818E7F8C93CF91DF910895DF93CF93CD
:1015B000CDB7DEB7AFE4B0E0EFE4F0E080818E7F3E
:1015C0008C93AFE4B0E0EFE4F0E080818D7F8C930A
:1015D000AEE4B0E0EEE4F0E08081877F8C93AEE48F
:1015E000B0E0EEE4F0E080818F7E8C93AEE4B0E07A
:1015F000EEE4F0E080818B7F8C93AEE4B0E0EEE42B
:10160000F0E080818D7F8C93AEE4B0E0EEE4F0E01A
:10161000808181608C93AFE4B0E0EFE4F0E0808102
:101620008F7B8C93AFE4B0E0EFE4F0E080818F77C4
:101630008C93AFE4B0E0EFE4F0E080818F7E8C9398
:10164000AFE4B0E0EFE4F0E080818F7D8C93A9E51A
:10165000B0E0E9E5F0E0808184608C93CF91DF9188
:101660000895DF93CF93CDB7DEB7A5E4B0E0E5E40E
:10167000F0E0808188608C93A5E4B0E0E5E4F0E0E0
:10168000808180648C93A5E4B0E0E5E4F0E08081A3
:1016900080628C93A5E4B0E0E5E4F0E080818F7E89
:1016A0008C93A5E4B0E0E5E4F0E080818B7F8C933F
:1016B000A5E4B0E0E5E4F0E080818D7F8C93A5E4C3
:1016C000B0E0E5E4F0E0808181608C93CF91DF9120
:1016D00008950F931F93DF93CF9300D000D0CDB721
:1016E000DEB769837A838B839C8369817A818B815E
:1016F0009C8120E030E048EC52E40E941903DC01B8
:10170000CB0189839A83AB83BC830CE510E06981AC
:101710007A818B819C8120E030E04FE753E40E9486
:101720001F02DC01CB01BC01CD0120E030E040E82C
:101730005FE30E94C101DC01CB01BC01CD010E942D
:101740004900DC01CB01F80180830F900F900F90CE
:101750000F90CF91DF911F910F9108950F931F93D9
:10176000DF93CF9300D000D0CDB7DEB769837A8303
:101770008B839C8369817A818B819C8120E030E01E
:1017800048EC52E40E941903DC01CB0189839A835F
:10179000AB83BC830AE410E069817A818B819C81F0
:1017A00020E03FEF4FE757E40E941F02DC01CB012E
:1017B000BC01CD0120E030E040E85FE30E94C101C0
:1017C000DC01CB01BC01CD010E944900DC01CB0151
:1017D000F801918380830F900F900F900F90CF911D
:1017E000DF911F910F9108950F931F93DF93CF9374
:1017F00000D000D0CDB7DEB769837A838B839C831A
:1018000069817A818B819C8120E030E048EC52E450
:101810000E941903DC01CB0189839A83AB83BC83CB
:1018200008E410E069817A818B819C8120E03FEFA0
:101830004FE757E40E941F02DC01CB01BC01CD0140
:1018400020E030E040E85FE30E94C101DC01CB0111
:10185000BC01CD010E944900DC01CB01F80191835C
:1018600080830F900F900F900F90CF91DF911F9179
:101870000F9108950F931F93DF93CF9300D000D063
:10188000CDB7DEB769837A838B839C8369817A8144
:101890008B819C8120E030E048EC52E40E941903E7
:1018A000DC01CB0189839A83AB83BC8303E410E022
:1018B00069817A818B819C8120E030E04FE753E49D
:1018C0000E941F02DC01CB01BC01CD0120E030E011
:1018D00040E85FE30E94C101DC01CB01BC01CD0106
:1018E0000E944900DC01CB01F80180830F900F902A
:1018F0000F900F90CF91DF911F910F910895DF937B
:10190000CF93CDB7DEB7A9E5B0E0E9E5F0E080819F
:1019100080628C93CF91DF910895DF93CF930F92E4
:10192000CDB7DEB789838981882341F4AEE4B0E086
:10193000EEE4F0E080818F7B8C930AC08981813056
:1019400039F4AEE4B0E0EEE4F0E0808180648C93A2
:101950000F90CF91DF910895DF93CF93CDB7DEB78E
:10196000E6E4F0E080819181CF91DF910895DF93EB
:10197000CF93CDB7DEB7AFE5B0E0EFE5F0E0808123
:1019800080688C93CF91DF910895DF93CF93CDB78B
:10199000DEB7AFE5B0E0EFE5F0E080818F778C93C4
:1019A000CF91DF910895DF93CF9300D0CDB7DEB70D
:1019B0009A83898389819A819093900080938F0084
:1019C0000F900F90CF91DF910895DF93CF9300D0C8
:1019D000CDB7DEB79A83898389819A8190939200EB
:1019E000809391000F900F90CF91DF910895DF9336
:1019F000CF9300D0CDB7DEB79A83898389819A814E
:101A000090939400809393000F900F90CF91DF916B
:101A100008951F920F920FB60F9211242F933F93A8
:101A20004F935F936F937F938F939F93AF93BF93E6
:101A3000EF93FF93DF93CF93CDB7DEB780918F0005
:101A400090919000009729F0E0918F00F091900024
:101A50000995CF91DF91FF91EF91BF91AF919F9148
:101A60008F917F916F915F914F913F912F910F9047
:101A70000FBE0F901F9018951F920F920FB60F92E6
:101A800011242F933F934F935F936F937F938F9383
:101A90009F93AF93BF93EF93FF93DF93CF93CDB714
:101AA000DEB78091910090919200009729F0E0912B
:101AB0009100F09192000995CF91DF91FF91EF9104
:101AC000BF91AF919F918F917F916F915F914F9156
:101AD0003F912F910F900FBE0F901F9018951F925E
:101AE0000F920FB60F9211242F933F934F935F9352
:101AF0006F937F938F939F93AF93BF93EF93FF93D6
:101B0000DF93CF93CDB7DEB780919300909194008F
:101B1000009729F0E0919300F09194000995CF91FE
:101B2000DF91FF91EF91BF91AF919F918F917F9145
:101B30006F915F914F913F912F910F900FBE0F903A
:101B40001F901895DF93CF93CDB7DEB7ABE5B0E02C
:101B5000EBE5F0E0808180648C93A5E5B0E0E5E5FD
:101B6000F0E0808181608C93A5E5B0E0E5E5F0E0F0
:101B700080818D7F8C93CF91DF910895DF93CF93F8
:101B8000CDB7DEB7ABE5B0E0EBE5F0E08081806893
:101B90008C93A5E5B0E0E5E5F0E080818B7F8C9348
:101BA000A5E5B0E0E5E5F0E0808188608C93CF9119
:101BB000DF910895DF93CF93CDB7DEB7ABE5B0E00B
:101BC000EBE5F0E0808180628C93A4E5B0E0E4E591
:101BD000F0E080818F7B8C93CF91DF910895DF932C
:101BE000CF93CDB7DEB727970FB6F894DEBF0FBE01
:101BF000CDBF89836A834B838B81813009F06FC0AD
:101C00008981282F30E03F832E838E819F81813010
:101C1000910549F12E813F81223031052CF48E81CE
:101C20009F81009761F0D2C02E813F812230310523
:101C300071F18E819F8183309105E9F1C7C0AAE3DC
:101C4000B0E0EAE3F0E08081482F8A81282F30E07D
:101C500081E090E0022E02C0880F991F0A94E2F7FB
:101C6000842B8C93B3C0A7E3B0E0E7E3F0E080817E
:101C7000482F8A81282F30E081E090E0022E02C0B8
:101C8000880F991F0A94E2F7842B8C939FC0A4E3DA
:101C9000B0E0E4E3F0E08081482F8A81282F30E033
:101CA00081E090E0022E02C0880F991F0A94E2F7AB
:101CB000842B8C938BC0A1E3B0E0E1E3F0E0808162
:101CC000482F8A81282F30E081E090E0022E02C068
:101CD000880F991F0A94E2F7842B8C9377C08B812D
:101CE000882309F073C08981282F30E03D832C833D
:101CF0008C819D818130910559F12C813D8122306B
:101D000031052CF48C819D81009769F05FC02C8196
:101D10003D812230310589F18C819D81833091058F
:101D200009F440C053C0AAE3B0E0EAE3F0E08081E8
:101D3000482F8A81282F30E081E090E0022E02C0F7
:101D4000880F991F0A94E2F7809584238C933EC0F4
:101D5000A7E3B0E0E7E3F0E08081482F8A81282FF5
:101D600030E081E090E0022E02C0880F991F0A94B3
:101D7000E2F7809584238C9329C0A4E3B0E0E4E3E8
:101D8000F0E08081482F8A81282F30E081E090E0C8
:101D9000022E02C0880F991F0A94E2F780958423CF
:101DA0008C9314C0A1E3B0E0E1E3F0E08081482F20
:101DB0008A81282F30E081E090E0022E02C0880F57
:101DC000991F0A94E2F7809584238C9327960FB687
:101DD000F894DEBF0FBECDBFCF91DF910895DF93A2
:101DE000CF93CDB7DEB727970FB6F894DEBF0FBEFF
:101DF000CDBF89836A834B838B81813009F06FC0AB
:101E00008981282F30E03F832E838E819F8181300E
:101E1000910549F12E813F81223031052CF48E81CC
:101E20009F81009761F0D2C02E813F812230310521
:101E300071F18E819F8183309105E9F1C7C0ABE3D9
:101E4000B0E0EBE3F0E08081482F8A81282F30E07A
:101E500081E090E0022E02C0880F991F0A94E2F7F9
:101E6000842B8C93B3C0A8E3B0E0E8E3F0E080817A
:101E7000482F8A81282F30E081E090E0022E02C0B6
:101E8000880F991F0A94E2F7842B8C939FC0A5E3D7
:101E9000B0E0E5E3F0E08081482F8A81282F30E030
:101EA00081E090E0022E02C0880F991F0A94E2F7A9
:101EB000842B8C938BC0A2E3B0E0E2E3F0E080815E
:101EC000482F8A81282F30E081E090E0022E02C066
:101ED000880F991F0A94E2F7842B8C9377C08B812B
:101EE000882309F073C08981282F30E03D832C833B
:101EF0008C819D818130910559F12C813D81223069
:101F000031052CF48C819D81009769F05FC02C8194
:101F10003D812230310589F18C819D81833091058D
:101F200009F440C053C0ABE3B0E0EBE3F0E08081E4
:101F3000482F8A81282F30E081E090E0022E02C0F5
:101F4000880F991F0A94E2F7809584238C933EC0F2
:101F5000A8E3B0E0E8E3F0E08081482F8A81282FF1
:101F600030E081E090E0022E02C0880F991F0A94B1
:101F7000E2F7809584238C9329C0A5E3B0E0E5E3E4
:101F8000F0E08081482F8A81282F30E081E090E0C6
:101F9000022E02C0880F991F0A94E2F780958423CD
:101FA0008C9314C0A2E3B0E0E2E3F0E08081482F1C
:101FB0008A81282F30E081E090E0022E02C0880F55
:101FC000991F0A94E2F7809584238C9327960FB685
:101FD000F894DEBF0FBECDBFCF91DF910895DF93A0
:101FE000CF9300D000D0CDB7DEB789836A838981D3
:101FF000282F30E03C832B838B819C81813091059D
:10200000D1F02B813C81223031052CF48B819C81D5
:10201000009761F01EC02B813C812230310581F098
:102020008B819C818330910581F013C0EAE3F0E05D
:102030008A8180830EC0E7E3F0E08A81808309C053
:10204000E4E3F0E08A81808304C0E1E3F0E08A8188
:1020500080830F900F900F900F90CF91DF91089594
:10206000DF93CF9300D000D0CDB7DEB789836A83EA
:102070008981282F30E03C832B838B819C818130A8
:102080009105D1F02B813C81223031052CF48B81DC
:102090009C81009761F01EC02B813C81223031056C
:1020A00081F08B819C818330910581F013C0EBE33B
:1020B000F0E08A8180830EC0E8E3F0E08A818083CB
:1020C00009C0E5E3F0E08A81808304C0E2E3F0E048
:1020D0008A8180830F900F900F900F90CF91DF91A6
:1020E0000895DF93CF9300D000D00F92CDB7DEB725
:1020F0008A836B8319828A81282F30E03D832C8369
:102100004C815D814130510541F18C819D8182304E
:10211000910534F42C813D812115310561F052C0C7
:102120004C815D814230510551F18C819D8183301C
:102130009105B9F147C0E9E3F0E08081282F30E054
:102140008B81882F90E0A90102C0559547958A950B
:10215000E2F7CA018170898335C0E6E3F0E080814F
:10216000282F30E08B81882F90E0A90102C055957F
:1021700047958A95E2F7CA018170898323C0E3E31A
:10218000F0E08081282F30E08B81882F90E0A9013A
:1021900002C0559547958A95E2F7CA0181708983F7
:1021A00011C0E0E3F0E08081282F30E08B81882FA0
:1021B00090E0A90102C0559547958A95E2F7CA01BA
:1021C0008170898389810F900F900F900F900F90ED
:1021D000CF91DF910895DF93CF9300D000D0CDB79A
:1021E000DEB789836A838981282F30E03C832B8383
:1021F0008B819C818130910549F12B813C8122307A
:1022000031052CF48B819C81009761F05AC02B81A1
:102210003C812230310571F18B819C8183309105A5
:10222000E9F14FC0ABE3B0E0EBE3F0E08081482F91
:102230008A81282F30E081E090E0022E02C0880FD2
:10224000991F0A94E2F784278C933BC0A8E3B0E07F
:10225000E8E3F0E08081482F8A81282F30E081E098
:1022600090E0022E02C0880F991F0A94E2F784279B
:102270008C9327C0A5E3B0E0E5E3F0E08081482F30
:102280008A81282F30E081E090E0022E02C0880F82
:10229000991F0A94E2F784278C9313C0A2E3B0E05D
:1022A000E2E3F0E08081482F8A81282F30E081E04E
:1022B00090E0022E02C0880F991F0A94E2F784274B
:1022C0008C930F900F900F900F90CF91DF91089506
:1022D000DF93CF9300D0CDB7DEB79A83898389810E
:1022E0009A8190939600809395000F900F90CF91D4
:1022F000DF9108951F920F920FB60F9211242F9322
:102300003F934F935F936F937F938F939F93AF937D
:10231000BF93EF93FF93DF93CF93CDB7DEB7809159
:10232000950090919600009729F0E0919500F0912A
:1023300096000995CF91DF91FF91EF91BF91AF91F9
:102340009F918F917F916F915F914F913F912F91CD
:102350000F900FBE0F901F901895DF93CF93CDB7BE
:10236000DEB7A7E2B0E0E7E2F0E0808180648C9322
:10237000A7E2B0E0E7E2F0E080818F778C93A6E2FD
:10238000B0E0E6E2F0E080818E7F8C93A6E2B0E0E0
:10239000E6E2F0E0808182608C93A6E2B0E0E6E2C3
:1023A000F0E0808184608C93A7E2B0E0E7E2F0E0A7
:1023B00080818F7D8C93A6E2B0E0E6E2F0E0808140
:1023C00080628C93A0E5B0E0E0E5F0E080818F7D55
:1023D0008C93A0E5B0E0E0E5F0E0808180648C9330
:1023E000A0E5B0E0E0E5F0E080818F778C93A6E295
:1023F000B0E0E6E2F0E0808180688C93CF91DF91DD
:102400000895DF93CF93CDB7DEB7A6E2B0E0E6E262
:10241000F0E0808180648C93CF91DF910895DF9309
:10242000CF930F92CDB7DEB78983A7E2B0E0E7E2A2
:10243000F0E08081807E8C93A7E2B0E0E7E2F0E0FC
:1024400090818981892B8C930F90CF91DF91089592
:10245000DF93CF93CDB7DEB7A6E2B0E0E6E2F0E0DF
:10246000808188608C93CF91DF910895DF93CF9323
:10247000CDB7DEB7E6E2F0E0808182958F70882FDD
:1024800090E0817090700097A9F3A6E2B0E0E6E2D8
:10249000F0E0808180618C93CF91DF910895DF938C
:1024A000CF9300D0CDB7DEB79A838983E4E2F0E022
:1024B00080819181E981FA81918380830F900F90CF
:1024C000CF91DF910895DF93CF93CDB7DEB76C97AF
:1024D0000FB6F894DEBF0FBECDBF80E062E041E0F2
:1024E0000E94EF0E80E090E0A0E8BFE3898F9A8F12
:1024F000AB8FBC8F698D7A8D8B8D9C8D20E030E009
:102500004AEF54E40E941F02DC01CB018D8B9E8BAD
:10251000AF8BB88F6D897E898F89988D20E030E0F0
:1025200040E85FE30E94250488232CF481E090E0DA
:102530009C8B8B8B3FC06D897E898F89988D20E025
:102540003FEF4FE757E40E94C50318164CF5698D1D
:102550007A8D8B8D9C8D20E030E040E251E40E942A
:102560001F02DC01CB01BC01CD010E944900DC014E
:10257000CB019C8B8B8B0FC088EC90E09A8B898B66
:1025800089899A890197F1F79A8B898B8B899C8924
:1025900001979C8B8B8B8B899C89009769F714C062
:1025A0006D897E898F89988D0E944900DC01CB015D
:1025B0009C8B8B8B8B899C89988B8F878F85988937
:1025C0000197F1F7988B8F8780E062E040E00E94EE
:1025D000EF0E80E090E0A0E8BFE38B879C87AD879B
:1025E000BE876B857C858D859E8520E030E04AEF37
:1025F00054E40E941F02DC01CB018F839887A987D6
:10260000BA876F81788589859A8520E030E040E837
:102610005FE30E94250488232CF481E090E09E83F0
:102620008D833FC06F81788589859A8520E03FEF53
:102630004FE757E40E94C50318164CF56B857C855F
:102640008D859E8520E030E040E251E40E941F022B
:10265000DC01CB01BC01CD010E944900DC01CB01B2
:102660009E838D830FC088EC90E09C838B838B814D
:102670009C810197F1F79C838B838D819E810197CB
:102680009E838D838D819E81009769F714C06F8131
:10269000788589859A850E944900DC01CB019E835B
:1026A0008D838D819E819A83898389819A81019707
:1026B000F1F79A8389836C960FB6F894DEBF0FBE4C
:1026C000CDBFCF91DF910895DF93CF93CDB7DEB724
:1026D000E8970FB6F894DEBF0FBECDBF80E090E064
:1026E000A8E4B2E48DAB9EABAFABB8AF6DA97EA949
:1026F0008FA998AD20E030E04AEF54E40E941F0219
:10270000DC01CB0189AB9AABABABBCAB69A97AA9B5
:102710008BA99CA920E030E040E85FE30E942504FB
:1027200088232CF481E090E098AB8FA73FC069A983
:102730007AA98BA99CA920E03FEF4FE757E40E94BC
:10274000C50318164CF56DA97EA98FA998AD20E098
:1027500030E040E251E40E941F02DC01CB01BC01E9
:10276000CD010E944900DC01CB0198AB8FA70FC0BF
:1027700088EC90E09EA78DA78DA59EA50197F1F707
:102780009EA78DA78FA598A9019798AB8FA78FA516
:1027900098A9009769F714C069A97AA98BA99CA97F
:1027A0000E944900DC01CB0198AB8FA78FA598A9A7
:1027B0009CA78BA78BA59CA50197F1F79CA78BA73E
:1027C00081E06FEF0E94EF0F80E067E00E94EF0F63
:1027D00088E30E945C1580E090E0A0E8BFE38FA34F
:1027E00098A7A9A7BAA76FA178A589A59AA520E05F
:1027F00030E04AEF54E40E941F02DC01CB018BA3BE
:102800009CA3ADA3BEA36BA17CA18DA19EA120E042
:1028100030E040E85FE30E94250488232CF481E047
:1028200090E09AA389A33FC06BA17CA18DA19EA13A
:1028300020E03FEF4FE757E40E94C50318164CF520
:102840006FA178A589A59AA520E030E040E251E487
:102850000E941F02DC01CB01BC01CD010E94490096
:10286000DC01CB019AA389A30FC088EC90E098A368
:102870008F8F8F8D98A10197F1F798A38F8F89A1E2
:102880009AA101979AA389A389A19AA1009769F7B0
:1028900014C06BA17CA18DA19EA10E944900DC0106
:1028A000CB019AA389A389A19AA19E8F8D8F8D8D2B
:1028B0009E8D0197F1F79E8F8D8F8CE00E945C15A5
:1028C00080E090E0A0E8BFE3898F9A8FAB8FBC8F48
:1028D000698D7A8D8B8D9C8D20E030E04AEF54E439
:1028E0000E941F02DC01CB018D8B9E8BAF8BB88FBA
:1028F0006D897E898F89988D20E030E040E85FE324
:102900000E94250488232CF481E090E09C8B8B8B23
:102910003FC06D897E898F89988D20E03FEF4FE71A
:1029200057E40E94C50318164CF5698D7A8D8B8D7E
:102930009C8D20E030E040E251E40E941F02DC0167
:10294000CB01BC01CD010E944900DC01CB019C8B75
:102950008B8B0FC088EC90E09A8B898B89899A8940
:102960000197F1F79A8B898B8B899C8901979C8BB6
:102970008B8B8B899C89009769F714C06D897E8940
:102980008F89988D0E944900DC01CB019C8B8B8B39
:102990008B899C89988B8F878F8598890197F1F710
:1029A000988B8F8781E00E945C1580E090E0A0E02A
:1029B000B0E48B879C87AD87BE876B857C858D85D2
:1029C0009E8520E030E04AEF54E40E941F02DC01C3
:1029D000CB018F839887A987BA876F81788589858E
:1029E0009A8520E030E040E85FE30E9425048823D8
:1029F0002CF481E090E09E838D833FC06F817885C9
:102A000089859A8520E03FEF4FE757E40E94C50390
:102A100018164CF56B857C858D859E8520E030E011
:102A200040E251E40E941F02DC01CB01BC01CD0158
:102A30000E944900DC01CB019E838D830FC088EC8E
:102A400090E09C838B838B819C810197F1F79C8321
:102A50008B838D819E8101979E838D838D819E8145
:102A6000009769F714C06F81788589859A850E94DF
:102A70004900DC01CB019E838D838D819E819A83E9
:102A8000898389819A810197F1F79A83898386E006
:102A90000E945C1582E00E945C1581E00E945C153A
:102AA00081E00E945C15E8960FB6F894DEBF0FBE79
:102AB000CDBFCF91DF910895DF93CF930F92CDB724
:102AC000DEB7898380E060E040E00E94EF0E80E0A6
:102AD00061E040E00E94EF0E81E069810E943010C9
:102AE0000E9463120F90CF91DF910895DF93CF93EF
:102AF000CDB7DEB76D970FB6F894DEBF0FBECDBF72
:102B00008D8F80E060E041E00E94EF0E80E061E0A8
:102B100040E00E94EF0E81E06D8D0E94301080E059
:102B200062E041E00E94EF0E80E090E0A0E8BFE3A9
:102B3000898F9A8FAB8FBC8F698D7A8D8B8D9C8D91
:102B400020E030E04AEF54E40E941F02DC01CB0198
:102B50008D8B9E8BAF8BB88F6D897E898F89988D79
:102B600020E030E040E85FE30E94250488232CF455
:102B700081E090E09C8B8B8B3FC06D897E898F8933
:102B8000988D20E03FEF4FE757E40E94C5031816E9
:102B90004CF5698D7A8D8B8D9C8D20E030E040E284
:102BA00051E40E941F02DC01CB01BC01CD010E9457
:102BB0004900DC01CB019C8B8B8B0FC088EC90E033
:102BC0009A8B898B89899A890197F1F79A8B898BDE
:102BD0008B899C8901979C8B8B8B8B899C89009717
:102BE00069F714C06D897E898F89988D0E9449008C
:102BF000DC01CB019C8B8B8B8B899C89988B8F877D
:102C00008F8598890197F1F7988B8F8780E062E034
:102C100040E00E94EF0E80E090E0A0E8BFE38B87E9
:102C20009C87AD87BE876B857C858D859E8520E0E2
:102C300030E04AEF54E40E941F02DC01CB018F8395
:102C40009887A987BA876F81788589859A8520E0DA
:102C500030E040E85FE30E94250488232CF481E003
:102C600090E09E838D833FC06F81788589859A85AA
:102C700020E03FEF4FE757E40E94C50318164CF5DC
:102C80006B857C858D859E8520E030E040E251E4B7
:102C90000E941F02DC01CB01BC01CD010E94490052
:102CA000DC01CB019E838D830FC088EC90E09C8378
:102CB0008B838B819C810197F1F79C838B838D8122
:102CC0009E8101979E838D838D819E81009769F7F8
:102CD00014C06F81788589859A850E944900DC013E
:102CE000CB019E838D838D819E819A838983898187
:102CF0009A810197F1F79A8389836D960FB6F894BC
:102D0000DEBF0FBECDBFCF91DF910895DF93CF938C
:102D100000D00F92CDB7DEB79B838A83198219C08A
:102D20008981282F30E08A819B81FC01E20FF31F0B
:102D30008081882389F08981282F30E08A819B81D6
:102D4000FC01E20FF31F80810E94761589818F5F5D
:102D500089838981843620F30F900F900F90CF9153
:102D6000DF910895EF92FF920F931F93DF93CF931C
:102D7000CDB7DEB72C970FB6F894DEBF0FBECDBF30
:102D800069877A878B879C871D821E821F8218869F
:102D90001B8289859A85AB85BC850097A105B10505
:102DA00009F046C080E30E94761542C08D819E8165
:102DB000AF81B8852AE030E040E050E0BC01CD01B1
:102DC0000E94D0197B018C0189859A85AB85BC85D1
:102DD0002AE030E040E050E0BC01CD010E94EF1954
:102DE000DC01CB018E0D9F1DA01FB11F8D839E8323
:102DF000AF83B8878D819E81AF81B8850097A1058B
:102E0000B10521F41C828B818F5F8B8389859A8524
:102E1000AB85BC852AE030E040E050E0BC01CD014C
:102E20000E94EF19DA01C90189879A87AB87BC87AD
:102E300089859A85AB85BC850097A105B10509F008
:102E4000B5CF25C08D819E81AF81B8852AE030E065
:102E500040E050E0BC01CD010E94EF19DC01CB0144
:102E60008A838A81805D0E9476158D819E81AF81E3
:102E7000B8852AE030E040E050E0BC01CD010E947E
:102E8000EF19DA01C9018D839E83AF83B8878D81E5
:102E90009E81AF81B8850097A105B10599F68C8117
:102EA000882361F4198206C080E30E947615898127
:102EB0008F5F898399818B819817B0F32C960FB619
:102EC000F894DEBF0FBECDBFCF91DF911F910F9160
:102ED000FF90EF900895DF93CF9300D0CDB7DEB78A
:102EE00089836A838981882329F48A8180580E9492
:102EF0005C1507C08981813021F48A8180540E9449
:102F00005C150F900F90CF91DF9108950F93DF9391
:102F1000CF93CDB7DEB727970FB6F894DEBF0FBEBD
:102F2000CDBF9B838A836C834D832E830F838C81DB
:102F3000805C0E945C1519820EC08981282F30E0C8
:102F40008A819B81FC01E20FF31F80810E9476152C
:102F500089818F5F89838981883078F38D816E8143
:102F60000E946B178F810E94761527960FB6F894F2
:102F7000DEBF0FBECDBFCF91DF910F9108950F93AC
:102F8000DF93CF93CDB7DEB72B970FB6F894DEBFA4
:102F90000FBECDBF89876A874B8788E0FE013196D7
:102FA000DF01982F1D929A95E9F7CE01019660E016
:102FB00049852A8500E00E9486178A858F5F8A8767
:102FC0009A858B85981789F72B960FB6F894DEBFF4
:102FD0000FBECDBFCF91DF910F910895DF93CF93B7
:102FE000CDB7DEB7A0970FB6F894DEBF0FBECDBF4A
:102FF00018A21F8E1E8E1D8E83E067E041E00E94A6
:10300000EF0D83E066E040E00E94EF0D83E066E0B4
:1030100041E00E94EF0E0E94641380E690E00E945F
:10302000861680E090E0AAE7B4E4898F9A8FAB8F90
:10303000BC8F698D7A8D8B8D9C8D20E030E04AEFBE
:1030400054E40E941F02DC01CB018D8B9E8BAF8B61
:10305000B88F6D897E898F89988D20E030E040E8B7
:103060005FE30E94250488232CF481E090E09C8B90
:103070008B8B3FC06D897E898F89988D20E03FEFD3
:103080004FE757E40E94C50318164CF5698D7A8DF9
:103090008B8D9C8D20E030E040E251E40E941F02C5
:1030A000DC01CB01BC01CD010E944900DC01CB0158
:1030B0009C8B8B8B0FC088EC90E09A8B898B8989D5
:1030C0009A890197F1F79A8B898B8B899C89019753
:1030D0009C8B8B8B8B899C89009769F714C06D89B9
:1030E0007E898F89988D0E944900DC01CB019C8BE1
:1030F0008B8B8B899C89988B8F878F85988901977B
:10310000F1F7988B8F870E94B70C8EE599E10E94AA
:10311000D00884EC99E10E949A080E94310B0E9429
:10312000D60A81E00E948D0C0E947F0C80919D0048
:103130008330E1F760E070E084EB92E40E943A0CA7
:1031400081E00E945C158091990090919A00282F4F
:1031500030E08091970090919800882F90E0A9012D
:10316000481B590BCA0198A38F8F80919B009091A7
:103170009C00282F30E08091990090919A00882F30
:1031800090E0A901481B590BCA019E8F8D8F80E7E3
:1031900090E00E9486168F8D882F90E0A0E0B0E02E
:1031A000BC01CD010E94B21681E060E00E946B1765
:1031B00085E790E00E9486168D8D882F90E0A0E034
:1031C000B0E0BC01CD010E94B21680E090E0A6E91B
:1031D000B3E48B879C87AD87BE876B857C858D85A7
:1031E0009E8520E030E04AEF54E40E941F02DC019B
:1031F000CB018F839887A987BA876F817885898566
:103200009A8520E030E040E85FE30E9425048823AF
:103210002CF481E090E09E838D833FC06F817885A0
:1032200089859A8520E03FEF4FE757E40E94C50368
:1032300018164CF56B857C858D859E8520E030E0E9
:1032400040E251E40E941F02DC01CB01BC01CD0130
:103250000E944900DC01CB019E838D830FC088EC66
:1032600090E09C838B838B819C810197F1F79C83F9
:103270008B838D819E8101979E838D838D819E811D
:10328000009769F714C06F81788589859A850E94B7
:103290004900DC01CB019E838D838D819E819A83C1
:1032A000898389819A810197F1F79A8389831092A2
:1032B0009D0018A21F8E1E8E1D8E38CF0F931F9358
:1032C000DF93CF93CDB7DEB780919D00882379F44B
:1032D0000E94AC0C909398008093970010929E00EF
:1032E00081E080939D0080E00E948D0C48C0809119
:1032F0009D00813011F50E94AC0C8C0180919E00E4
:10330000882F90E0A0E0B0E02FEF3FEF40E050E0EA
:10331000BC01CD010E94D019DC01CB01800F911FAF
:1033200090939A008093990010929E0082E080937F
:103330009D0081E00E948D0C22C080919D00823012
:10334000F1F40E94AC0C8C0180919E00882F90E0DB
:10335000A0E0B0E02FEF3FEF40E050E0BC01CD0136
:103360000E94D019DC01CB01800F911F90939C002B
:1033700080939B0010929E0083E080939D00CF91EC
:10338000DF911F910F910895DF93CF93CDB7DEB7F3
:1033900080919E008F5F80939E00CF91DF91089572
:1033A000629FD001739FF001829FE00DF11D649F29
:1033B000E00DF11D929FF00D839FF00D749FF00DB5
:1033C000659FF00D9927729FB00DE11DF91F639F56
:1033D000B00DE11DF91FBD01CF0111240895A1E237
:1033E0001A2EAA1BBB1BFD010DC0AA1FBB1FEE1F7F
:1033F000FF1FA217B307E407F50720F0A21BB30BCA
:10340000E40BF50B661F771F881F991F1A9469F745
:1034100060957095809590959B01AC01BD01CF01A1
:1034200008952F923F924F925F926F927F928F9268
:103430009F92AF92BF92CF92DF92EF92FF920F9343
:103440001F93CF93DF93CDB7DEB7CA1BDB0B0FB64D
:10345000F894DEBF0FBECDBF09942A88398848880A
:103460005F846E847D848C849B84AA84B984C884A0
:10347000DF80EE80FD800C811B81AA81B981CE0F97
:10348000D11D0FB6F894DEBF0FBECDBFED0108957C
:04349000F894FFCFDE
:1034940057656C636F6D6520656C73617965640055
:1034A400546F6E3D00546F66663D000000000000DE
:0434B4000000000014
:00000001FF
